{
	"data": {
		"bytecode": {
			"linkReferences": {},
			"object": "60806040526298968060065560006008556000600a556000600b556000600e55600060105560006011553480156200003657600080fd5b506040518060400160405280600581526020016426bca3b7bb60d91b8152506040518060400160405280600381526020016226a3ab60e91b815250816003908051906020019062000089929190620002b8565b5080516200009f906004906020840190620002b8565b50620000ad915050620000b3565b620003ea565b3360009081526005602052604090205460ff161515600114156200011e5760405162461bcd60e51b815260206004820152601f60248201527f416c72656164792074616b656e207468652066617563657420746f6b656e2e0060448201526064015b60405180910390fd5b60065462000136620001ef60201b620007011760201c565b1415620001865760405162461bcd60e51b815260206004820152601c60248201527f54686520656e64206f662074686520746f6b656e20737570706c792e00000000604482015260640162000115565b336000818152600560205260409020805460ff19166001179055620001c9906001600160a01b03166000908152600760205260409020805460ff19166001179055565b620001d6336001620001f5565b60088054906000620001e883620003b6565b9190505550565b60025490565b6001600160a01b0382166200024d5760405162461bcd60e51b815260206004820152601f60248201527f45524332303a206d696e7420746f20746865207a65726f206164647265737300604482015260640162000115565b80600260008282546200026191906200035e565b90915550506001600160a01b038216600081815260208181526040808320805486019055518481527fddf252ad1be2c89b69c2b068fc378daa952ba7f163c4a11628f55a4df523b3ef910160405180910390a35050565b828054620002c69062000379565b90600052602060002090601f016020900481019282620002ea576000855562000335565b82601f106200030557805160ff191683800117855562000335565b8280016001018555821562000335579182015b828111156200033557825182559160200191906001019062000318565b506200034392915062000347565b5090565b5b8082111562000343576000815560010162000348565b60008219821115620003745762000374620003d4565b500190565b600181811c908216806200038e57607f821691505b60208210811415620003b057634e487b7160e01b600052602260045260246000fd5b50919050565b6000600019821415620003cd57620003cd620003d4565b5060010190565b634e487b7160e01b600052601160045260246000fd5b613a4380620003fa6000396000f3fe60806040526004361061019f5760003560e01c806306fdde03146101a4578063095ea7b3146101cf57806318160ddd146101ff5780631d2acdfd1461021e57806323b872dd1461023e57806323fd498b1461025e5780632e8f341314610273578063313ce567146102a357806339509351146102bf57806339c94d2d146102df57806342caaeb4146103015780635d801b3714610321578063702798df1461033657806370a082311461035657806370a56c73146103765780637c405164146103a4578063863451dd146103d8578063875b5076146103e057806392256aec1461043157806395d89b411461046a5780639983fa581461047f578063a1669b32146104af578063a230c524146104cf578063a457c2d7146104ef578063a5e898e11461050f578063a9059cbb14610522578063bcf2cb0f14610542578063bd27576414610562578063bd6c733c14610582578063bf50556d14610595578063d5abeb01146105aa578063dd62ed3e146105bf578063de5f72fd146105df578063ef269ae3146105f4578063f22449ba14610607578063fabf596814610627575b600080fd5b3480156101b057600080fd5b506101b9610657565b6040516101c6919061367c565b60405180910390f35b3480156101db57600080fd5b506101ef6101ea36600461341a565b6106e9565b60405190151581526020016101c6565b34801561020b57600080fd5b506002545b6040519081526020016101c6565b34801561022a57600080fd5b50610210610239366004613528565b610707565b34801561024a57600080fd5b506101ef6102593660046133de565b610744565b34801561026a57600080fd5b50601054610210565b34801561027f57600080fd5b5061029361028e366004613528565b6107c6565b6040516101c694939291906136d9565b3480156102af57600080fd5b50604051601281526020016101c6565b3480156102cb57600080fd5b506101ef6102da36600461341a565b61089a565b3480156102eb57600080fd5b506102ff6102fa366004613528565b6108bc565b005b34801561030d57600080fd5b506102ff61031c3660046135bf565b61091a565b34801561032d57600080fd5b50600b54610210565b34801561034257600080fd5b506102ff610351366004613541565b610c01565b34801561036257600080fd5b50610210610371366004613389565b610f53565b34801561038257600080fd5b50610396610391366004613528565b610f6e565b6040516101c692919061384a565b3480156103b057600080fd5b506101ef6103bf366004613528565b6000908152600d60208190526040909120015460ff1690565b6102ff610fda565b3480156103ec57600080fd5b506104196103fb366004613528565b6000908152600960205260409020600601546001600160a01b031690565b6040516001600160a01b0390911681526020016101c6565b34801561043d57600080fd5b5061041961044c366004613528565b6000908152600d60205260409020600701546001600160a01b031690565b34801561047657600080fd5b506101b9611026565b34801561048b57600080fd5b5061021061049a366004613528565b6000908152600d602052604090206006015490565b3480156104bb57600080fd5b506102ff6104ca36600461341a565b611035565b3480156104db57600080fd5b506101ef6104ea366004613389565b6112b2565b3480156104fb57600080fd5b506101ef61050a36600461341a565b6112d0565b6102ff61051d366004613444565b611356565b34801561052e57600080fd5b506101ef61053d36600461341a565b611624565b34801561054e57600080fd5b5061021061055d366004613528565b61169a565b34801561056e57600080fd5b506102ff61057d366004613528565b611801565b6102ff610590366004613528565b611ac0565b3480156105a157600080fd5b50601154610210565b3480156105b657600080fd5b50600654610210565b3480156105cb57600080fd5b506102106105da3660046133ab565b611e4d565b3480156105eb57600080fd5b506102ff611e78565b6102106106023660046134d5565b611f75565b34801561061357600080fd5b506102ff6106223660046135bf565b612151565b34801561063357600080fd5b50610647610642366004613528565b6123ba565b6040516101c6949392919061368f565b60606003805461066690613955565b80601f016020809104026020016040519081016040528092919081815260200182805461069290613955565b80156106df5780601f106106b4576101008083540402835291602001916106df565b820191906000526020600020905b8154815290600101906020018083116106c257829003601f168201915b5050505050905090565b6000336106f781858561253d565b5060019392505050565b60025490565b6000818152600d60205260408120600e810154600490910180549091908110610732576107326139c1565b90600052602060002001549050919050565b600083828061075283610f53565b101561075d57600080fd5b8061076783610f53565b1415610790576001600160a01b0382166000908152601360205260409020541561079057600080fd5b3361079c878287612662565b6107a78787876126dc565b6107b08761286e565b6107b98661286e565b5060019695505050505050565b606060008060006009600086815260200190815260200160002060010180546107ee90613955565b80601f016020809104026020016040519081016040528092919081815260200182805461081a90613955565b80156108675780601f1061083c57610100808354040283529160200191610867565b820191906000526020600020905b81548152906001019060200180831161084a57829003601f168201915b50505060009788525050600960205260409095206002810154600382015460049092015496979096919550909350915050565b6000336106f78185856108ad8383611e4d565b6108b7919061389b565b61253d565b806108c633610f53565b101561090d5760405162461bcd60e51b81526020600482015260116024820152706e6f7420656e6f75676820746f6b656e7360781b60448201526064015b60405180910390fd5b61091733826128e5565b50565b33610924816112b2565b6109405760405162461bcd60e51b815260040161090490613737565b6000838152600d602081905260409091200154839060ff166109745760405162461bcd60e51b815260040161090490613794565b3360006109808661169a565b905060008112156109a35760405162461bcd60e51b815260040161090490613708565b6000868152600d60209081526040808320848452600f0182528083206001600160a01b03861684526005019091529020548190600113610a195760405162461bcd60e51b8152602060048201526011602482015270796f7520766f74656420616c726561647960781b6044820152606401610904565b8515610ac1576000878152600d60209081526040808320848452600f018252808320600281018054600180820183559186528486200180546001600160a01b0319166001600160a01b038a1690811790915585526005909101909252822054610a81916138d2565b6000898152600d60209081526040808320868452600f01909152812060040180549293508392909190610ab590849061389b565b90915550610b07915050565b6000878152600d60209081526040808320848452600f0182528220600301805460018101825590835291200180546001600160a01b0319166001600160a01b0385161790555b6000878152600d60209081526040808320848452600f0182528083206001600160a01b038716845260050182528083206001905533835260139091528120805491610b5183613990565b919050555060005b6000888152600d60209081526040808320338452601001909152902054811015610bf7576000888152600d602090815260408083203384526010019091528120805483908110610bab57610bab6139c1565b60009182526020808320909101546001600160a01b031680835260139091526040822080549193509091610bde83613990565b9190505550508080610bef90613990565b915050610b59565b5050505050505050565b610c0a336112b2565b610c265760405162461bcd60e51b815260040161090490613765565b600083815260096020526040902060040154811115610c7b5760405162461bcd60e51b8152602060048201526011602482015270746f6f206d7563682063686f696365732160781b6044820152606401610904565b600083815260096020908152604080832033845260080190915290205460ff1615610cdf5760405162461bcd60e51b81526020600482015260146024820152737375727665792074616b656e206265666f72652160601b6044820152606401610904565b6000838152600960205260409020600201544210801590610d195750600083815260096020526040902060060154600160a01b900460ff16155b15610d4b576000838152600960205260409020600601805460ff60a01b1916600160a01b179055610d4983612a02565b505b600083815260096020526040902060020154421115610d7c5760405162461bcd60e51b8152600401610904906137f6565b336000908152601360205260408120805491610d9783613990565b919050555060005b808214610e3957600084815260096020526040902060030154838383818110610dca57610dca6139c1565b9050602002013510610dee5760405162461bcd60e51b8152600401610904906137c4565b6000838383818110610e0257610e026139c1565b905060200201351015610e275760405162461bcd60e51b8152600401610904906137c4565b80610e3181613990565b915050610d9f565b6000848152600960205260408120600501805491610e5683613990565b909155505060008481526009602090815260408083203384526007019091529020610e8290848461316b565b50600090505b808214610ef857600084815260096020819052604090912001838383818110610eb357610eb36139c1565b9050602002013581548110610eca57610eca6139c1565b60009182526020822001805491610ee083613990565b91905055508080610ef090613990565b915050610e88565b50505060008181526009602090815260408083203380855260089091018352818420805460ff19166001908117909155948452600c8352908320805494850181558352912090910180546001600160a01b0319169091179055565b6001600160a01b031660009081526020819052604090205490565b60008181526009602081815260409283902060058101549201805484518184028101840190955280855292936060939092830182828015610fce57602002820191906000526020600020905b815481526020019060010190808311610fba575b50505050509050915091565b600034116110245760405162461bcd60e51b81526020600482015260176024820152767a65726f20776569206e6f742061636365707461626c6560481b6044820152606401610904565b565b60606004805461066690613955565b6000818152600d60205260409020600201544281116110665760405162461bcd60e51b8152600401610904906137f6565b6000828152600d6020908152604080832033808552600a909101909252808320546001600160a01b0387168452922054906110a0906112b2565b6110bc5760405162461bcd60e51b815260040161090490613765565b6110c5856112b2565b61110c5760405162461bcd60e51b81526020600482015260186024820152773232b632b3b0ba32b2103a379030903737b736b2b6b132b960411b6044820152606401610904565b6001821261116b5760405162461bcd60e51b815260206004820152602660248201527f796f7520616c726561647920766f7465642f64656c65676174656420796f757260448201526520766f74652160d01b6064820152608401610904565b600181126111bb5760405162461bcd60e51b815260206004820152601f60248201527f64656c656761746564206d656d62657220616c726561647920766f74656421006044820152606401610904565b816111c581613928565b6000868152600d60209081526040808320338452600a01909152808220600190556001600160a01b0389168252812082905590935090505b6000858152600d6020526040902060040154811015611265576000858152600d60209081526040808320848452600f018252808320338452600501909152808220600190556001600160a01b038816825290208390558061125d81613990565b9150506111fd565b505050600091825250600d602090815260408083206001600160a01b0390941683526010909301815291812080546001810182559082529190200180546001600160a01b03191633179055565b6001600160a01b031660009081526007602052604090205460ff1690565b600033816112de8286611e4d565b90508381101561133e5760405162461bcd60e51b815260206004820152602560248201527f45524332303a2064656372656173656420616c6c6f77616e63652062656c6f77604482015264207a65726f60d81b6064820152608401610904565b61134b828686840361253d565b506001949350505050565b3360058061136383610f53565b101561136e57600080fd5b8061137883610f53565b14156113a1576001600160a01b038216600090815260136020526040902054156113a157600080fd5b3467016345785d8a0000146113c85760405162461bcd60e51b81526004016109049061381f565b42851161140c5760405162461bcd60e51b8152602060048201526012602482015271191958591b1a5b99481b9bdd081d985b1a5960721b6044820152606401610904565b82518451146114675760405162461bcd60e51b815260206004820152602160248201527f696e76616c6964207061796d656e7420616d6f756e74732f7363686564756c656044820152607360f81b6064820152608401610904565b8460005b84518110156114fe5781858281518110611487576114876139c1565b6020026020010151116114cf5760405162461bcd60e51b815260206004820152601060248201526f696e76616c6964207363686564756c6560801b6044820152606401610904565b8481815181106114e1576114e16139c1565b6020026020010151915080806114f690613990565b91505061146b565b5061150a3360056128e5565b6115133361286e565b600e546000818152600d602090815260409091208281558951909161153f9160018401918c01906131b6565b5060028101889055865161155c90600383019060208a019061322a565b508551611572906004830190602089019061322a565b506000805b88518110156115b957888181518110611592576115926139c1565b6020026020010151826115a5919061389b565b9150806115b181613990565b915050611577565b50600582018190556007820180546001600160a01b03191633179055600d8201805460ff191690556000600e808401829055600684018290558054916115fe83613990565b90915550506010805490600061161383613990565b919050555050505050505050505050565b600033828061163283610f53565b101561163d57600080fd5b8061164783610f53565b1415611670576001600160a01b0382166000908152601360205260409020541561167057600080fd5b3361167c8187876126dc565b6116853361286e565b61168e8661286e565b50600195945050505050565b6000818152600d60205260408120600e015442825b6000858152600d6020526040902060040154831080156116fe57506000858152600d602052604090206004018054839190859081106116f0576116f06139c1565b906000526020600020015411155b1561177d5761170d8584612a91565b6117265761171a85612acb565b50600019949350505050565b6000858152600d60205260409020600301805484908110611749576117496139c1565b90600052602060002001548161175f919061389b565b90508261176b81613990565b9350506117788584612b4c565b6116af565b6000858152600d602052604090206004015483106117cd5760405162461bcd60e51b815260206004820152600d60248201526c1c1c9bda9958dd08195b991959609a1b6044820152606401610904565b6000858152600d60205260408120600e01849055601280548392906117f3908490613911565b909155509295945050505050565b6000818152600d60205260409020600701546001600160a01b031633146118635760405162461bcd60e51b8152602060048201526016602482015275796f7520617265206e6f7420746865206f776e65722160501b6044820152606401610904565b6000818152600d6020526040902060050154601254611882919061389b565b4710156118d15760405162461bcd60e51b815260206004820152601e60248201527f636f6e74726163742062616c616e6365206973206e6f7420656e6f75676800006044820152606401610904565b600880546000838152600d60205260409020909101546118f290600a6138b3565b1161194d5760405162461bcd60e51b815260206004820152602560248201527f6174206c6561737420312f3130206d75737420617070726f766520612070726f6044820152641c1bdcd85b60da1b6064820152608401610904565b6000818152600d60208190526040909120015460ff16156119ac5760405162461bcd60e51b81526020600482015260196024820152781c1c9bda9958dd081a5cc8185b1c9958591e48199d5b991959603a1b6044820152606401610904565b6000818152600d6020526040902060020154421180156119de57506000818152600d602052604090206009015460ff16155b15611a1e576000818152600d60205260409020600901805460ff19166001179055611a0881612e0d565b60108054906000611a1883613946565b91905055505b6000818152600d6020526040902060020154421115611a4f5760405162461bcd60e51b8152600401610904906137f6565b6000818152600d602081905260408220908101805460ff19166001179055600501546012805491929091611a8490849061389b565b90915550611a93905081612e0d565b60108054906000611aa383613946565b909155505060118054906000611ab883613990565b919050555050565b6000818152600d602081905260409091200154819060ff16611af45760405162461bcd60e51b815260040161090490613794565b6000828152600d60205260409020600201544211611b4c5760405162461bcd60e51b81526020600482015260156024820152741d1a5b59481a185cc81b9bdd0818dbdb59481e595d605a1b6044820152606401610904565b6000828152600d60205260409020600701546001600160a01b03163314611bc15760405162461bcd60e51b8152602060048201526024808201527f796f7520617265206e6f7420746865206f776e6572206f66207468652070726f6044820152631a9958dd60e21b6064820152608401610904565b6000611bcc8361169a565b90506000811215611bef5760405162461bcd60e51b815260040161090490613708565b6000838152600d602052604090206004015481908110611c435760405162461bcd60e51b815260206004820152600f60248201526e70726f6a65637420636c6f7365642160881b6044820152606401610904565b6008546000858152600d60209081526040808320858452600f01909152902060040154611c719060646138b3565b11611cb15760405162461bcd60e51b815260206004820152601060248201526f766f7465206e6f74207061737365642160801b6044820152606401610904565b6000848152600d60205260408120600301805483908110611cd457611cd46139c1565b90600052602060002001549050816001611cee919061389b565b6000868152600d60205260408120600e019190915560128054839290611d15908490613911565b90915550506000858152600d602052604081206006018054839290611d3b90849061389b565b90915550611d4b90508583612b4c565b6000858152600d60208181526040808420868552600f810183529084206001908101805460ff1916821790559389905291905260030154611d8c9190613911565b821415611dd5576000858152600d60208190526040822001805460ff191690556010805491611dba83613946565b909155505060118054906000611dcf83613946565b91905055505b6040513390600090829084156108fc0290859084818181858888f19350505050905080611e445760405162461bcd60e51b815260206004820181905260248201527f7061796d656e74206661696c65642c2074727920616761696e206c617465722e6044820152606401610904565b50505050505050565b6001600160a01b03918216600090815260016020908152604080832093909416825291909152205490565b3360009081526005602052604090205460ff16151560011415611edd5760405162461bcd60e51b815260206004820152601f60248201527f416c72656164792074616b656e207468652066617563657420746f6b656e2e006044820152606401610904565b6006546002541415611f305760405162461bcd60e51b815260206004820152601c60248201527b2a34329032b7321037b3103a3432903a37b5b2b71039bab838363c9760211b6044820152606401610904565b336000818152600560205260409020805460ff19166001179055611f539061309a565b611f5e3360016130be565b60088054906000611f6e83613990565b9190505550565b600033600280611f8483610f53565b1015611f8f57600080fd5b80611f9983610f53565b1415611fc2576001600160a01b03821660009081526013602052604090205415611fc257600080fd5b34668e1bc9bf04000014611fe85760405162461bcd60e51b81526004016109049061381f565b42861161202d5760405162461bcd60e51b8152602060048201526013602482015272646561646c696e65206e6f742076616c69642160681b6044820152606401610904565b848411156120735760405162461bcd60e51b8152602060048201526013602482015272696e76616c696420706172616d65746572732160681b6044820152606401610904565b61207e3360026128e5565b6120873361286e565b600a5460008181526009602090815260409091208281558951929550916120b6916001840191908b01906131b6565b506002810187905560038101869055600481018590556000600582018190556006820180546001600160a01b031916331790555b8681101561211b5760098201805460018101825560009182526020822001558061211381613990565b9150506120ea565b50600a805490600061212c83613990565b9091555050600b805490600061214183613990565b9190505550505050949350505050565b3361215b816112b2565b6121775760405162461bcd60e51b815260040161090490613737565b6000838152600d60205260409020600201544281116121a85760405162461bcd60e51b8152600401610904906137f6565b6000848152600d6020908152604080832033808552600a909101909252909120548590600181126122165760405162461bcd60e51b8152602060048201526018602482015277616c726561647920766f7465642f64656c6567617465642160401b6044820152606401610904565b6000878152600d60209081526040808320338452600a0190915281205461223e906001613911565b6000898152600d60209081526040808320338452600a01909152902060019055905086156122bc576000888152600d602090815260408220600b8101805460018101825590845291832090910180546001600160a01b0319163317905589825260080180548392906122b190849061389b565b909155506122ee9050565b6000888152600d602090815260408220600c01805460018101825590835291200180546001600160a01b031916331790555b33600090815260136020526040812080549161230983613990565b919050555060005b6000898152600d602090815260408083203384526010019091529020548110156123af576000898152600d602090815260408083203384526010019091528120805483908110612363576123636139c1565b60009182526020808320909101546001600160a01b03168083526013909152604082208054919350909161239683613990565b91905055505080806123a790613990565b915050612311565b505050505050505050565b60606000606080600d600086815260200190815260200160002060010180546123e290613955565b80601f016020809104026020016040519081016040528092919081815260200182805461240e90613955565b801561245b5780601f106124305761010080835404028352916020019161245b565b820191906000526020600020905b81548152906001019060200180831161243e57829003601f168201915b5050506000888152600d6020908152604091829020600281015460039091018054845181850281018501909552808552969a5090985091949193509091508301828280156124c857602002820191906000526020600020905b8154815260200190600101908083116124b4575b50505050509150600d600086815260200190815260200160002060040180548060200260200160405190810160405280929190818152602001828054801561252f57602002820191906000526020600020905b81548152602001906001019080831161251b575b505050505090509193509193565b6001600160a01b03831661259f5760405162461bcd60e51b8152602060048201526024808201527f45524332303a20617070726f76652066726f6d20746865207a65726f206164646044820152637265737360e01b6064820152608401610904565b6001600160a01b0382166126005760405162461bcd60e51b815260206004820152602260248201527f45524332303a20617070726f766520746f20746865207a65726f206164647265604482015261737360f01b6064820152608401610904565b6001600160a01b0383811660008181526001602090815260408083209487168084529482529182902085905590518481527f8c5be1e5ebec7d5bd14f71427d1e84f3dd0314c0f7b2291e5b200ac8c7c3b92591015b60405180910390a3505050565b600061266e8484611e4d565b905060001981146126d657818110156126c95760405162461bcd60e51b815260206004820152601d60248201527f45524332303a20696e73756666696369656e7420616c6c6f77616e63650000006044820152606401610904565b6126d6848484840361253d565b50505050565b6001600160a01b0383166127405760405162461bcd60e51b815260206004820152602560248201527f45524332303a207472616e736665722066726f6d20746865207a65726f206164604482015264647265737360d81b6064820152608401610904565b6001600160a01b0382166127a25760405162461bcd60e51b815260206004820152602360248201527f45524332303a207472616e7366657220746f20746865207a65726f206164647260448201526265737360e81b6064820152608401610904565b6001600160a01b0383166000908152602081905260409020548181101561281a5760405162461bcd60e51b815260206004820152602660248201527f45524332303a207472616e7366657220616d6f756e7420657863656564732062604482015265616c616e636560d01b6064820152608401610904565b6001600160a01b03848116600081815260208181526040808320878703905593871680835291849020805487019055925185815290926000805160206139ee833981519152910160405180910390a36126d6565b61287781610f53565b6128a9576001600160a01b0381166000908152600760205260408120805460ff191690556008805491611ab883613946565b60006128b482610f53565b1180156128c757506128c5816112b2565b155b15610917576128d58161309a565b60088054906000611ab883613990565b6001600160a01b0382166129455760405162461bcd60e51b815260206004820152602160248201527f45524332303a206275726e2066726f6d20746865207a65726f206164647265736044820152607360f81b6064820152608401610904565b6001600160a01b038216600090815260208190526040902054818110156129b95760405162461bcd60e51b815260206004820152602260248201527f45524332303a206275726e20616d6f756e7420657863656564732062616c616e604482015261636560f01b6064820152608401610904565b6001600160a01b0383166000818152602081815260408083208686039055600280548790039055518581529192916000805160206139ee8339815191529101612655565b505050565b6000805b600083815260096020526040902060050154811015612a8b576000838152600c60205260408120805483908110612a3f57612a3f6139c1565b60009182526020808320909101546001600160a01b031680835260139091526040822080549193509091612a7283613946565b91905055508180612a8290613990565b92505050612a06565b92915050565b6008546000838152600d60209081526040808320858452600f01909152812060040154909190612ac29060646138b3565b10159392505050565b6000818152600d602052604081206006810154600590910154612aee9190613911565b90508060126000828254612b029190613911565b90915550506000828152600d60208190526040822001805460ff191690556010805491612b2e83613946565b909155505060118054906000612b4383613946565b91905055505050565b60005b6000838152600d60209081526040808320858452600f01909152902060020154811015612cac576000838152600d60209081526040808320858452600f019091528120600201805483908110612ba757612ba76139c1565b60009182526020822001546001600160a01b031691505b6000858152600d602090815260408083206001600160a01b0386168452601001909152902054811015612c6e576000858152600d602090815260408083206001600160a01b03861684526010019091528120805483908110612c2257612c226139c1565b60009182526020808320909101546001600160a01b031680835260139091526040822080549193509091612c5583613946565b9190505550508080612c6690613990565b915050612bbe565b506001600160a01b0381166000908152601360205260408120805491612c9383613946565b91905055508180612ca390613990565b92505050612b4f565b5060005b6000838152600d60209081526040808320858452600f019091529020600301548110156129fd576000838152600d60209081526040808320858452600f019091528120600301805483908110612d0857612d086139c1565b60009182526020822001546001600160a01b031691505b6000858152600d602090815260408083206001600160a01b0386168452601001909152902054811015612dcf576000858152600d602090815260408083206001600160a01b03861684526010019091528120805483908110612d8357612d836139c1565b60009182526020808320909101546001600160a01b031680835260139091526040822080549193509091612db683613946565b9190505550508080612dc790613990565b915050612d1f565b506001600160a01b0381166000908152601360205260408120805491612df483613946565b91905055508180612e0490613990565b92505050612cb0565b60005b6000828152600d60205260409020600b0154811015612f51576000828152600d60205260408120600b01805483908110612e4c57612e4c6139c1565b60009182526020822001546001600160a01b031691505b6000848152600d602090815260408083206001600160a01b0386168452601001909152902054811015612f13576000848152600d602090815260408083206001600160a01b03861684526010019091528120805483908110612ec757612ec76139c1565b60009182526020808320909101546001600160a01b031680835260139091526040822080549193509091612efa83613946565b9190505550508080612f0b90613990565b915050612e63565b506001600160a01b0381166000908152601360205260408120805491612f3883613946565b91905055508180612f4890613990565b92505050612e10565b5060005b6000828152600d60205260409020600c0154811015613096576000828152600d60205260408120600c01805483908110612f9157612f916139c1565b60009182526020822001546001600160a01b031691505b6000848152600d602090815260408083206001600160a01b0386168452601001909152902054811015613058576000848152600d602090815260408083206001600160a01b0386168452601001909152812080548390811061300c5761300c6139c1565b60009182526020808320909101546001600160a01b03168083526013909152604082208054919350909161303f83613946565b919050555050808061305090613990565b915050612fa8565b506001600160a01b038116600090815260136020526040812080549161307d83613946565b9190505550818061308d90613990565b92505050612f55565b5050565b6001600160a01b03166000908152600760205260409020805460ff19166001179055565b6001600160a01b0382166131145760405162461bcd60e51b815260206004820152601f60248201527f45524332303a206d696e7420746f20746865207a65726f2061646472657373006044820152606401610904565b8060026000828254613126919061389b565b90915550506001600160a01b038216600081815260208181526040808320805486019055518481526000805160206139ee833981519152910160405180910390a35050565b8280548282559060005260206000209081019282156131a6579160200282015b828111156131a657823582559160200191906001019061318b565b506131b2929150613264565b5090565b8280546131c290613955565b90600052602060002090601f0160209004810192826131e457600085556131a6565b82601f106131fd57805160ff19168380011785556131a6565b828001600101855582156131a6579182015b828111156131a657825182559160200191906001019061320f565b8280548282559060005260206000209081019282156131a657916020028201828111156131a657825182559160200191906001019061320f565b5b808211156131b25760008155600101613265565b80356001600160a01b038116811461329057600080fd5b919050565b600082601f8301126132a657600080fd5b813560206001600160401b038211156132c1576132c16139d7565b8160051b6132d082820161386b565b8381528281019086840183880185018910156132eb57600080fd5b600093505b8584101561330e5780358352600193909301929184019184016132f0565b50979650505050505050565b600082601f83011261332b57600080fd5b81356001600160401b03811115613344576133446139d7565b613357601f8201601f191660200161386b565b81815284602083860101111561336c57600080fd5b816020850160208301376000918101602001919091529392505050565b60006020828403121561339b57600080fd5b6133a482613279565b9392505050565b600080604083850312156133be57600080fd5b6133c783613279565b91506133d560208401613279565b90509250929050565b6000806000606084860312156133f357600080fd5b6133fc84613279565b925061340a60208501613279565b9150604084013590509250925092565b6000806040838503121561342d57600080fd5b61343683613279565b946020939093013593505050565b6000806000806080858703121561345a57600080fd5b84356001600160401b038082111561347157600080fd5b61347d8883890161331a565b955060208701359450604087013591508082111561349a57600080fd5b6134a688838901613295565b935060608701359150808211156134bc57600080fd5b506134c987828801613295565b91505092959194509250565b600080600080608085870312156134eb57600080fd5b84356001600160401b0381111561350157600080fd5b61350d8782880161331a565b97602087013597506040870135966060013595509350505050565b60006020828403121561353a57600080fd5b5035919050565b60008060006040848603121561355657600080fd5b8335925060208401356001600160401b038082111561357457600080fd5b818601915086601f83011261358857600080fd5b81358181111561359757600080fd5b8760208260051b85010111156135ac57600080fd5b6020830194508093505050509250925092565b600080604083850312156135d257600080fd5b82359150602083013580151581146135e957600080fd5b809150509250929050565b600081518084526020808501945080840160005b8381101561362457815187529582019590820190600101613608565b509495945050505050565b6000815180845260005b8181101561365557602081850181015186830182015201613639565b81811115613667576000602083870101525b50601f01601f19169290920160200192915050565b6020815260006133a4602083018461362f565b6080815260006136a2608083018761362f565b85602084015282810360408401526136ba81866135f4565b905082810360608401526136ce81856135f4565b979650505050505050565b6080815260006136ec608083018761362f565b6020830195909552506040810192909252606090910152919050565b6020808252601590820152741c1c9bda9958dd081a5cc81b9bdd08199d5b991959605a1b604082015260600190565b6020808252601490820152731b595b58995c9cda1a5c081b9bdd081d985b1a5960621b604082015260600190565b602080825260159082015274796f7520617265206e6f742061206d656d6265722160581b604082015260600190565b60208082526016908201527570726f6a656374206973206e6f742066756e6465642160501b604082015260600190565b602080825260189082015277696e76616c69642063686f6963652064657465637465642160401b604082015260600190565b6020808252600f908201526e191958591b1a5b99481c185cdcd959608a1b604082015260600190565b6020808252601190820152706e6f7420656e6f7567682065746865722160781b604082015260600190565b82815260406020820152600061386360408301846135f4565b949350505050565b604051601f8201601f191681016001600160401b0381118282101715613893576138936139d7565b604052919050565b600082198211156138ae576138ae6139ab565b500190565b60008160001904831182151516156138cd576138cd6139ab565b500290565b60008083128015600160ff1b8501841216156138f0576138f06139ab565b6001600160ff1b038401831381161561390b5761390b6139ab565b50500390565b600082821015613923576139236139ab565b500390565b6000600160ff1b82141561393e5761393e6139ab565b506000190190565b60008161393e5761393e6139ab565b600181811c9082168061396957607f821691505b6020821081141561398a57634e487b7160e01b600052602260045260246000fd5b50919050565b60006000198214156139a4576139a46139ab565b5060010190565b634e487b7160e01b600052601160045260246000fd5b634e487b7160e01b600052603260045260246000fd5b634e487b7160e01b600052604160045260246000fdfeddf252ad1be2c89b69c2b068fc378daa952ba7f163c4a11628f55a4df523b3efa26469706673582212203de9c556404597711e7045c4799278b6b3358cd01577f69a0cd6660d3562cf2064736f6c63430008070033",
			"opcodes": "PUSH1 0x80 PUSH1 0x40 MSTORE PUSH3 0x989680 PUSH1 0x6 SSTORE PUSH1 0x0 PUSH1 0x8 SSTORE PUSH1 0x0 PUSH1 0xA SSTORE PUSH1 0x0 PUSH1 0xB SSTORE PUSH1 0x0 PUSH1 0xE SSTORE PUSH1 0x0 PUSH1 0x10 SSTORE PUSH1 0x0 PUSH1 0x11 SSTORE CALLVALUE DUP1 ISZERO PUSH3 0x36 JUMPI PUSH1 0x0 DUP1 REVERT JUMPDEST POP PUSH1 0x40 MLOAD DUP1 PUSH1 0x40 ADD PUSH1 0x40 MSTORE DUP1 PUSH1 0x5 DUP2 MSTORE PUSH1 0x20 ADD PUSH5 0x26BCA3B7BB PUSH1 0xD9 SHL DUP2 MSTORE POP PUSH1 0x40 MLOAD DUP1 PUSH1 0x40 ADD PUSH1 0x40 MSTORE DUP1 PUSH1 0x3 DUP2 MSTORE PUSH1 0x20 ADD PUSH3 0x26A3AB PUSH1 0xE9 SHL DUP2 MSTORE POP DUP2 PUSH1 0x3 SWAP1 DUP1 MLOAD SWAP1 PUSH1 0x20 ADD SWAP1 PUSH3 0x89 SWAP3 SWAP2 SWAP1 PUSH3 0x2B8 JUMP JUMPDEST POP DUP1 MLOAD PUSH3 0x9F SWAP1 PUSH1 0x4 SWAP1 PUSH1 0x20 DUP5 ADD SWAP1 PUSH3 0x2B8 JUMP JUMPDEST POP PUSH3 0xAD SWAP2 POP POP PUSH3 0xB3 JUMP JUMPDEST PUSH3 0x3EA JUMP JUMPDEST CALLER PUSH1 0x0 SWAP1 DUP2 MSTORE PUSH1 0x5 PUSH1 0x20 MSTORE PUSH1 0x40 SWAP1 KECCAK256 SLOAD PUSH1 0xFF AND ISZERO ISZERO PUSH1 0x1 EQ ISZERO PUSH3 0x11E JUMPI PUSH1 0x40 MLOAD PUSH3 0x461BCD PUSH1 0xE5 SHL DUP2 MSTORE PUSH1 0x20 PUSH1 0x4 DUP3 ADD MSTORE PUSH1 0x1F PUSH1 0x24 DUP3 ADD MSTORE PUSH32 0x416C72656164792074616B656E207468652066617563657420746F6B656E2E00 PUSH1 0x44 DUP3 ADD MSTORE PUSH1 0x64 ADD JUMPDEST PUSH1 0x40 MLOAD DUP1 SWAP2 SUB SWAP1 REVERT JUMPDEST PUSH1 0x6 SLOAD PUSH3 0x136 PUSH3 0x1EF PUSH1 0x20 SHL PUSH3 0x701 OR PUSH1 0x20 SHR JUMP JUMPDEST EQ ISZERO PUSH3 0x186 JUMPI PUSH1 0x40 MLOAD PUSH3 0x461BCD PUSH1 0xE5 SHL DUP2 MSTORE PUSH1 0x20 PUSH1 0x4 DUP3 ADD MSTORE PUSH1 0x1C PUSH1 0x24 DUP3 ADD MSTORE PUSH32 0x54686520656E64206F662074686520746F6B656E20737570706C792E00000000 PUSH1 0x44 DUP3 ADD MSTORE PUSH1 0x64 ADD PUSH3 0x115 JUMP JUMPDEST CALLER PUSH1 0x0 DUP2 DUP2 MSTORE PUSH1 0x5 PUSH1 0x20 MSTORE PUSH1 0x40 SWAP1 KECCAK256 DUP1 SLOAD PUSH1 0xFF NOT AND PUSH1 0x1 OR SWAP1 SSTORE PUSH3 0x1C9 SWAP1 PUSH1 0x1 PUSH1 0x1 PUSH1 0xA0 SHL SUB AND PUSH1 0x0 SWAP1 DUP2 MSTORE PUSH1 0x7 PUSH1 0x20 MSTORE PUSH1 0x40 SWAP1 KECCAK256 DUP1 SLOAD PUSH1 0xFF NOT AND PUSH1 0x1 OR SWAP1 SSTORE JUMP JUMPDEST PUSH3 0x1D6 CALLER PUSH1 0x1 PUSH3 0x1F5 JUMP JUMPDEST PUSH1 0x8 DUP1 SLOAD SWAP1 PUSH1 0x0 PUSH3 0x1E8 DUP4 PUSH3 0x3B6 JUMP JUMPDEST SWAP2 SWAP1 POP SSTORE POP JUMP JUMPDEST PUSH1 0x2 SLOAD SWAP1 JUMP JUMPDEST PUSH1 0x1 PUSH1 0x1 PUSH1 0xA0 SHL SUB DUP3 AND PUSH3 0x24D JUMPI PUSH1 0x40 MLOAD PUSH3 0x461BCD PUSH1 0xE5 SHL DUP2 MSTORE PUSH1 0x20 PUSH1 0x4 DUP3 ADD MSTORE PUSH1 0x1F PUSH1 0x24 DUP3 ADD MSTORE PUSH32 0x45524332303A206D696E7420746F20746865207A65726F206164647265737300 PUSH1 0x44 DUP3 ADD MSTORE PUSH1 0x64 ADD PUSH3 0x115 JUMP JUMPDEST DUP1 PUSH1 0x2 PUSH1 0x0 DUP3 DUP3 SLOAD PUSH3 0x261 SWAP2 SWAP1 PUSH3 0x35E JUMP JUMPDEST SWAP1 SWAP2 SSTORE POP POP PUSH1 0x1 PUSH1 0x1 PUSH1 0xA0 SHL SUB DUP3 AND PUSH1 0x0 DUP2 DUP2 MSTORE PUSH1 0x20 DUP2 DUP2 MSTORE PUSH1 0x40 DUP1 DUP4 KECCAK256 DUP1 SLOAD DUP7 ADD SWAP1 SSTORE MLOAD DUP5 DUP2 MSTORE PUSH32 0xDDF252AD1BE2C89B69C2B068FC378DAA952BA7F163C4A11628F55A4DF523B3EF SWAP2 ADD PUSH1 0x40 MLOAD DUP1 SWAP2 SUB SWAP1 LOG3 POP POP JUMP JUMPDEST DUP3 DUP1 SLOAD PUSH3 0x2C6 SWAP1 PUSH3 0x379 JUMP JUMPDEST SWAP1 PUSH1 0x0 MSTORE PUSH1 0x20 PUSH1 0x0 KECCAK256 SWAP1 PUSH1 0x1F ADD PUSH1 0x20 SWAP1 DIV DUP2 ADD SWAP3 DUP3 PUSH3 0x2EA JUMPI PUSH1 0x0 DUP6 SSTORE PUSH3 0x335 JUMP JUMPDEST DUP3 PUSH1 0x1F LT PUSH3 0x305 JUMPI DUP1 MLOAD PUSH1 0xFF NOT AND DUP4 DUP1 ADD OR DUP6 SSTORE PUSH3 0x335 JUMP JUMPDEST DUP3 DUP1 ADD PUSH1 0x1 ADD DUP6 SSTORE DUP3 ISZERO PUSH3 0x335 JUMPI SWAP2 DUP3 ADD JUMPDEST DUP3 DUP2 GT ISZERO PUSH3 0x335 JUMPI DUP3 MLOAD DUP3 SSTORE SWAP2 PUSH1 0x20 ADD SWAP2 SWAP1 PUSH1 0x1 ADD SWAP1 PUSH3 0x318 JUMP JUMPDEST POP PUSH3 0x343 SWAP3 SWAP2 POP PUSH3 0x347 JUMP JUMPDEST POP SWAP1 JUMP JUMPDEST JUMPDEST DUP1 DUP3 GT ISZERO PUSH3 0x343 JUMPI PUSH1 0x0 DUP2 SSTORE PUSH1 0x1 ADD PUSH3 0x348 JUMP JUMPDEST PUSH1 0x0 DUP3 NOT DUP3 GT ISZERO PUSH3 0x374 JUMPI PUSH3 0x374 PUSH3 0x3D4 JUMP JUMPDEST POP ADD SWAP1 JUMP JUMPDEST PUSH1 0x1 DUP2 DUP2 SHR SWAP1 DUP3 AND DUP1 PUSH3 0x38E JUMPI PUSH1 0x7F DUP3 AND SWAP2 POP JUMPDEST PUSH1 0x20 DUP3 LT DUP2 EQ ISZERO PUSH3 0x3B0 JUMPI PUSH4 0x4E487B71 PUSH1 0xE0 SHL PUSH1 0x0 MSTORE PUSH1 0x22 PUSH1 0x4 MSTORE PUSH1 0x24 PUSH1 0x0 REVERT JUMPDEST POP SWAP2 SWAP1 POP JUMP JUMPDEST PUSH1 0x0 PUSH1 0x0 NOT DUP3 EQ ISZERO PUSH3 0x3CD JUMPI PUSH3 0x3CD PUSH3 0x3D4 JUMP JUMPDEST POP PUSH1 0x1 ADD SWAP1 JUMP JUMPDEST PUSH4 0x4E487B71 PUSH1 0xE0 SHL PUSH1 0x0 MSTORE PUSH1 0x11 PUSH1 0x4 MSTORE PUSH1 0x24 PUSH1 0x0 REVERT JUMPDEST PUSH2 0x3A43 DUP1 PUSH3 0x3FA PUSH1 0x0 CODECOPY PUSH1 0x0 RETURN INVALID PUSH1 0x80 PUSH1 0x40 MSTORE PUSH1 0x4 CALLDATASIZE LT PUSH2 0x19F JUMPI PUSH1 0x0 CALLDATALOAD PUSH1 0xE0 SHR DUP1 PUSH4 0x6FDDE03 EQ PUSH2 0x1A4 JUMPI DUP1 PUSH4 0x95EA7B3 EQ PUSH2 0x1CF JUMPI DUP1 PUSH4 0x18160DDD EQ PUSH2 0x1FF JUMPI DUP1 PUSH4 0x1D2ACDFD EQ PUSH2 0x21E JUMPI DUP1 PUSH4 0x23B872DD EQ PUSH2 0x23E JUMPI DUP1 PUSH4 0x23FD498B EQ PUSH2 0x25E JUMPI DUP1 PUSH4 0x2E8F3413 EQ PUSH2 0x273 JUMPI DUP1 PUSH4 0x313CE567 EQ PUSH2 0x2A3 JUMPI DUP1 PUSH4 0x39509351 EQ PUSH2 0x2BF JUMPI DUP1 PUSH4 0x39C94D2D EQ PUSH2 0x2DF JUMPI DUP1 PUSH4 0x42CAAEB4 EQ PUSH2 0x301 JUMPI DUP1 PUSH4 0x5D801B37 EQ PUSH2 0x321 JUMPI DUP1 PUSH4 0x702798DF EQ PUSH2 0x336 JUMPI DUP1 PUSH4 0x70A08231 EQ PUSH2 0x356 JUMPI DUP1 PUSH4 0x70A56C73 EQ PUSH2 0x376 JUMPI DUP1 PUSH4 0x7C405164 EQ PUSH2 0x3A4 JUMPI DUP1 PUSH4 0x863451DD EQ PUSH2 0x3D8 JUMPI DUP1 PUSH4 0x875B5076 EQ PUSH2 0x3E0 JUMPI DUP1 PUSH4 0x92256AEC EQ PUSH2 0x431 JUMPI DUP1 PUSH4 0x95D89B41 EQ PUSH2 0x46A JUMPI DUP1 PUSH4 0x9983FA58 EQ PUSH2 0x47F JUMPI DUP1 PUSH4 0xA1669B32 EQ PUSH2 0x4AF JUMPI DUP1 PUSH4 0xA230C524 EQ PUSH2 0x4CF JUMPI DUP1 PUSH4 0xA457C2D7 EQ PUSH2 0x4EF JUMPI DUP1 PUSH4 0xA5E898E1 EQ PUSH2 0x50F JUMPI DUP1 PUSH4 0xA9059CBB EQ PUSH2 0x522 JUMPI DUP1 PUSH4 0xBCF2CB0F EQ PUSH2 0x542 JUMPI DUP1 PUSH4 0xBD275764 EQ PUSH2 0x562 JUMPI DUP1 PUSH4 0xBD6C733C EQ PUSH2 0x582 JUMPI DUP1 PUSH4 0xBF50556D EQ PUSH2 0x595 JUMPI DUP1 PUSH4 0xD5ABEB01 EQ PUSH2 0x5AA JUMPI DUP1 PUSH4 0xDD62ED3E EQ PUSH2 0x5BF JUMPI DUP1 PUSH4 0xDE5F72FD EQ PUSH2 0x5DF JUMPI DUP1 PUSH4 0xEF269AE3 EQ PUSH2 0x5F4 JUMPI DUP1 PUSH4 0xF22449BA EQ PUSH2 0x607 JUMPI DUP1 PUSH4 0xFABF5968 EQ PUSH2 0x627 JUMPI JUMPDEST PUSH1 0x0 DUP1 REVERT JUMPDEST CALLVALUE DUP1 ISZERO PUSH2 0x1B0 JUMPI PUSH1 0x0 DUP1 REVERT JUMPDEST POP PUSH2 0x1B9 PUSH2 0x657 JUMP JUMPDEST PUSH1 0x40 MLOAD PUSH2 0x1C6 SWAP2 SWAP1 PUSH2 0x367C JUMP JUMPDEST PUSH1 0x40 MLOAD DUP1 SWAP2 SUB SWAP1 RETURN JUMPDEST CALLVALUE DUP1 ISZERO PUSH2 0x1DB JUMPI PUSH1 0x0 DUP1 REVERT JUMPDEST POP PUSH2 0x1EF PUSH2 0x1EA CALLDATASIZE PUSH1 0x4 PUSH2 0x341A JUMP JUMPDEST PUSH2 0x6E9 JUMP JUMPDEST PUSH1 0x40 MLOAD SWAP1 ISZERO ISZERO DUP2 MSTORE PUSH1 0x20 ADD PUSH2 0x1C6 JUMP JUMPDEST CALLVALUE DUP1 ISZERO PUSH2 0x20B JUMPI PUSH1 0x0 DUP1 REVERT JUMPDEST POP PUSH1 0x2 SLOAD JUMPDEST PUSH1 0x40 MLOAD SWAP1 DUP2 MSTORE PUSH1 0x20 ADD PUSH2 0x1C6 JUMP JUMPDEST CALLVALUE DUP1 ISZERO PUSH2 0x22A JUMPI PUSH1 0x0 DUP1 REVERT JUMPDEST POP PUSH2 0x210 PUSH2 0x239 CALLDATASIZE PUSH1 0x4 PUSH2 0x3528 JUMP JUMPDEST PUSH2 0x707 JUMP JUMPDEST CALLVALUE DUP1 ISZERO PUSH2 0x24A JUMPI PUSH1 0x0 DUP1 REVERT JUMPDEST POP PUSH2 0x1EF PUSH2 0x259 CALLDATASIZE PUSH1 0x4 PUSH2 0x33DE JUMP JUMPDEST PUSH2 0x744 JUMP JUMPDEST CALLVALUE DUP1 ISZERO PUSH2 0x26A JUMPI PUSH1 0x0 DUP1 REVERT JUMPDEST POP PUSH1 0x10 SLOAD PUSH2 0x210 JUMP JUMPDEST CALLVALUE DUP1 ISZERO PUSH2 0x27F JUMPI PUSH1 0x0 DUP1 REVERT JUMPDEST POP PUSH2 0x293 PUSH2 0x28E CALLDATASIZE PUSH1 0x4 PUSH2 0x3528 JUMP JUMPDEST PUSH2 0x7C6 JUMP JUMPDEST PUSH1 0x40 MLOAD PUSH2 0x1C6 SWAP5 SWAP4 SWAP3 SWAP2 SWAP1 PUSH2 0x36D9 JUMP JUMPDEST CALLVALUE DUP1 ISZERO PUSH2 0x2AF JUMPI PUSH1 0x0 DUP1 REVERT JUMPDEST POP PUSH1 0x40 MLOAD PUSH1 0x12 DUP2 MSTORE PUSH1 0x20 ADD PUSH2 0x1C6 JUMP JUMPDEST CALLVALUE DUP1 ISZERO PUSH2 0x2CB JUMPI PUSH1 0x0 DUP1 REVERT JUMPDEST POP PUSH2 0x1EF PUSH2 0x2DA CALLDATASIZE PUSH1 0x4 PUSH2 0x341A JUMP JUMPDEST PUSH2 0x89A JUMP JUMPDEST CALLVALUE DUP1 ISZERO PUSH2 0x2EB JUMPI PUSH1 0x0 DUP1 REVERT JUMPDEST POP PUSH2 0x2FF PUSH2 0x2FA CALLDATASIZE PUSH1 0x4 PUSH2 0x3528 JUMP JUMPDEST PUSH2 0x8BC JUMP JUMPDEST STOP JUMPDEST CALLVALUE DUP1 ISZERO PUSH2 0x30D JUMPI PUSH1 0x0 DUP1 REVERT JUMPDEST POP PUSH2 0x2FF PUSH2 0x31C CALLDATASIZE PUSH1 0x4 PUSH2 0x35BF JUMP JUMPDEST PUSH2 0x91A JUMP JUMPDEST CALLVALUE DUP1 ISZERO PUSH2 0x32D JUMPI PUSH1 0x0 DUP1 REVERT JUMPDEST POP PUSH1 0xB SLOAD PUSH2 0x210 JUMP JUMPDEST CALLVALUE DUP1 ISZERO PUSH2 0x342 JUMPI PUSH1 0x0 DUP1 REVERT JUMPDEST POP PUSH2 0x2FF PUSH2 0x351 CALLDATASIZE PUSH1 0x4 PUSH2 0x3541 JUMP JUMPDEST PUSH2 0xC01 JUMP JUMPDEST CALLVALUE DUP1 ISZERO PUSH2 0x362 JUMPI PUSH1 0x0 DUP1 REVERT JUMPDEST POP PUSH2 0x210 PUSH2 0x371 CALLDATASIZE PUSH1 0x4 PUSH2 0x3389 JUMP JUMPDEST PUSH2 0xF53 JUMP JUMPDEST CALLVALUE DUP1 ISZERO PUSH2 0x382 JUMPI PUSH1 0x0 DUP1 REVERT JUMPDEST POP PUSH2 0x396 PUSH2 0x391 CALLDATASIZE PUSH1 0x4 PUSH2 0x3528 JUMP JUMPDEST PUSH2 0xF6E JUMP JUMPDEST PUSH1 0x40 MLOAD PUSH2 0x1C6 SWAP3 SWAP2 SWAP1 PUSH2 0x384A JUMP JUMPDEST CALLVALUE DUP1 ISZERO PUSH2 0x3B0 JUMPI PUSH1 0x0 DUP1 REVERT JUMPDEST POP PUSH2 0x1EF PUSH2 0x3BF CALLDATASIZE PUSH1 0x4 PUSH2 0x3528 JUMP JUMPDEST PUSH1 0x0 SWAP1 DUP2 MSTORE PUSH1 0xD PUSH1 0x20 DUP2 SWAP1 MSTORE PUSH1 0x40 SWAP1 SWAP2 KECCAK256 ADD SLOAD PUSH1 0xFF AND SWAP1 JUMP JUMPDEST PUSH2 0x2FF PUSH2 0xFDA JUMP JUMPDEST CALLVALUE DUP1 ISZERO PUSH2 0x3EC JUMPI PUSH1 0x0 DUP1 REVERT JUMPDEST POP PUSH2 0x419 PUSH2 0x3FB CALLDATASIZE PUSH1 0x4 PUSH2 0x3528 JUMP JUMPDEST PUSH1 0x0 SWAP1 DUP2 MSTORE PUSH1 0x9 PUSH1 0x20 MSTORE PUSH1 0x40 SWAP1 KECCAK256 PUSH1 0x6 ADD SLOAD PUSH1 0x1 PUSH1 0x1 PUSH1 0xA0 SHL SUB AND SWAP1 JUMP JUMPDEST PUSH1 0x40 MLOAD PUSH1 0x1 PUSH1 0x1 PUSH1 0xA0 SHL SUB SWAP1 SWAP2 AND DUP2 MSTORE PUSH1 0x20 ADD PUSH2 0x1C6 JUMP JUMPDEST CALLVALUE DUP1 ISZERO PUSH2 0x43D JUMPI PUSH1 0x0 DUP1 REVERT JUMPDEST POP PUSH2 0x419 PUSH2 0x44C CALLDATASIZE PUSH1 0x4 PUSH2 0x3528 JUMP JUMPDEST PUSH1 0x0 SWAP1 DUP2 MSTORE PUSH1 0xD PUSH1 0x20 MSTORE PUSH1 0x40 SWAP1 KECCAK256 PUSH1 0x7 ADD SLOAD PUSH1 0x1 PUSH1 0x1 PUSH1 0xA0 SHL SUB AND SWAP1 JUMP JUMPDEST CALLVALUE DUP1 ISZERO PUSH2 0x476 JUMPI PUSH1 0x0 DUP1 REVERT JUMPDEST POP PUSH2 0x1B9 PUSH2 0x1026 JUMP JUMPDEST CALLVALUE DUP1 ISZERO PUSH2 0x48B JUMPI PUSH1 0x0 DUP1 REVERT JUMPDEST POP PUSH2 0x210 PUSH2 0x49A CALLDATASIZE PUSH1 0x4 PUSH2 0x3528 JUMP JUMPDEST PUSH1 0x0 SWAP1 DUP2 MSTORE PUSH1 0xD PUSH1 0x20 MSTORE PUSH1 0x40 SWAP1 KECCAK256 PUSH1 0x6 ADD SLOAD SWAP1 JUMP JUMPDEST CALLVALUE DUP1 ISZERO PUSH2 0x4BB JUMPI PUSH1 0x0 DUP1 REVERT JUMPDEST POP PUSH2 0x2FF PUSH2 0x4CA CALLDATASIZE PUSH1 0x4 PUSH2 0x341A JUMP JUMPDEST PUSH2 0x1035 JUMP JUMPDEST CALLVALUE DUP1 ISZERO PUSH2 0x4DB JUMPI PUSH1 0x0 DUP1 REVERT JUMPDEST POP PUSH2 0x1EF PUSH2 0x4EA CALLDATASIZE PUSH1 0x4 PUSH2 0x3389 JUMP JUMPDEST PUSH2 0x12B2 JUMP JUMPDEST CALLVALUE DUP1 ISZERO PUSH2 0x4FB JUMPI PUSH1 0x0 DUP1 REVERT JUMPDEST POP PUSH2 0x1EF PUSH2 0x50A CALLDATASIZE PUSH1 0x4 PUSH2 0x341A JUMP JUMPDEST PUSH2 0x12D0 JUMP JUMPDEST PUSH2 0x2FF PUSH2 0x51D CALLDATASIZE PUSH1 0x4 PUSH2 0x3444 JUMP JUMPDEST PUSH2 0x1356 JUMP JUMPDEST CALLVALUE DUP1 ISZERO PUSH2 0x52E JUMPI PUSH1 0x0 DUP1 REVERT JUMPDEST POP PUSH2 0x1EF PUSH2 0x53D CALLDATASIZE PUSH1 0x4 PUSH2 0x341A JUMP JUMPDEST PUSH2 0x1624 JUMP JUMPDEST CALLVALUE DUP1 ISZERO PUSH2 0x54E JUMPI PUSH1 0x0 DUP1 REVERT JUMPDEST POP PUSH2 0x210 PUSH2 0x55D CALLDATASIZE PUSH1 0x4 PUSH2 0x3528 JUMP JUMPDEST PUSH2 0x169A JUMP JUMPDEST CALLVALUE DUP1 ISZERO PUSH2 0x56E JUMPI PUSH1 0x0 DUP1 REVERT JUMPDEST POP PUSH2 0x2FF PUSH2 0x57D CALLDATASIZE PUSH1 0x4 PUSH2 0x3528 JUMP JUMPDEST PUSH2 0x1801 JUMP JUMPDEST PUSH2 0x2FF PUSH2 0x590 CALLDATASIZE PUSH1 0x4 PUSH2 0x3528 JUMP JUMPDEST PUSH2 0x1AC0 JUMP JUMPDEST CALLVALUE DUP1 ISZERO PUSH2 0x5A1 JUMPI PUSH1 0x0 DUP1 REVERT JUMPDEST POP PUSH1 0x11 SLOAD PUSH2 0x210 JUMP JUMPDEST CALLVALUE DUP1 ISZERO PUSH2 0x5B6 JUMPI PUSH1 0x0 DUP1 REVERT JUMPDEST POP PUSH1 0x6 SLOAD PUSH2 0x210 JUMP JUMPDEST CALLVALUE DUP1 ISZERO PUSH2 0x5CB JUMPI PUSH1 0x0 DUP1 REVERT JUMPDEST POP PUSH2 0x210 PUSH2 0x5DA CALLDATASIZE PUSH1 0x4 PUSH2 0x33AB JUMP JUMPDEST PUSH2 0x1E4D JUMP JUMPDEST CALLVALUE DUP1 ISZERO PUSH2 0x5EB JUMPI PUSH1 0x0 DUP1 REVERT JUMPDEST POP PUSH2 0x2FF PUSH2 0x1E78 JUMP JUMPDEST PUSH2 0x210 PUSH2 0x602 CALLDATASIZE PUSH1 0x4 PUSH2 0x34D5 JUMP JUMPDEST PUSH2 0x1F75 JUMP JUMPDEST CALLVALUE DUP1 ISZERO PUSH2 0x613 JUMPI PUSH1 0x0 DUP1 REVERT JUMPDEST POP PUSH2 0x2FF PUSH2 0x622 CALLDATASIZE PUSH1 0x4 PUSH2 0x35BF JUMP JUMPDEST PUSH2 0x2151 JUMP JUMPDEST CALLVALUE DUP1 ISZERO PUSH2 0x633 JUMPI PUSH1 0x0 DUP1 REVERT JUMPDEST POP PUSH2 0x647 PUSH2 0x642 CALLDATASIZE PUSH1 0x4 PUSH2 0x3528 JUMP JUMPDEST PUSH2 0x23BA JUMP JUMPDEST PUSH1 0x40 MLOAD PUSH2 0x1C6 SWAP5 SWAP4 SWAP3 SWAP2 SWAP1 PUSH2 0x368F JUMP JUMPDEST PUSH1 0x60 PUSH1 0x3 DUP1 SLOAD PUSH2 0x666 SWAP1 PUSH2 0x3955 JUMP JUMPDEST DUP1 PUSH1 0x1F ADD PUSH1 0x20 DUP1 SWAP2 DIV MUL PUSH1 0x20 ADD PUSH1 0x40 MLOAD SWAP1 DUP2 ADD PUSH1 0x40 MSTORE DUP1 SWAP3 SWAP2 SWAP1 DUP2 DUP2 MSTORE PUSH1 0x20 ADD DUP3 DUP1 SLOAD PUSH2 0x692 SWAP1 PUSH2 0x3955 JUMP JUMPDEST DUP1 ISZERO PUSH2 0x6DF JUMPI DUP1 PUSH1 0x1F LT PUSH2 0x6B4 JUMPI PUSH2 0x100 DUP1 DUP4 SLOAD DIV MUL DUP4 MSTORE SWAP2 PUSH1 0x20 ADD SWAP2 PUSH2 0x6DF JUMP JUMPDEST DUP3 ADD SWAP2 SWAP1 PUSH1 0x0 MSTORE PUSH1 0x20 PUSH1 0x0 KECCAK256 SWAP1 JUMPDEST DUP2 SLOAD DUP2 MSTORE SWAP1 PUSH1 0x1 ADD SWAP1 PUSH1 0x20 ADD DUP1 DUP4 GT PUSH2 0x6C2 JUMPI DUP3 SWAP1 SUB PUSH1 0x1F AND DUP3 ADD SWAP2 JUMPDEST POP POP POP POP POP SWAP1 POP SWAP1 JUMP JUMPDEST PUSH1 0x0 CALLER PUSH2 0x6F7 DUP2 DUP6 DUP6 PUSH2 0x253D JUMP JUMPDEST POP PUSH1 0x1 SWAP4 SWAP3 POP POP POP JUMP JUMPDEST PUSH1 0x2 SLOAD SWAP1 JUMP JUMPDEST PUSH1 0x0 DUP2 DUP2 MSTORE PUSH1 0xD PUSH1 0x20 MSTORE PUSH1 0x40 DUP2 KECCAK256 PUSH1 0xE DUP2 ADD SLOAD PUSH1 0x4 SWAP1 SWAP2 ADD DUP1 SLOAD SWAP1 SWAP2 SWAP1 DUP2 LT PUSH2 0x732 JUMPI PUSH2 0x732 PUSH2 0x39C1 JUMP JUMPDEST SWAP1 PUSH1 0x0 MSTORE PUSH1 0x20 PUSH1 0x0 KECCAK256 ADD SLOAD SWAP1 POP SWAP2 SWAP1 POP JUMP JUMPDEST PUSH1 0x0 DUP4 DUP3 DUP1 PUSH2 0x752 DUP4 PUSH2 0xF53 JUMP JUMPDEST LT ISZERO PUSH2 0x75D JUMPI PUSH1 0x0 DUP1 REVERT JUMPDEST DUP1 PUSH2 0x767 DUP4 PUSH2 0xF53 JUMP JUMPDEST EQ ISZERO PUSH2 0x790 JUMPI PUSH1 0x1 PUSH1 0x1 PUSH1 0xA0 SHL SUB DUP3 AND PUSH1 0x0 SWAP1 DUP2 MSTORE PUSH1 0x13 PUSH1 0x20 MSTORE PUSH1 0x40 SWAP1 KECCAK256 SLOAD ISZERO PUSH2 0x790 JUMPI PUSH1 0x0 DUP1 REVERT JUMPDEST CALLER PUSH2 0x79C DUP8 DUP3 DUP8 PUSH2 0x2662 JUMP JUMPDEST PUSH2 0x7A7 DUP8 DUP8 DUP8 PUSH2 0x26DC JUMP JUMPDEST PUSH2 0x7B0 DUP8 PUSH2 0x286E JUMP JUMPDEST PUSH2 0x7B9 DUP7 PUSH2 0x286E JUMP JUMPDEST POP PUSH1 0x1 SWAP7 SWAP6 POP POP POP POP POP POP JUMP JUMPDEST PUSH1 0x60 PUSH1 0x0 DUP1 PUSH1 0x0 PUSH1 0x9 PUSH1 0x0 DUP7 DUP2 MSTORE PUSH1 0x20 ADD SWAP1 DUP2 MSTORE PUSH1 0x20 ADD PUSH1 0x0 KECCAK256 PUSH1 0x1 ADD DUP1 SLOAD PUSH2 0x7EE SWAP1 PUSH2 0x3955 JUMP JUMPDEST DUP1 PUSH1 0x1F ADD PUSH1 0x20 DUP1 SWAP2 DIV MUL PUSH1 0x20 ADD PUSH1 0x40 MLOAD SWAP1 DUP2 ADD PUSH1 0x40 MSTORE DUP1 SWAP3 SWAP2 SWAP1 DUP2 DUP2 MSTORE PUSH1 0x20 ADD DUP3 DUP1 SLOAD PUSH2 0x81A SWAP1 PUSH2 0x3955 JUMP JUMPDEST DUP1 ISZERO PUSH2 0x867 JUMPI DUP1 PUSH1 0x1F LT PUSH2 0x83C JUMPI PUSH2 0x100 DUP1 DUP4 SLOAD DIV MUL DUP4 MSTORE SWAP2 PUSH1 0x20 ADD SWAP2 PUSH2 0x867 JUMP JUMPDEST DUP3 ADD SWAP2 SWAP1 PUSH1 0x0 MSTORE PUSH1 0x20 PUSH1 0x0 KECCAK256 SWAP1 JUMPDEST DUP2 SLOAD DUP2 MSTORE SWAP1 PUSH1 0x1 ADD SWAP1 PUSH1 0x20 ADD DUP1 DUP4 GT PUSH2 0x84A JUMPI DUP3 SWAP1 SUB PUSH1 0x1F AND DUP3 ADD SWAP2 JUMPDEST POP POP POP PUSH1 0x0 SWAP8 DUP9 MSTORE POP POP PUSH1 0x9 PUSH1 0x20 MSTORE PUSH1 0x40 SWAP1 SWAP6 KECCAK256 PUSH1 0x2 DUP2 ADD SLOAD PUSH1 0x3 DUP3 ADD SLOAD PUSH1 0x4 SWAP1 SWAP3 ADD SLOAD SWAP7 SWAP8 SWAP1 SWAP7 SWAP2 SWAP6 POP SWAP1 SWAP4 POP SWAP2 POP POP JUMP JUMPDEST PUSH1 0x0 CALLER PUSH2 0x6F7 DUP2 DUP6 DUP6 PUSH2 0x8AD DUP4 DUP4 PUSH2 0x1E4D JUMP JUMPDEST PUSH2 0x8B7 SWAP2 SWAP1 PUSH2 0x389B JUMP JUMPDEST PUSH2 0x253D JUMP JUMPDEST DUP1 PUSH2 0x8C6 CALLER PUSH2 0xF53 JUMP JUMPDEST LT ISZERO PUSH2 0x90D JUMPI PUSH1 0x40 MLOAD PUSH3 0x461BCD PUSH1 0xE5 SHL DUP2 MSTORE PUSH1 0x20 PUSH1 0x4 DUP3 ADD MSTORE PUSH1 0x11 PUSH1 0x24 DUP3 ADD MSTORE PUSH17 0x6E6F7420656E6F75676820746F6B656E73 PUSH1 0x78 SHL PUSH1 0x44 DUP3 ADD MSTORE PUSH1 0x64 ADD JUMPDEST PUSH1 0x40 MLOAD DUP1 SWAP2 SUB SWAP1 REVERT JUMPDEST PUSH2 0x917 CALLER DUP3 PUSH2 0x28E5 JUMP JUMPDEST POP JUMP JUMPDEST CALLER PUSH2 0x924 DUP2 PUSH2 0x12B2 JUMP JUMPDEST PUSH2 0x940 JUMPI PUSH1 0x40 MLOAD PUSH3 0x461BCD PUSH1 0xE5 SHL DUP2 MSTORE PUSH1 0x4 ADD PUSH2 0x904 SWAP1 PUSH2 0x3737 JUMP JUMPDEST PUSH1 0x0 DUP4 DUP2 MSTORE PUSH1 0xD PUSH1 0x20 DUP2 SWAP1 MSTORE PUSH1 0x40 SWAP1 SWAP2 KECCAK256 ADD SLOAD DUP4 SWAP1 PUSH1 0xFF AND PUSH2 0x974 JUMPI PUSH1 0x40 MLOAD PUSH3 0x461BCD PUSH1 0xE5 SHL DUP2 MSTORE PUSH1 0x4 ADD PUSH2 0x904 SWAP1 PUSH2 0x3794 JUMP JUMPDEST CALLER PUSH1 0x0 PUSH2 0x980 DUP7 PUSH2 0x169A JUMP JUMPDEST SWAP1 POP PUSH1 0x0 DUP2 SLT ISZERO PUSH2 0x9A3 JUMPI PUSH1 0x40 MLOAD PUSH3 0x461BCD PUSH1 0xE5 SHL DUP2 MSTORE PUSH1 0x4 ADD PUSH2 0x904 SWAP1 PUSH2 0x3708 JUMP JUMPDEST PUSH1 0x0 DUP7 DUP2 MSTORE PUSH1 0xD PUSH1 0x20 SWAP1 DUP2 MSTORE PUSH1 0x40 DUP1 DUP4 KECCAK256 DUP5 DUP5 MSTORE PUSH1 0xF ADD DUP3 MSTORE DUP1 DUP4 KECCAK256 PUSH1 0x1 PUSH1 0x1 PUSH1 0xA0 SHL SUB DUP7 AND DUP5 MSTORE PUSH1 0x5 ADD SWAP1 SWAP2 MSTORE SWAP1 KECCAK256 SLOAD DUP2 SWAP1 PUSH1 0x1 SGT PUSH2 0xA19 JUMPI PUSH1 0x40 MLOAD PUSH3 0x461BCD PUSH1 0xE5 SHL DUP2 MSTORE PUSH1 0x20 PUSH1 0x4 DUP3 ADD MSTORE PUSH1 0x11 PUSH1 0x24 DUP3 ADD MSTORE PUSH17 0x796F7520766F74656420616C7265616479 PUSH1 0x78 SHL PUSH1 0x44 DUP3 ADD MSTORE PUSH1 0x64 ADD PUSH2 0x904 JUMP JUMPDEST DUP6 ISZERO PUSH2 0xAC1 JUMPI PUSH1 0x0 DUP8 DUP2 MSTORE PUSH1 0xD PUSH1 0x20 SWAP1 DUP2 MSTORE PUSH1 0x40 DUP1 DUP4 KECCAK256 DUP5 DUP5 MSTORE PUSH1 0xF ADD DUP3 MSTORE DUP1 DUP4 KECCAK256 PUSH1 0x2 DUP2 ADD DUP1 SLOAD PUSH1 0x1 DUP1 DUP3 ADD DUP4 SSTORE SWAP2 DUP7 MSTORE DUP5 DUP7 KECCAK256 ADD DUP1 SLOAD PUSH1 0x1 PUSH1 0x1 PUSH1 0xA0 SHL SUB NOT AND PUSH1 0x1 PUSH1 0x1 PUSH1 0xA0 SHL SUB DUP11 AND SWAP1 DUP2 OR SWAP1 SWAP2 SSTORE DUP6 MSTORE PUSH1 0x5 SWAP1 SWAP2 ADD SWAP1 SWAP3 MSTORE DUP3 KECCAK256 SLOAD PUSH2 0xA81 SWAP2 PUSH2 0x38D2 JUMP JUMPDEST PUSH1 0x0 DUP10 DUP2 MSTORE PUSH1 0xD PUSH1 0x20 SWAP1 DUP2 MSTORE PUSH1 0x40 DUP1 DUP4 KECCAK256 DUP7 DUP5 MSTORE PUSH1 0xF ADD SWAP1 SWAP2 MSTORE DUP2 KECCAK256 PUSH1 0x4 ADD DUP1 SLOAD SWAP3 SWAP4 POP DUP4 SWAP3 SWAP1 SWAP2 SWAP1 PUSH2 0xAB5 SWAP1 DUP5 SWAP1 PUSH2 0x389B JUMP JUMPDEST SWAP1 SWAP2 SSTORE POP PUSH2 0xB07 SWAP2 POP POP JUMP JUMPDEST PUSH1 0x0 DUP8 DUP2 MSTORE PUSH1 0xD PUSH1 0x20 SWAP1 DUP2 MSTORE PUSH1 0x40 DUP1 DUP4 KECCAK256 DUP5 DUP5 MSTORE PUSH1 0xF ADD DUP3 MSTORE DUP3 KECCAK256 PUSH1 0x3 ADD DUP1 SLOAD PUSH1 0x1 DUP2 ADD DUP3 SSTORE SWAP1 DUP4 MSTORE SWAP2 KECCAK256 ADD DUP1 SLOAD PUSH1 0x1 PUSH1 0x1 PUSH1 0xA0 SHL SUB NOT AND PUSH1 0x1 PUSH1 0x1 PUSH1 0xA0 SHL SUB DUP6 AND OR SWAP1 SSTORE JUMPDEST PUSH1 0x0 DUP8 DUP2 MSTORE PUSH1 0xD PUSH1 0x20 SWAP1 DUP2 MSTORE PUSH1 0x40 DUP1 DUP4 KECCAK256 DUP5 DUP5 MSTORE PUSH1 0xF ADD DUP3 MSTORE DUP1 DUP4 KECCAK256 PUSH1 0x1 PUSH1 0x1 PUSH1 0xA0 SHL SUB DUP8 AND DUP5 MSTORE PUSH1 0x5 ADD DUP3 MSTORE DUP1 DUP4 KECCAK256 PUSH1 0x1 SWAP1 SSTORE CALLER DUP4 MSTORE PUSH1 0x13 SWAP1 SWAP2 MSTORE DUP2 KECCAK256 DUP1 SLOAD SWAP2 PUSH2 0xB51 DUP4 PUSH2 0x3990 JUMP JUMPDEST SWAP2 SWAP1 POP SSTORE POP PUSH1 0x0 JUMPDEST PUSH1 0x0 DUP9 DUP2 MSTORE PUSH1 0xD PUSH1 0x20 SWAP1 DUP2 MSTORE PUSH1 0x40 DUP1 DUP4 KECCAK256 CALLER DUP5 MSTORE PUSH1 0x10 ADD SWAP1 SWAP2 MSTORE SWAP1 KECCAK256 SLOAD DUP2 LT ISZERO PUSH2 0xBF7 JUMPI PUSH1 0x0 DUP9 DUP2 MSTORE PUSH1 0xD PUSH1 0x20 SWAP1 DUP2 MSTORE PUSH1 0x40 DUP1 DUP4 KECCAK256 CALLER DUP5 MSTORE PUSH1 0x10 ADD SWAP1 SWAP2 MSTORE DUP2 KECCAK256 DUP1 SLOAD DUP4 SWAP1 DUP2 LT PUSH2 0xBAB JUMPI PUSH2 0xBAB PUSH2 0x39C1 JUMP JUMPDEST PUSH1 0x0 SWAP2 DUP3 MSTORE PUSH1 0x20 DUP1 DUP4 KECCAK256 SWAP1 SWAP2 ADD SLOAD PUSH1 0x1 PUSH1 0x1 PUSH1 0xA0 SHL SUB AND DUP1 DUP4 MSTORE PUSH1 0x13 SWAP1 SWAP2 MSTORE PUSH1 0x40 DUP3 KECCAK256 DUP1 SLOAD SWAP2 SWAP4 POP SWAP1 SWAP2 PUSH2 0xBDE DUP4 PUSH2 0x3990 JUMP JUMPDEST SWAP2 SWAP1 POP SSTORE POP POP DUP1 DUP1 PUSH2 0xBEF SWAP1 PUSH2 0x3990 JUMP JUMPDEST SWAP2 POP POP PUSH2 0xB59 JUMP JUMPDEST POP POP POP POP POP POP POP POP JUMP JUMPDEST PUSH2 0xC0A CALLER PUSH2 0x12B2 JUMP JUMPDEST PUSH2 0xC26 JUMPI PUSH1 0x40 MLOAD PUSH3 0x461BCD PUSH1 0xE5 SHL DUP2 MSTORE PUSH1 0x4 ADD PUSH2 0x904 SWAP1 PUSH2 0x3765 JUMP JUMPDEST PUSH1 0x0 DUP4 DUP2 MSTORE PUSH1 0x9 PUSH1 0x20 MSTORE PUSH1 0x40 SWAP1 KECCAK256 PUSH1 0x4 ADD SLOAD DUP2 GT ISZERO PUSH2 0xC7B JUMPI PUSH1 0x40 MLOAD PUSH3 0x461BCD PUSH1 0xE5 SHL DUP2 MSTORE PUSH1 0x20 PUSH1 0x4 DUP3 ADD MSTORE PUSH1 0x11 PUSH1 0x24 DUP3 ADD MSTORE PUSH17 0x746F6F206D7563682063686F6963657321 PUSH1 0x78 SHL PUSH1 0x44 DUP3 ADD MSTORE PUSH1 0x64 ADD PUSH2 0x904 JUMP JUMPDEST PUSH1 0x0 DUP4 DUP2 MSTORE PUSH1 0x9 PUSH1 0x20 SWAP1 DUP2 MSTORE PUSH1 0x40 DUP1 DUP4 KECCAK256 CALLER DUP5 MSTORE PUSH1 0x8 ADD SWAP1 SWAP2 MSTORE SWAP1 KECCAK256 SLOAD PUSH1 0xFF AND ISZERO PUSH2 0xCDF JUMPI PUSH1 0x40 MLOAD PUSH3 0x461BCD PUSH1 0xE5 SHL DUP2 MSTORE PUSH1 0x20 PUSH1 0x4 DUP3 ADD MSTORE PUSH1 0x14 PUSH1 0x24 DUP3 ADD MSTORE PUSH20 0x7375727665792074616B656E206265666F726521 PUSH1 0x60 SHL PUSH1 0x44 DUP3 ADD MSTORE PUSH1 0x64 ADD PUSH2 0x904 JUMP JUMPDEST PUSH1 0x0 DUP4 DUP2 MSTORE PUSH1 0x9 PUSH1 0x20 MSTORE PUSH1 0x40 SWAP1 KECCAK256 PUSH1 0x2 ADD SLOAD TIMESTAMP LT DUP1 ISZERO SWAP1 PUSH2 0xD19 JUMPI POP PUSH1 0x0 DUP4 DUP2 MSTORE PUSH1 0x9 PUSH1 0x20 MSTORE PUSH1 0x40 SWAP1 KECCAK256 PUSH1 0x6 ADD SLOAD PUSH1 0x1 PUSH1 0xA0 SHL SWAP1 DIV PUSH1 0xFF AND ISZERO JUMPDEST ISZERO PUSH2 0xD4B JUMPI PUSH1 0x0 DUP4 DUP2 MSTORE PUSH1 0x9 PUSH1 0x20 MSTORE PUSH1 0x40 SWAP1 KECCAK256 PUSH1 0x6 ADD DUP1 SLOAD PUSH1 0xFF PUSH1 0xA0 SHL NOT AND PUSH1 0x1 PUSH1 0xA0 SHL OR SWAP1 SSTORE PUSH2 0xD49 DUP4 PUSH2 0x2A02 JUMP JUMPDEST POP JUMPDEST PUSH1 0x0 DUP4 DUP2 MSTORE PUSH1 0x9 PUSH1 0x20 MSTORE PUSH1 0x40 SWAP1 KECCAK256 PUSH1 0x2 ADD SLOAD TIMESTAMP GT ISZERO PUSH2 0xD7C JUMPI PUSH1 0x40 MLOAD PUSH3 0x461BCD PUSH1 0xE5 SHL DUP2 MSTORE PUSH1 0x4 ADD PUSH2 0x904 SWAP1 PUSH2 0x37F6 JUMP JUMPDEST CALLER PUSH1 0x0 SWAP1 DUP2 MSTORE PUSH1 0x13 PUSH1 0x20 MSTORE PUSH1 0x40 DUP2 KECCAK256 DUP1 SLOAD SWAP2 PUSH2 0xD97 DUP4 PUSH2 0x3990 JUMP JUMPDEST SWAP2 SWAP1 POP SSTORE POP PUSH1 0x0 JUMPDEST DUP1 DUP3 EQ PUSH2 0xE39 JUMPI PUSH1 0x0 DUP5 DUP2 MSTORE PUSH1 0x9 PUSH1 0x20 MSTORE PUSH1 0x40 SWAP1 KECCAK256 PUSH1 0x3 ADD SLOAD DUP4 DUP4 DUP4 DUP2 DUP2 LT PUSH2 0xDCA JUMPI PUSH2 0xDCA PUSH2 0x39C1 JUMP JUMPDEST SWAP1 POP PUSH1 0x20 MUL ADD CALLDATALOAD LT PUSH2 0xDEE JUMPI PUSH1 0x40 MLOAD PUSH3 0x461BCD PUSH1 0xE5 SHL DUP2 MSTORE PUSH1 0x4 ADD PUSH2 0x904 SWAP1 PUSH2 0x37C4 JUMP JUMPDEST PUSH1 0x0 DUP4 DUP4 DUP4 DUP2 DUP2 LT PUSH2 0xE02 JUMPI PUSH2 0xE02 PUSH2 0x39C1 JUMP JUMPDEST SWAP1 POP PUSH1 0x20 MUL ADD CALLDATALOAD LT ISZERO PUSH2 0xE27 JUMPI PUSH1 0x40 MLOAD PUSH3 0x461BCD PUSH1 0xE5 SHL DUP2 MSTORE PUSH1 0x4 ADD PUSH2 0x904 SWAP1 PUSH2 0x37C4 JUMP JUMPDEST DUP1 PUSH2 0xE31 DUP2 PUSH2 0x3990 JUMP JUMPDEST SWAP2 POP POP PUSH2 0xD9F JUMP JUMPDEST PUSH1 0x0 DUP5 DUP2 MSTORE PUSH1 0x9 PUSH1 0x20 MSTORE PUSH1 0x40 DUP2 KECCAK256 PUSH1 0x5 ADD DUP1 SLOAD SWAP2 PUSH2 0xE56 DUP4 PUSH2 0x3990 JUMP JUMPDEST SWAP1 SWAP2 SSTORE POP POP PUSH1 0x0 DUP5 DUP2 MSTORE PUSH1 0x9 PUSH1 0x20 SWAP1 DUP2 MSTORE PUSH1 0x40 DUP1 DUP4 KECCAK256 CALLER DUP5 MSTORE PUSH1 0x7 ADD SWAP1 SWAP2 MSTORE SWAP1 KECCAK256 PUSH2 0xE82 SWAP1 DUP5 DUP5 PUSH2 0x316B JUMP JUMPDEST POP PUSH1 0x0 SWAP1 POP JUMPDEST DUP1 DUP3 EQ PUSH2 0xEF8 JUMPI PUSH1 0x0 DUP5 DUP2 MSTORE PUSH1 0x9 PUSH1 0x20 DUP2 SWAP1 MSTORE PUSH1 0x40 SWAP1 SWAP2 KECCAK256 ADD DUP4 DUP4 DUP4 DUP2 DUP2 LT PUSH2 0xEB3 JUMPI PUSH2 0xEB3 PUSH2 0x39C1 JUMP JUMPDEST SWAP1 POP PUSH1 0x20 MUL ADD CALLDATALOAD DUP2 SLOAD DUP2 LT PUSH2 0xECA JUMPI PUSH2 0xECA PUSH2 0x39C1 JUMP JUMPDEST PUSH1 0x0 SWAP2 DUP3 MSTORE PUSH1 0x20 DUP3 KECCAK256 ADD DUP1 SLOAD SWAP2 PUSH2 0xEE0 DUP4 PUSH2 0x3990 JUMP JUMPDEST SWAP2 SWAP1 POP SSTORE POP DUP1 DUP1 PUSH2 0xEF0 SWAP1 PUSH2 0x3990 JUMP JUMPDEST SWAP2 POP POP PUSH2 0xE88 JUMP JUMPDEST POP POP POP PUSH1 0x0 DUP2 DUP2 MSTORE PUSH1 0x9 PUSH1 0x20 SWAP1 DUP2 MSTORE PUSH1 0x40 DUP1 DUP4 KECCAK256 CALLER DUP1 DUP6 MSTORE PUSH1 0x8 SWAP1 SWAP2 ADD DUP4 MSTORE DUP2 DUP5 KECCAK256 DUP1 SLOAD PUSH1 0xFF NOT AND PUSH1 0x1 SWAP1 DUP2 OR SWAP1 SWAP2 SSTORE SWAP5 DUP5 MSTORE PUSH1 0xC DUP4 MSTORE SWAP1 DUP4 KECCAK256 DUP1 SLOAD SWAP5 DUP6 ADD DUP2 SSTORE DUP4 MSTORE SWAP2 KECCAK256 SWAP1 SWAP2 ADD DUP1 SLOAD PUSH1 0x1 PUSH1 0x1 PUSH1 0xA0 SHL SUB NOT AND SWAP1 SWAP2 OR SWAP1 SSTORE JUMP JUMPDEST PUSH1 0x1 PUSH1 0x1 PUSH1 0xA0 SHL SUB AND PUSH1 0x0 SWAP1 DUP2 MSTORE PUSH1 0x20 DUP2 SWAP1 MSTORE PUSH1 0x40 SWAP1 KECCAK256 SLOAD SWAP1 JUMP JUMPDEST PUSH1 0x0 DUP2 DUP2 MSTORE PUSH1 0x9 PUSH1 0x20 DUP2 DUP2 MSTORE PUSH1 0x40 SWAP3 DUP4 SWAP1 KECCAK256 PUSH1 0x5 DUP2 ADD SLOAD SWAP3 ADD DUP1 SLOAD DUP5 MLOAD DUP2 DUP5 MUL DUP2 ADD DUP5 ADD SWAP1 SWAP6 MSTORE DUP1 DUP6 MSTORE SWAP3 SWAP4 PUSH1 0x60 SWAP4 SWAP1 SWAP3 DUP4 ADD DUP3 DUP3 DUP1 ISZERO PUSH2 0xFCE JUMPI PUSH1 0x20 MUL DUP3 ADD SWAP2 SWAP1 PUSH1 0x0 MSTORE PUSH1 0x20 PUSH1 0x0 KECCAK256 SWAP1 JUMPDEST DUP2 SLOAD DUP2 MSTORE PUSH1 0x20 ADD SWAP1 PUSH1 0x1 ADD SWAP1 DUP1 DUP4 GT PUSH2 0xFBA JUMPI JUMPDEST POP POP POP POP POP SWAP1 POP SWAP2 POP SWAP2 JUMP JUMPDEST PUSH1 0x0 CALLVALUE GT PUSH2 0x1024 JUMPI PUSH1 0x40 MLOAD PUSH3 0x461BCD PUSH1 0xE5 SHL DUP2 MSTORE PUSH1 0x20 PUSH1 0x4 DUP3 ADD MSTORE PUSH1 0x17 PUSH1 0x24 DUP3 ADD MSTORE PUSH23 0x7A65726F20776569206E6F742061636365707461626C65 PUSH1 0x48 SHL PUSH1 0x44 DUP3 ADD MSTORE PUSH1 0x64 ADD PUSH2 0x904 JUMP JUMPDEST JUMP JUMPDEST PUSH1 0x60 PUSH1 0x4 DUP1 SLOAD PUSH2 0x666 SWAP1 PUSH2 0x3955 JUMP JUMPDEST PUSH1 0x0 DUP2 DUP2 MSTORE PUSH1 0xD PUSH1 0x20 MSTORE PUSH1 0x40 SWAP1 KECCAK256 PUSH1 0x2 ADD SLOAD TIMESTAMP DUP2 GT PUSH2 0x1066 JUMPI PUSH1 0x40 MLOAD PUSH3 0x461BCD PUSH1 0xE5 SHL DUP2 MSTORE PUSH1 0x4 ADD PUSH2 0x904 SWAP1 PUSH2 0x37F6 JUMP JUMPDEST PUSH1 0x0 DUP3 DUP2 MSTORE PUSH1 0xD PUSH1 0x20 SWAP1 DUP2 MSTORE PUSH1 0x40 DUP1 DUP4 KECCAK256 CALLER DUP1 DUP6 MSTORE PUSH1 0xA SWAP1 SWAP2 ADD SWAP1 SWAP3 MSTORE DUP1 DUP4 KECCAK256 SLOAD PUSH1 0x1 PUSH1 0x1 PUSH1 0xA0 SHL SUB DUP8 AND DUP5 MSTORE SWAP3 KECCAK256 SLOAD SWAP1 PUSH2 0x10A0 SWAP1 PUSH2 0x12B2 JUMP JUMPDEST PUSH2 0x10BC JUMPI PUSH1 0x40 MLOAD PUSH3 0x461BCD PUSH1 0xE5 SHL DUP2 MSTORE PUSH1 0x4 ADD PUSH2 0x904 SWAP1 PUSH2 0x3765 JUMP JUMPDEST PUSH2 0x10C5 DUP6 PUSH2 0x12B2 JUMP JUMPDEST PUSH2 0x110C JUMPI PUSH1 0x40 MLOAD PUSH3 0x461BCD PUSH1 0xE5 SHL DUP2 MSTORE PUSH1 0x20 PUSH1 0x4 DUP3 ADD MSTORE PUSH1 0x18 PUSH1 0x24 DUP3 ADD MSTORE PUSH24 0x3232B632B3B0BA32B2103A379030903737B736B2B6B132B9 PUSH1 0x41 SHL PUSH1 0x44 DUP3 ADD MSTORE PUSH1 0x64 ADD PUSH2 0x904 JUMP JUMPDEST PUSH1 0x1 DUP3 SLT PUSH2 0x116B JUMPI PUSH1 0x40 MLOAD PUSH3 0x461BCD PUSH1 0xE5 SHL DUP2 MSTORE PUSH1 0x20 PUSH1 0x4 DUP3 ADD MSTORE PUSH1 0x26 PUSH1 0x24 DUP3 ADD MSTORE PUSH32 0x796F7520616C726561647920766F7465642F64656C65676174656420796F7572 PUSH1 0x44 DUP3 ADD MSTORE PUSH6 0x20766F746521 PUSH1 0xD0 SHL PUSH1 0x64 DUP3 ADD MSTORE PUSH1 0x84 ADD PUSH2 0x904 JUMP JUMPDEST PUSH1 0x1 DUP2 SLT PUSH2 0x11BB JUMPI PUSH1 0x40 MLOAD PUSH3 0x461BCD PUSH1 0xE5 SHL DUP2 MSTORE PUSH1 0x20 PUSH1 0x4 DUP3 ADD MSTORE PUSH1 0x1F PUSH1 0x24 DUP3 ADD MSTORE PUSH32 0x64656C656761746564206D656D62657220616C726561647920766F7465642100 PUSH1 0x44 DUP3 ADD MSTORE PUSH1 0x64 ADD PUSH2 0x904 JUMP JUMPDEST DUP2 PUSH2 0x11C5 DUP2 PUSH2 0x3928 JUMP JUMPDEST PUSH1 0x0 DUP7 DUP2 MSTORE PUSH1 0xD PUSH1 0x20 SWAP1 DUP2 MSTORE PUSH1 0x40 DUP1 DUP4 KECCAK256 CALLER DUP5 MSTORE PUSH1 0xA ADD SWAP1 SWAP2 MSTORE DUP1 DUP3 KECCAK256 PUSH1 0x1 SWAP1 SSTORE PUSH1 0x1 PUSH1 0x1 PUSH1 0xA0 SHL SUB DUP10 AND DUP3 MSTORE DUP2 KECCAK256 DUP3 SWAP1 SSTORE SWAP1 SWAP4 POP SWAP1 POP JUMPDEST PUSH1 0x0 DUP6 DUP2 MSTORE PUSH1 0xD PUSH1 0x20 MSTORE PUSH1 0x40 SWAP1 KECCAK256 PUSH1 0x4 ADD SLOAD DUP2 LT ISZERO PUSH2 0x1265 JUMPI PUSH1 0x0 DUP6 DUP2 MSTORE PUSH1 0xD PUSH1 0x20 SWAP1 DUP2 MSTORE PUSH1 0x40 DUP1 DUP4 KECCAK256 DUP5 DUP5 MSTORE PUSH1 0xF ADD DUP3 MSTORE DUP1 DUP4 KECCAK256 CALLER DUP5 MSTORE PUSH1 0x5 ADD SWAP1 SWAP2 MSTORE DUP1 DUP3 KECCAK256 PUSH1 0x1 SWAP1 SSTORE PUSH1 0x1 PUSH1 0x1 PUSH1 0xA0 SHL SUB DUP9 AND DUP3 MSTORE SWAP1 KECCAK256 DUP4 SWAP1 SSTORE DUP1 PUSH2 0x125D DUP2 PUSH2 0x3990 JUMP JUMPDEST SWAP2 POP POP PUSH2 0x11FD JUMP JUMPDEST POP POP POP PUSH1 0x0 SWAP2 DUP3 MSTORE POP PUSH1 0xD PUSH1 0x20 SWAP1 DUP2 MSTORE PUSH1 0x40 DUP1 DUP4 KECCAK256 PUSH1 0x1 PUSH1 0x1 PUSH1 0xA0 SHL SUB SWAP1 SWAP5 AND DUP4 MSTORE PUSH1 0x10 SWAP1 SWAP4 ADD DUP2 MSTORE SWAP2 DUP2 KECCAK256 DUP1 SLOAD PUSH1 0x1 DUP2 ADD DUP3 SSTORE SWAP1 DUP3 MSTORE SWAP2 SWAP1 KECCAK256 ADD DUP1 SLOAD PUSH1 0x1 PUSH1 0x1 PUSH1 0xA0 SHL SUB NOT AND CALLER OR SWAP1 SSTORE JUMP JUMPDEST PUSH1 0x1 PUSH1 0x1 PUSH1 0xA0 SHL SUB AND PUSH1 0x0 SWAP1 DUP2 MSTORE PUSH1 0x7 PUSH1 0x20 MSTORE PUSH1 0x40 SWAP1 KECCAK256 SLOAD PUSH1 0xFF AND SWAP1 JUMP JUMPDEST PUSH1 0x0 CALLER DUP2 PUSH2 0x12DE DUP3 DUP7 PUSH2 0x1E4D JUMP JUMPDEST SWAP1 POP DUP4 DUP2 LT ISZERO PUSH2 0x133E JUMPI PUSH1 0x40 MLOAD PUSH3 0x461BCD PUSH1 0xE5 SHL DUP2 MSTORE PUSH1 0x20 PUSH1 0x4 DUP3 ADD MSTORE PUSH1 0x25 PUSH1 0x24 DUP3 ADD MSTORE PUSH32 0x45524332303A2064656372656173656420616C6C6F77616E63652062656C6F77 PUSH1 0x44 DUP3 ADD MSTORE PUSH5 0x207A65726F PUSH1 0xD8 SHL PUSH1 0x64 DUP3 ADD MSTORE PUSH1 0x84 ADD PUSH2 0x904 JUMP JUMPDEST PUSH2 0x134B DUP3 DUP7 DUP7 DUP5 SUB PUSH2 0x253D JUMP JUMPDEST POP PUSH1 0x1 SWAP5 SWAP4 POP POP POP POP JUMP JUMPDEST CALLER PUSH1 0x5 DUP1 PUSH2 0x1363 DUP4 PUSH2 0xF53 JUMP JUMPDEST LT ISZERO PUSH2 0x136E JUMPI PUSH1 0x0 DUP1 REVERT JUMPDEST DUP1 PUSH2 0x1378 DUP4 PUSH2 0xF53 JUMP JUMPDEST EQ ISZERO PUSH2 0x13A1 JUMPI PUSH1 0x1 PUSH1 0x1 PUSH1 0xA0 SHL SUB DUP3 AND PUSH1 0x0 SWAP1 DUP2 MSTORE PUSH1 0x13 PUSH1 0x20 MSTORE PUSH1 0x40 SWAP1 KECCAK256 SLOAD ISZERO PUSH2 0x13A1 JUMPI PUSH1 0x0 DUP1 REVERT JUMPDEST CALLVALUE PUSH8 0x16345785D8A0000 EQ PUSH2 0x13C8 JUMPI PUSH1 0x40 MLOAD PUSH3 0x461BCD PUSH1 0xE5 SHL DUP2 MSTORE PUSH1 0x4 ADD PUSH2 0x904 SWAP1 PUSH2 0x381F JUMP JUMPDEST TIMESTAMP DUP6 GT PUSH2 0x140C JUMPI PUSH1 0x40 MLOAD PUSH3 0x461BCD PUSH1 0xE5 SHL DUP2 MSTORE PUSH1 0x20 PUSH1 0x4 DUP3 ADD MSTORE PUSH1 0x12 PUSH1 0x24 DUP3 ADD MSTORE PUSH18 0x191958591B1A5B99481B9BDD081D985B1A59 PUSH1 0x72 SHL PUSH1 0x44 DUP3 ADD MSTORE PUSH1 0x64 ADD PUSH2 0x904 JUMP JUMPDEST DUP3 MLOAD DUP5 MLOAD EQ PUSH2 0x1467 JUMPI PUSH1 0x40 MLOAD PUSH3 0x461BCD PUSH1 0xE5 SHL DUP2 MSTORE PUSH1 0x20 PUSH1 0x4 DUP3 ADD MSTORE PUSH1 0x21 PUSH1 0x24 DUP3 ADD MSTORE PUSH32 0x696E76616C6964207061796D656E7420616D6F756E74732F7363686564756C65 PUSH1 0x44 DUP3 ADD MSTORE PUSH1 0x73 PUSH1 0xF8 SHL PUSH1 0x64 DUP3 ADD MSTORE PUSH1 0x84 ADD PUSH2 0x904 JUMP JUMPDEST DUP5 PUSH1 0x0 JUMPDEST DUP5 MLOAD DUP2 LT ISZERO PUSH2 0x14FE JUMPI DUP2 DUP6 DUP3 DUP2 MLOAD DUP2 LT PUSH2 0x1487 JUMPI PUSH2 0x1487 PUSH2 0x39C1 JUMP JUMPDEST PUSH1 0x20 MUL PUSH1 0x20 ADD ADD MLOAD GT PUSH2 0x14CF JUMPI PUSH1 0x40 MLOAD PUSH3 0x461BCD PUSH1 0xE5 SHL DUP2 MSTORE PUSH1 0x20 PUSH1 0x4 DUP3 ADD MSTORE PUSH1 0x10 PUSH1 0x24 DUP3 ADD MSTORE PUSH16 0x696E76616C6964207363686564756C65 PUSH1 0x80 SHL PUSH1 0x44 DUP3 ADD MSTORE PUSH1 0x64 ADD PUSH2 0x904 JUMP JUMPDEST DUP5 DUP2 DUP2 MLOAD DUP2 LT PUSH2 0x14E1 JUMPI PUSH2 0x14E1 PUSH2 0x39C1 JUMP JUMPDEST PUSH1 0x20 MUL PUSH1 0x20 ADD ADD MLOAD SWAP2 POP DUP1 DUP1 PUSH2 0x14F6 SWAP1 PUSH2 0x3990 JUMP JUMPDEST SWAP2 POP POP PUSH2 0x146B JUMP JUMPDEST POP PUSH2 0x150A CALLER PUSH1 0x5 PUSH2 0x28E5 JUMP JUMPDEST PUSH2 0x1513 CALLER PUSH2 0x286E JUMP JUMPDEST PUSH1 0xE SLOAD PUSH1 0x0 DUP2 DUP2 MSTORE PUSH1 0xD PUSH1 0x20 SWAP1 DUP2 MSTORE PUSH1 0x40 SWAP1 SWAP2 KECCAK256 DUP3 DUP2 SSTORE DUP10 MLOAD SWAP1 SWAP2 PUSH2 0x153F SWAP2 PUSH1 0x1 DUP5 ADD SWAP2 DUP13 ADD SWAP1 PUSH2 0x31B6 JUMP JUMPDEST POP PUSH1 0x2 DUP2 ADD DUP9 SWAP1 SSTORE DUP7 MLOAD PUSH2 0x155C SWAP1 PUSH1 0x3 DUP4 ADD SWAP1 PUSH1 0x20 DUP11 ADD SWAP1 PUSH2 0x322A JUMP JUMPDEST POP DUP6 MLOAD PUSH2 0x1572 SWAP1 PUSH1 0x4 DUP4 ADD SWAP1 PUSH1 0x20 DUP10 ADD SWAP1 PUSH2 0x322A JUMP JUMPDEST POP PUSH1 0x0 DUP1 JUMPDEST DUP9 MLOAD DUP2 LT ISZERO PUSH2 0x15B9 JUMPI DUP9 DUP2 DUP2 MLOAD DUP2 LT PUSH2 0x1592 JUMPI PUSH2 0x1592 PUSH2 0x39C1 JUMP JUMPDEST PUSH1 0x20 MUL PUSH1 0x20 ADD ADD MLOAD DUP3 PUSH2 0x15A5 SWAP2 SWAP1 PUSH2 0x389B JUMP JUMPDEST SWAP2 POP DUP1 PUSH2 0x15B1 DUP2 PUSH2 0x3990 JUMP JUMPDEST SWAP2 POP POP PUSH2 0x1577 JUMP JUMPDEST POP PUSH1 0x5 DUP3 ADD DUP2 SWAP1 SSTORE PUSH1 0x7 DUP3 ADD DUP1 SLOAD PUSH1 0x1 PUSH1 0x1 PUSH1 0xA0 SHL SUB NOT AND CALLER OR SWAP1 SSTORE PUSH1 0xD DUP3 ADD DUP1 SLOAD PUSH1 0xFF NOT AND SWAP1 SSTORE PUSH1 0x0 PUSH1 0xE DUP1 DUP5 ADD DUP3 SWAP1 SSTORE PUSH1 0x6 DUP5 ADD DUP3 SWAP1 SSTORE DUP1 SLOAD SWAP2 PUSH2 0x15FE DUP4 PUSH2 0x3990 JUMP JUMPDEST SWAP1 SWAP2 SSTORE POP POP PUSH1 0x10 DUP1 SLOAD SWAP1 PUSH1 0x0 PUSH2 0x1613 DUP4 PUSH2 0x3990 JUMP JUMPDEST SWAP2 SWAP1 POP SSTORE POP POP POP POP POP POP POP POP POP POP POP JUMP JUMPDEST PUSH1 0x0 CALLER DUP3 DUP1 PUSH2 0x1632 DUP4 PUSH2 0xF53 JUMP JUMPDEST LT ISZERO PUSH2 0x163D JUMPI PUSH1 0x0 DUP1 REVERT JUMPDEST DUP1 PUSH2 0x1647 DUP4 PUSH2 0xF53 JUMP JUMPDEST EQ ISZERO PUSH2 0x1670 JUMPI PUSH1 0x1 PUSH1 0x1 PUSH1 0xA0 SHL SUB DUP3 AND PUSH1 0x0 SWAP1 DUP2 MSTORE PUSH1 0x13 PUSH1 0x20 MSTORE PUSH1 0x40 SWAP1 KECCAK256 SLOAD ISZERO PUSH2 0x1670 JUMPI PUSH1 0x0 DUP1 REVERT JUMPDEST CALLER PUSH2 0x167C DUP2 DUP8 DUP8 PUSH2 0x26DC JUMP JUMPDEST PUSH2 0x1685 CALLER PUSH2 0x286E JUMP JUMPDEST PUSH2 0x168E DUP7 PUSH2 0x286E JUMP JUMPDEST POP PUSH1 0x1 SWAP6 SWAP5 POP POP POP POP POP JUMP JUMPDEST PUSH1 0x0 DUP2 DUP2 MSTORE PUSH1 0xD PUSH1 0x20 MSTORE PUSH1 0x40 DUP2 KECCAK256 PUSH1 0xE ADD SLOAD TIMESTAMP DUP3 JUMPDEST PUSH1 0x0 DUP6 DUP2 MSTORE PUSH1 0xD PUSH1 0x20 MSTORE PUSH1 0x40 SWAP1 KECCAK256 PUSH1 0x4 ADD SLOAD DUP4 LT DUP1 ISZERO PUSH2 0x16FE JUMPI POP PUSH1 0x0 DUP6 DUP2 MSTORE PUSH1 0xD PUSH1 0x20 MSTORE PUSH1 0x40 SWAP1 KECCAK256 PUSH1 0x4 ADD DUP1 SLOAD DUP4 SWAP2 SWAP1 DUP6 SWAP1 DUP2 LT PUSH2 0x16F0 JUMPI PUSH2 0x16F0 PUSH2 0x39C1 JUMP JUMPDEST SWAP1 PUSH1 0x0 MSTORE PUSH1 0x20 PUSH1 0x0 KECCAK256 ADD SLOAD GT ISZERO JUMPDEST ISZERO PUSH2 0x177D JUMPI PUSH2 0x170D DUP6 DUP5 PUSH2 0x2A91 JUMP JUMPDEST PUSH2 0x1726 JUMPI PUSH2 0x171A DUP6 PUSH2 0x2ACB JUMP JUMPDEST POP PUSH1 0x0 NOT SWAP5 SWAP4 POP POP POP POP JUMP JUMPDEST PUSH1 0x0 DUP6 DUP2 MSTORE PUSH1 0xD PUSH1 0x20 MSTORE PUSH1 0x40 SWAP1 KECCAK256 PUSH1 0x3 ADD DUP1 SLOAD DUP5 SWAP1 DUP2 LT PUSH2 0x1749 JUMPI PUSH2 0x1749 PUSH2 0x39C1 JUMP JUMPDEST SWAP1 PUSH1 0x0 MSTORE PUSH1 0x20 PUSH1 0x0 KECCAK256 ADD SLOAD DUP2 PUSH2 0x175F SWAP2 SWAP1 PUSH2 0x389B JUMP JUMPDEST SWAP1 POP DUP3 PUSH2 0x176B DUP2 PUSH2 0x3990 JUMP JUMPDEST SWAP4 POP POP PUSH2 0x1778 DUP6 DUP5 PUSH2 0x2B4C JUMP JUMPDEST PUSH2 0x16AF JUMP JUMPDEST PUSH1 0x0 DUP6 DUP2 MSTORE PUSH1 0xD PUSH1 0x20 MSTORE PUSH1 0x40 SWAP1 KECCAK256 PUSH1 0x4 ADD SLOAD DUP4 LT PUSH2 0x17CD JUMPI PUSH1 0x40 MLOAD PUSH3 0x461BCD PUSH1 0xE5 SHL DUP2 MSTORE PUSH1 0x20 PUSH1 0x4 DUP3 ADD MSTORE PUSH1 0xD PUSH1 0x24 DUP3 ADD MSTORE PUSH13 0x1C1C9BDA9958DD08195B991959 PUSH1 0x9A SHL PUSH1 0x44 DUP3 ADD MSTORE PUSH1 0x64 ADD PUSH2 0x904 JUMP JUMPDEST PUSH1 0x0 DUP6 DUP2 MSTORE PUSH1 0xD PUSH1 0x20 MSTORE PUSH1 0x40 DUP2 KECCAK256 PUSH1 0xE ADD DUP5 SWAP1 SSTORE PUSH1 0x12 DUP1 SLOAD DUP4 SWAP3 SWAP1 PUSH2 0x17F3 SWAP1 DUP5 SWAP1 PUSH2 0x3911 JUMP JUMPDEST SWAP1 SWAP2 SSTORE POP SWAP3 SWAP6 SWAP5 POP POP POP POP POP JUMP JUMPDEST PUSH1 0x0 DUP2 DUP2 MSTORE PUSH1 0xD PUSH1 0x20 MSTORE PUSH1 0x40 SWAP1 KECCAK256 PUSH1 0x7 ADD SLOAD PUSH1 0x1 PUSH1 0x1 PUSH1 0xA0 SHL SUB AND CALLER EQ PUSH2 0x1863 JUMPI PUSH1 0x40 MLOAD PUSH3 0x461BCD PUSH1 0xE5 SHL DUP2 MSTORE PUSH1 0x20 PUSH1 0x4 DUP3 ADD MSTORE PUSH1 0x16 PUSH1 0x24 DUP3 ADD MSTORE PUSH22 0x796F7520617265206E6F7420746865206F776E657221 PUSH1 0x50 SHL PUSH1 0x44 DUP3 ADD MSTORE PUSH1 0x64 ADD PUSH2 0x904 JUMP JUMPDEST PUSH1 0x0 DUP2 DUP2 MSTORE PUSH1 0xD PUSH1 0x20 MSTORE PUSH1 0x40 SWAP1 KECCAK256 PUSH1 0x5 ADD SLOAD PUSH1 0x12 SLOAD PUSH2 0x1882 SWAP2 SWAP1 PUSH2 0x389B JUMP JUMPDEST SELFBALANCE LT ISZERO PUSH2 0x18D1 JUMPI PUSH1 0x40 MLOAD PUSH3 0x461BCD PUSH1 0xE5 SHL DUP2 MSTORE PUSH1 0x20 PUSH1 0x4 DUP3 ADD MSTORE PUSH1 0x1E PUSH1 0x24 DUP3 ADD MSTORE PUSH32 0x636F6E74726163742062616C616E6365206973206E6F7420656E6F7567680000 PUSH1 0x44 DUP3 ADD MSTORE PUSH1 0x64 ADD PUSH2 0x904 JUMP JUMPDEST PUSH1 0x8 DUP1 SLOAD PUSH1 0x0 DUP4 DUP2 MSTORE PUSH1 0xD PUSH1 0x20 MSTORE PUSH1 0x40 SWAP1 KECCAK256 SWAP1 SWAP2 ADD SLOAD PUSH2 0x18F2 SWAP1 PUSH1 0xA PUSH2 0x38B3 JUMP JUMPDEST GT PUSH2 0x194D JUMPI PUSH1 0x40 MLOAD PUSH3 0x461BCD PUSH1 0xE5 SHL DUP2 MSTORE PUSH1 0x20 PUSH1 0x4 DUP3 ADD MSTORE PUSH1 0x25 PUSH1 0x24 DUP3 ADD MSTORE PUSH32 0x6174206C6561737420312F3130206D75737420617070726F766520612070726F PUSH1 0x44 DUP3 ADD MSTORE PUSH5 0x1C1BDCD85B PUSH1 0xDA SHL PUSH1 0x64 DUP3 ADD MSTORE PUSH1 0x84 ADD PUSH2 0x904 JUMP JUMPDEST PUSH1 0x0 DUP2 DUP2 MSTORE PUSH1 0xD PUSH1 0x20 DUP2 SWAP1 MSTORE PUSH1 0x40 SWAP1 SWAP2 KECCAK256 ADD SLOAD PUSH1 0xFF AND ISZERO PUSH2 0x19AC JUMPI PUSH1 0x40 MLOAD PUSH3 0x461BCD PUSH1 0xE5 SHL DUP2 MSTORE PUSH1 0x20 PUSH1 0x4 DUP3 ADD MSTORE PUSH1 0x19 PUSH1 0x24 DUP3 ADD MSTORE PUSH25 0x1C1C9BDA9958DD081A5CC8185B1C9958591E48199D5B991959 PUSH1 0x3A SHL PUSH1 0x44 DUP3 ADD MSTORE PUSH1 0x64 ADD PUSH2 0x904 JUMP JUMPDEST PUSH1 0x0 DUP2 DUP2 MSTORE PUSH1 0xD PUSH1 0x20 MSTORE PUSH1 0x40 SWAP1 KECCAK256 PUSH1 0x2 ADD SLOAD TIMESTAMP GT DUP1 ISZERO PUSH2 0x19DE JUMPI POP PUSH1 0x0 DUP2 DUP2 MSTORE PUSH1 0xD PUSH1 0x20 MSTORE PUSH1 0x40 SWAP1 KECCAK256 PUSH1 0x9 ADD SLOAD PUSH1 0xFF AND ISZERO JUMPDEST ISZERO PUSH2 0x1A1E JUMPI PUSH1 0x0 DUP2 DUP2 MSTORE PUSH1 0xD PUSH1 0x20 MSTORE PUSH1 0x40 SWAP1 KECCAK256 PUSH1 0x9 ADD DUP1 SLOAD PUSH1 0xFF NOT AND PUSH1 0x1 OR SWAP1 SSTORE PUSH2 0x1A08 DUP2 PUSH2 0x2E0D JUMP JUMPDEST PUSH1 0x10 DUP1 SLOAD SWAP1 PUSH1 0x0 PUSH2 0x1A18 DUP4 PUSH2 0x3946 JUMP JUMPDEST SWAP2 SWAP1 POP SSTORE POP JUMPDEST PUSH1 0x0 DUP2 DUP2 MSTORE PUSH1 0xD PUSH1 0x20 MSTORE PUSH1 0x40 SWAP1 KECCAK256 PUSH1 0x2 ADD SLOAD TIMESTAMP GT ISZERO PUSH2 0x1A4F JUMPI PUSH1 0x40 MLOAD PUSH3 0x461BCD PUSH1 0xE5 SHL DUP2 MSTORE PUSH1 0x4 ADD PUSH2 0x904 SWAP1 PUSH2 0x37F6 JUMP JUMPDEST PUSH1 0x0 DUP2 DUP2 MSTORE PUSH1 0xD PUSH1 0x20 DUP2 SWAP1 MSTORE PUSH1 0x40 DUP3 KECCAK256 SWAP1 DUP2 ADD DUP1 SLOAD PUSH1 0xFF NOT AND PUSH1 0x1 OR SWAP1 SSTORE PUSH1 0x5 ADD SLOAD PUSH1 0x12 DUP1 SLOAD SWAP2 SWAP3 SWAP1 SWAP2 PUSH2 0x1A84 SWAP1 DUP5 SWAP1 PUSH2 0x389B JUMP JUMPDEST SWAP1 SWAP2 SSTORE POP PUSH2 0x1A93 SWAP1 POP DUP2 PUSH2 0x2E0D JUMP JUMPDEST PUSH1 0x10 DUP1 SLOAD SWAP1 PUSH1 0x0 PUSH2 0x1AA3 DUP4 PUSH2 0x3946 JUMP JUMPDEST SWAP1 SWAP2 SSTORE POP POP PUSH1 0x11 DUP1 SLOAD SWAP1 PUSH1 0x0 PUSH2 0x1AB8 DUP4 PUSH2 0x3990 JUMP JUMPDEST SWAP2 SWAP1 POP SSTORE POP POP JUMP JUMPDEST PUSH1 0x0 DUP2 DUP2 MSTORE PUSH1 0xD PUSH1 0x20 DUP2 SWAP1 MSTORE PUSH1 0x40 SWAP1 SWAP2 KECCAK256 ADD SLOAD DUP2 SWAP1 PUSH1 0xFF AND PUSH2 0x1AF4 JUMPI PUSH1 0x40 MLOAD PUSH3 0x461BCD PUSH1 0xE5 SHL DUP2 MSTORE PUSH1 0x4 ADD PUSH2 0x904 SWAP1 PUSH2 0x3794 JUMP JUMPDEST PUSH1 0x0 DUP3 DUP2 MSTORE PUSH1 0xD PUSH1 0x20 MSTORE PUSH1 0x40 SWAP1 KECCAK256 PUSH1 0x2 ADD SLOAD TIMESTAMP GT PUSH2 0x1B4C JUMPI PUSH1 0x40 MLOAD PUSH3 0x461BCD PUSH1 0xE5 SHL DUP2 MSTORE PUSH1 0x20 PUSH1 0x4 DUP3 ADD MSTORE PUSH1 0x15 PUSH1 0x24 DUP3 ADD MSTORE PUSH21 0x1D1A5B59481A185CC81B9BDD0818DBDB59481E595D PUSH1 0x5A SHL PUSH1 0x44 DUP3 ADD MSTORE PUSH1 0x64 ADD PUSH2 0x904 JUMP JUMPDEST PUSH1 0x0 DUP3 DUP2 MSTORE PUSH1 0xD PUSH1 0x20 MSTORE PUSH1 0x40 SWAP1 KECCAK256 PUSH1 0x7 ADD SLOAD PUSH1 0x1 PUSH1 0x1 PUSH1 0xA0 SHL SUB AND CALLER EQ PUSH2 0x1BC1 JUMPI PUSH1 0x40 MLOAD PUSH3 0x461BCD PUSH1 0xE5 SHL DUP2 MSTORE PUSH1 0x20 PUSH1 0x4 DUP3 ADD MSTORE PUSH1 0x24 DUP1 DUP3 ADD MSTORE PUSH32 0x796F7520617265206E6F7420746865206F776E6572206F66207468652070726F PUSH1 0x44 DUP3 ADD MSTORE PUSH4 0x1A9958DD PUSH1 0xE2 SHL PUSH1 0x64 DUP3 ADD MSTORE PUSH1 0x84 ADD PUSH2 0x904 JUMP JUMPDEST PUSH1 0x0 PUSH2 0x1BCC DUP4 PUSH2 0x169A JUMP JUMPDEST SWAP1 POP PUSH1 0x0 DUP2 SLT ISZERO PUSH2 0x1BEF JUMPI PUSH1 0x40 MLOAD PUSH3 0x461BCD PUSH1 0xE5 SHL DUP2 MSTORE PUSH1 0x4 ADD PUSH2 0x904 SWAP1 PUSH2 0x3708 JUMP JUMPDEST PUSH1 0x0 DUP4 DUP2 MSTORE PUSH1 0xD PUSH1 0x20 MSTORE PUSH1 0x40 SWAP1 KECCAK256 PUSH1 0x4 ADD SLOAD DUP2 SWAP1 DUP2 LT PUSH2 0x1C43 JUMPI PUSH1 0x40 MLOAD PUSH3 0x461BCD PUSH1 0xE5 SHL DUP2 MSTORE PUSH1 0x20 PUSH1 0x4 DUP3 ADD MSTORE PUSH1 0xF PUSH1 0x24 DUP3 ADD MSTORE PUSH15 0x70726F6A65637420636C6F73656421 PUSH1 0x88 SHL PUSH1 0x44 DUP3 ADD MSTORE PUSH1 0x64 ADD PUSH2 0x904 JUMP JUMPDEST PUSH1 0x8 SLOAD PUSH1 0x0 DUP6 DUP2 MSTORE PUSH1 0xD PUSH1 0x20 SWAP1 DUP2 MSTORE PUSH1 0x40 DUP1 DUP4 KECCAK256 DUP6 DUP5 MSTORE PUSH1 0xF ADD SWAP1 SWAP2 MSTORE SWAP1 KECCAK256 PUSH1 0x4 ADD SLOAD PUSH2 0x1C71 SWAP1 PUSH1 0x64 PUSH2 0x38B3 JUMP JUMPDEST GT PUSH2 0x1CB1 JUMPI PUSH1 0x40 MLOAD PUSH3 0x461BCD PUSH1 0xE5 SHL DUP2 MSTORE PUSH1 0x20 PUSH1 0x4 DUP3 ADD MSTORE PUSH1 0x10 PUSH1 0x24 DUP3 ADD MSTORE PUSH16 0x766F7465206E6F742070617373656421 PUSH1 0x80 SHL PUSH1 0x44 DUP3 ADD MSTORE PUSH1 0x64 ADD PUSH2 0x904 JUMP JUMPDEST PUSH1 0x0 DUP5 DUP2 MSTORE PUSH1 0xD PUSH1 0x20 MSTORE PUSH1 0x40 DUP2 KECCAK256 PUSH1 0x3 ADD DUP1 SLOAD DUP4 SWAP1 DUP2 LT PUSH2 0x1CD4 JUMPI PUSH2 0x1CD4 PUSH2 0x39C1 JUMP JUMPDEST SWAP1 PUSH1 0x0 MSTORE PUSH1 0x20 PUSH1 0x0 KECCAK256 ADD SLOAD SWAP1 POP DUP2 PUSH1 0x1 PUSH2 0x1CEE SWAP2 SWAP1 PUSH2 0x389B JUMP JUMPDEST PUSH1 0x0 DUP7 DUP2 MSTORE PUSH1 0xD PUSH1 0x20 MSTORE PUSH1 0x40 DUP2 KECCAK256 PUSH1 0xE ADD SWAP2 SWAP1 SWAP2 SSTORE PUSH1 0x12 DUP1 SLOAD DUP4 SWAP3 SWAP1 PUSH2 0x1D15 SWAP1 DUP5 SWAP1 PUSH2 0x3911 JUMP JUMPDEST SWAP1 SWAP2 SSTORE POP POP PUSH1 0x0 DUP6 DUP2 MSTORE PUSH1 0xD PUSH1 0x20 MSTORE PUSH1 0x40 DUP2 KECCAK256 PUSH1 0x6 ADD DUP1 SLOAD DUP4 SWAP3 SWAP1 PUSH2 0x1D3B SWAP1 DUP5 SWAP1 PUSH2 0x389B JUMP JUMPDEST SWAP1 SWAP2 SSTORE POP PUSH2 0x1D4B SWAP1 POP DUP6 DUP4 PUSH2 0x2B4C JUMP JUMPDEST PUSH1 0x0 DUP6 DUP2 MSTORE PUSH1 0xD PUSH1 0x20 DUP2 DUP2 MSTORE PUSH1 0x40 DUP1 DUP5 KECCAK256 DUP7 DUP6 MSTORE PUSH1 0xF DUP2 ADD DUP4 MSTORE SWAP1 DUP5 KECCAK256 PUSH1 0x1 SWAP1 DUP2 ADD DUP1 SLOAD PUSH1 0xFF NOT AND DUP3 OR SWAP1 SSTORE SWAP4 DUP10 SWAP1 MSTORE SWAP2 SWAP1 MSTORE PUSH1 0x3 ADD SLOAD PUSH2 0x1D8C SWAP2 SWAP1 PUSH2 0x3911 JUMP JUMPDEST DUP3 EQ ISZERO PUSH2 0x1DD5 JUMPI PUSH1 0x0 DUP6 DUP2 MSTORE PUSH1 0xD PUSH1 0x20 DUP2 SWAP1 MSTORE PUSH1 0x40 DUP3 KECCAK256 ADD DUP1 SLOAD PUSH1 0xFF NOT AND SWAP1 SSTORE PUSH1 0x10 DUP1 SLOAD SWAP2 PUSH2 0x1DBA DUP4 PUSH2 0x3946 JUMP JUMPDEST SWAP1 SWAP2 SSTORE POP POP PUSH1 0x11 DUP1 SLOAD SWAP1 PUSH1 0x0 PUSH2 0x1DCF DUP4 PUSH2 0x3946 JUMP JUMPDEST SWAP2 SWAP1 POP SSTORE POP JUMPDEST PUSH1 0x40 MLOAD CALLER SWAP1 PUSH1 0x0 SWAP1 DUP3 SWAP1 DUP5 ISZERO PUSH2 0x8FC MUL SWAP1 DUP6 SWAP1 DUP5 DUP2 DUP2 DUP2 DUP6 DUP9 DUP9 CALL SWAP4 POP POP POP POP SWAP1 POP DUP1 PUSH2 0x1E44 JUMPI PUSH1 0x40 MLOAD PUSH3 0x461BCD PUSH1 0xE5 SHL DUP2 MSTORE PUSH1 0x20 PUSH1 0x4 DUP3 ADD DUP2 SWAP1 MSTORE PUSH1 0x24 DUP3 ADD MSTORE PUSH32 0x7061796D656E74206661696C65642C2074727920616761696E206C617465722E PUSH1 0x44 DUP3 ADD MSTORE PUSH1 0x64 ADD PUSH2 0x904 JUMP JUMPDEST POP POP POP POP POP POP POP JUMP JUMPDEST PUSH1 0x1 PUSH1 0x1 PUSH1 0xA0 SHL SUB SWAP2 DUP3 AND PUSH1 0x0 SWAP1 DUP2 MSTORE PUSH1 0x1 PUSH1 0x20 SWAP1 DUP2 MSTORE PUSH1 0x40 DUP1 DUP4 KECCAK256 SWAP4 SWAP1 SWAP5 AND DUP3 MSTORE SWAP2 SWAP1 SWAP2 MSTORE KECCAK256 SLOAD SWAP1 JUMP JUMPDEST CALLER PUSH1 0x0 SWAP1 DUP2 MSTORE PUSH1 0x5 PUSH1 0x20 MSTORE PUSH1 0x40 SWAP1 KECCAK256 SLOAD PUSH1 0xFF AND ISZERO ISZERO PUSH1 0x1 EQ ISZERO PUSH2 0x1EDD JUMPI PUSH1 0x40 MLOAD PUSH3 0x461BCD PUSH1 0xE5 SHL DUP2 MSTORE PUSH1 0x20 PUSH1 0x4 DUP3 ADD MSTORE PUSH1 0x1F PUSH1 0x24 DUP3 ADD MSTORE PUSH32 0x416C72656164792074616B656E207468652066617563657420746F6B656E2E00 PUSH1 0x44 DUP3 ADD MSTORE PUSH1 0x64 ADD PUSH2 0x904 JUMP JUMPDEST PUSH1 0x6 SLOAD PUSH1 0x2 SLOAD EQ ISZERO PUSH2 0x1F30 JUMPI PUSH1 0x40 MLOAD PUSH3 0x461BCD PUSH1 0xE5 SHL DUP2 MSTORE PUSH1 0x20 PUSH1 0x4 DUP3 ADD MSTORE PUSH1 0x1C PUSH1 0x24 DUP3 ADD MSTORE PUSH28 0x2A34329032B7321037B3103A3432903A37B5B2B71039BAB838363C97 PUSH1 0x21 SHL PUSH1 0x44 DUP3 ADD MSTORE PUSH1 0x64 ADD PUSH2 0x904 JUMP JUMPDEST CALLER PUSH1 0x0 DUP2 DUP2 MSTORE PUSH1 0x5 PUSH1 0x20 MSTORE PUSH1 0x40 SWAP1 KECCAK256 DUP1 SLOAD PUSH1 0xFF NOT AND PUSH1 0x1 OR SWAP1 SSTORE PUSH2 0x1F53 SWAP1 PUSH2 0x309A JUMP JUMPDEST PUSH2 0x1F5E CALLER PUSH1 0x1 PUSH2 0x30BE JUMP JUMPDEST PUSH1 0x8 DUP1 SLOAD SWAP1 PUSH1 0x0 PUSH2 0x1F6E DUP4 PUSH2 0x3990 JUMP JUMPDEST SWAP2 SWAP1 POP SSTORE POP JUMP JUMPDEST PUSH1 0x0 CALLER PUSH1 0x2 DUP1 PUSH2 0x1F84 DUP4 PUSH2 0xF53 JUMP JUMPDEST LT ISZERO PUSH2 0x1F8F JUMPI PUSH1 0x0 DUP1 REVERT JUMPDEST DUP1 PUSH2 0x1F99 DUP4 PUSH2 0xF53 JUMP JUMPDEST EQ ISZERO PUSH2 0x1FC2 JUMPI PUSH1 0x1 PUSH1 0x1 PUSH1 0xA0 SHL SUB DUP3 AND PUSH1 0x0 SWAP1 DUP2 MSTORE PUSH1 0x13 PUSH1 0x20 MSTORE PUSH1 0x40 SWAP1 KECCAK256 SLOAD ISZERO PUSH2 0x1FC2 JUMPI PUSH1 0x0 DUP1 REVERT JUMPDEST CALLVALUE PUSH7 0x8E1BC9BF040000 EQ PUSH2 0x1FE8 JUMPI PUSH1 0x40 MLOAD PUSH3 0x461BCD PUSH1 0xE5 SHL DUP2 MSTORE PUSH1 0x4 ADD PUSH2 0x904 SWAP1 PUSH2 0x381F JUMP JUMPDEST TIMESTAMP DUP7 GT PUSH2 0x202D JUMPI PUSH1 0x40 MLOAD PUSH3 0x461BCD PUSH1 0xE5 SHL DUP2 MSTORE PUSH1 0x20 PUSH1 0x4 DUP3 ADD MSTORE PUSH1 0x13 PUSH1 0x24 DUP3 ADD MSTORE PUSH19 0x646561646C696E65206E6F742076616C696421 PUSH1 0x68 SHL PUSH1 0x44 DUP3 ADD MSTORE PUSH1 0x64 ADD PUSH2 0x904 JUMP JUMPDEST DUP5 DUP5 GT ISZERO PUSH2 0x2073 JUMPI PUSH1 0x40 MLOAD PUSH3 0x461BCD PUSH1 0xE5 SHL DUP2 MSTORE PUSH1 0x20 PUSH1 0x4 DUP3 ADD MSTORE PUSH1 0x13 PUSH1 0x24 DUP3 ADD MSTORE PUSH19 0x696E76616C696420706172616D657465727321 PUSH1 0x68 SHL PUSH1 0x44 DUP3 ADD MSTORE PUSH1 0x64 ADD PUSH2 0x904 JUMP JUMPDEST PUSH2 0x207E CALLER PUSH1 0x2 PUSH2 0x28E5 JUMP JUMPDEST PUSH2 0x2087 CALLER PUSH2 0x286E JUMP JUMPDEST PUSH1 0xA SLOAD PUSH1 0x0 DUP2 DUP2 MSTORE PUSH1 0x9 PUSH1 0x20 SWAP1 DUP2 MSTORE PUSH1 0x40 SWAP1 SWAP2 KECCAK256 DUP3 DUP2 SSTORE DUP10 MLOAD SWAP3 SWAP6 POP SWAP2 PUSH2 0x20B6 SWAP2 PUSH1 0x1 DUP5 ADD SWAP2 SWAP1 DUP12 ADD SWAP1 PUSH2 0x31B6 JUMP JUMPDEST POP PUSH1 0x2 DUP2 ADD DUP8 SWAP1 SSTORE PUSH1 0x3 DUP2 ADD DUP7 SWAP1 SSTORE PUSH1 0x4 DUP2 ADD DUP6 SWAP1 SSTORE PUSH1 0x0 PUSH1 0x5 DUP3 ADD DUP2 SWAP1 SSTORE PUSH1 0x6 DUP3 ADD DUP1 SLOAD PUSH1 0x1 PUSH1 0x1 PUSH1 0xA0 SHL SUB NOT AND CALLER OR SWAP1 SSTORE JUMPDEST DUP7 DUP2 LT ISZERO PUSH2 0x211B JUMPI PUSH1 0x9 DUP3 ADD DUP1 SLOAD PUSH1 0x1 DUP2 ADD DUP3 SSTORE PUSH1 0x0 SWAP2 DUP3 MSTORE PUSH1 0x20 DUP3 KECCAK256 ADD SSTORE DUP1 PUSH2 0x2113 DUP2 PUSH2 0x3990 JUMP JUMPDEST SWAP2 POP POP PUSH2 0x20EA JUMP JUMPDEST POP PUSH1 0xA DUP1 SLOAD SWAP1 PUSH1 0x0 PUSH2 0x212C DUP4 PUSH2 0x3990 JUMP JUMPDEST SWAP1 SWAP2 SSTORE POP POP PUSH1 0xB DUP1 SLOAD SWAP1 PUSH1 0x0 PUSH2 0x2141 DUP4 PUSH2 0x3990 JUMP JUMPDEST SWAP2 SWAP1 POP SSTORE POP POP POP POP SWAP5 SWAP4 POP POP POP POP JUMP JUMPDEST CALLER PUSH2 0x215B DUP2 PUSH2 0x12B2 JUMP JUMPDEST PUSH2 0x2177 JUMPI PUSH1 0x40 MLOAD PUSH3 0x461BCD PUSH1 0xE5 SHL DUP2 MSTORE PUSH1 0x4 ADD PUSH2 0x904 SWAP1 PUSH2 0x3737 JUMP JUMPDEST PUSH1 0x0 DUP4 DUP2 MSTORE PUSH1 0xD PUSH1 0x20 MSTORE PUSH1 0x40 SWAP1 KECCAK256 PUSH1 0x2 ADD SLOAD TIMESTAMP DUP2 GT PUSH2 0x21A8 JUMPI PUSH1 0x40 MLOAD PUSH3 0x461BCD PUSH1 0xE5 SHL DUP2 MSTORE PUSH1 0x4 ADD PUSH2 0x904 SWAP1 PUSH2 0x37F6 JUMP JUMPDEST PUSH1 0x0 DUP5 DUP2 MSTORE PUSH1 0xD PUSH1 0x20 SWAP1 DUP2 MSTORE PUSH1 0x40 DUP1 DUP4 KECCAK256 CALLER DUP1 DUP6 MSTORE PUSH1 0xA SWAP1 SWAP2 ADD SWAP1 SWAP3 MSTORE SWAP1 SWAP2 KECCAK256 SLOAD DUP6 SWAP1 PUSH1 0x1 DUP2 SLT PUSH2 0x2216 JUMPI PUSH1 0x40 MLOAD PUSH3 0x461BCD PUSH1 0xE5 SHL DUP2 MSTORE PUSH1 0x20 PUSH1 0x4 DUP3 ADD MSTORE PUSH1 0x18 PUSH1 0x24 DUP3 ADD MSTORE PUSH24 0x616C726561647920766F7465642F64656C65676174656421 PUSH1 0x40 SHL PUSH1 0x44 DUP3 ADD MSTORE PUSH1 0x64 ADD PUSH2 0x904 JUMP JUMPDEST PUSH1 0x0 DUP8 DUP2 MSTORE PUSH1 0xD PUSH1 0x20 SWAP1 DUP2 MSTORE PUSH1 0x40 DUP1 DUP4 KECCAK256 CALLER DUP5 MSTORE PUSH1 0xA ADD SWAP1 SWAP2 MSTORE DUP2 KECCAK256 SLOAD PUSH2 0x223E SWAP1 PUSH1 0x1 PUSH2 0x3911 JUMP JUMPDEST PUSH1 0x0 DUP10 DUP2 MSTORE PUSH1 0xD PUSH1 0x20 SWAP1 DUP2 MSTORE PUSH1 0x40 DUP1 DUP4 KECCAK256 CALLER DUP5 MSTORE PUSH1 0xA ADD SWAP1 SWAP2 MSTORE SWAP1 KECCAK256 PUSH1 0x1 SWAP1 SSTORE SWAP1 POP DUP7 ISZERO PUSH2 0x22BC JUMPI PUSH1 0x0 DUP9 DUP2 MSTORE PUSH1 0xD PUSH1 0x20 SWAP1 DUP2 MSTORE PUSH1 0x40 DUP3 KECCAK256 PUSH1 0xB DUP2 ADD DUP1 SLOAD PUSH1 0x1 DUP2 ADD DUP3 SSTORE SWAP1 DUP5 MSTORE SWAP2 DUP4 KECCAK256 SWAP1 SWAP2 ADD DUP1 SLOAD PUSH1 0x1 PUSH1 0x1 PUSH1 0xA0 SHL SUB NOT AND CALLER OR SWAP1 SSTORE DUP10 DUP3 MSTORE PUSH1 0x8 ADD DUP1 SLOAD DUP4 SWAP3 SWAP1 PUSH2 0x22B1 SWAP1 DUP5 SWAP1 PUSH2 0x389B JUMP JUMPDEST SWAP1 SWAP2 SSTORE POP PUSH2 0x22EE SWAP1 POP JUMP JUMPDEST PUSH1 0x0 DUP9 DUP2 MSTORE PUSH1 0xD PUSH1 0x20 SWAP1 DUP2 MSTORE PUSH1 0x40 DUP3 KECCAK256 PUSH1 0xC ADD DUP1 SLOAD PUSH1 0x1 DUP2 ADD DUP3 SSTORE SWAP1 DUP4 MSTORE SWAP2 KECCAK256 ADD DUP1 SLOAD PUSH1 0x1 PUSH1 0x1 PUSH1 0xA0 SHL SUB NOT AND CALLER OR SWAP1 SSTORE JUMPDEST CALLER PUSH1 0x0 SWAP1 DUP2 MSTORE PUSH1 0x13 PUSH1 0x20 MSTORE PUSH1 0x40 DUP2 KECCAK256 DUP1 SLOAD SWAP2 PUSH2 0x2309 DUP4 PUSH2 0x3990 JUMP JUMPDEST SWAP2 SWAP1 POP SSTORE POP PUSH1 0x0 JUMPDEST PUSH1 0x0 DUP10 DUP2 MSTORE PUSH1 0xD PUSH1 0x20 SWAP1 DUP2 MSTORE PUSH1 0x40 DUP1 DUP4 KECCAK256 CALLER DUP5 MSTORE PUSH1 0x10 ADD SWAP1 SWAP2 MSTORE SWAP1 KECCAK256 SLOAD DUP2 LT ISZERO PUSH2 0x23AF JUMPI PUSH1 0x0 DUP10 DUP2 MSTORE PUSH1 0xD PUSH1 0x20 SWAP1 DUP2 MSTORE PUSH1 0x40 DUP1 DUP4 KECCAK256 CALLER DUP5 MSTORE PUSH1 0x10 ADD SWAP1 SWAP2 MSTORE DUP2 KECCAK256 DUP1 SLOAD DUP4 SWAP1 DUP2 LT PUSH2 0x2363 JUMPI PUSH2 0x2363 PUSH2 0x39C1 JUMP JUMPDEST PUSH1 0x0 SWAP2 DUP3 MSTORE PUSH1 0x20 DUP1 DUP4 KECCAK256 SWAP1 SWAP2 ADD SLOAD PUSH1 0x1 PUSH1 0x1 PUSH1 0xA0 SHL SUB AND DUP1 DUP4 MSTORE PUSH1 0x13 SWAP1 SWAP2 MSTORE PUSH1 0x40 DUP3 KECCAK256 DUP1 SLOAD SWAP2 SWAP4 POP SWAP1 SWAP2 PUSH2 0x2396 DUP4 PUSH2 0x3990 JUMP JUMPDEST SWAP2 SWAP1 POP SSTORE POP POP DUP1 DUP1 PUSH2 0x23A7 SWAP1 PUSH2 0x3990 JUMP JUMPDEST SWAP2 POP POP PUSH2 0x2311 JUMP JUMPDEST POP POP POP POP POP POP POP POP POP JUMP JUMPDEST PUSH1 0x60 PUSH1 0x0 PUSH1 0x60 DUP1 PUSH1 0xD PUSH1 0x0 DUP7 DUP2 MSTORE PUSH1 0x20 ADD SWAP1 DUP2 MSTORE PUSH1 0x20 ADD PUSH1 0x0 KECCAK256 PUSH1 0x1 ADD DUP1 SLOAD PUSH2 0x23E2 SWAP1 PUSH2 0x3955 JUMP JUMPDEST DUP1 PUSH1 0x1F ADD PUSH1 0x20 DUP1 SWAP2 DIV MUL PUSH1 0x20 ADD PUSH1 0x40 MLOAD SWAP1 DUP2 ADD PUSH1 0x40 MSTORE DUP1 SWAP3 SWAP2 SWAP1 DUP2 DUP2 MSTORE PUSH1 0x20 ADD DUP3 DUP1 SLOAD PUSH2 0x240E SWAP1 PUSH2 0x3955 JUMP JUMPDEST DUP1 ISZERO PUSH2 0x245B JUMPI DUP1 PUSH1 0x1F LT PUSH2 0x2430 JUMPI PUSH2 0x100 DUP1 DUP4 SLOAD DIV MUL DUP4 MSTORE SWAP2 PUSH1 0x20 ADD SWAP2 PUSH2 0x245B JUMP JUMPDEST DUP3 ADD SWAP2 SWAP1 PUSH1 0x0 MSTORE PUSH1 0x20 PUSH1 0x0 KECCAK256 SWAP1 JUMPDEST DUP2 SLOAD DUP2 MSTORE SWAP1 PUSH1 0x1 ADD SWAP1 PUSH1 0x20 ADD DUP1 DUP4 GT PUSH2 0x243E JUMPI DUP3 SWAP1 SUB PUSH1 0x1F AND DUP3 ADD SWAP2 JUMPDEST POP POP POP PUSH1 0x0 DUP9 DUP2 MSTORE PUSH1 0xD PUSH1 0x20 SWAP1 DUP2 MSTORE PUSH1 0x40 SWAP2 DUP3 SWAP1 KECCAK256 PUSH1 0x2 DUP2 ADD SLOAD PUSH1 0x3 SWAP1 SWAP2 ADD DUP1 SLOAD DUP5 MLOAD DUP2 DUP6 MUL DUP2 ADD DUP6 ADD SWAP1 SWAP6 MSTORE DUP1 DUP6 MSTORE SWAP7 SWAP11 POP SWAP1 SWAP9 POP SWAP2 SWAP5 SWAP2 SWAP4 POP SWAP1 SWAP2 POP DUP4 ADD DUP3 DUP3 DUP1 ISZERO PUSH2 0x24C8 JUMPI PUSH1 0x20 MUL DUP3 ADD SWAP2 SWAP1 PUSH1 0x0 MSTORE PUSH1 0x20 PUSH1 0x0 KECCAK256 SWAP1 JUMPDEST DUP2 SLOAD DUP2 MSTORE PUSH1 0x20 ADD SWAP1 PUSH1 0x1 ADD SWAP1 DUP1 DUP4 GT PUSH2 0x24B4 JUMPI JUMPDEST POP POP POP POP POP SWAP2 POP PUSH1 0xD PUSH1 0x0 DUP7 DUP2 MSTORE PUSH1 0x20 ADD SWAP1 DUP2 MSTORE PUSH1 0x20 ADD PUSH1 0x0 KECCAK256 PUSH1 0x4 ADD DUP1 SLOAD DUP1 PUSH1 0x20 MUL PUSH1 0x20 ADD PUSH1 0x40 MLOAD SWAP1 DUP2 ADD PUSH1 0x40 MSTORE DUP1 SWAP3 SWAP2 SWAP1 DUP2 DUP2 MSTORE PUSH1 0x20 ADD DUP3 DUP1 SLOAD DUP1 ISZERO PUSH2 0x252F JUMPI PUSH1 0x20 MUL DUP3 ADD SWAP2 SWAP1 PUSH1 0x0 MSTORE PUSH1 0x20 PUSH1 0x0 KECCAK256 SWAP1 JUMPDEST DUP2 SLOAD DUP2 MSTORE PUSH1 0x20 ADD SWAP1 PUSH1 0x1 ADD SWAP1 DUP1 DUP4 GT PUSH2 0x251B JUMPI JUMPDEST POP POP POP POP POP SWAP1 POP SWAP2 SWAP4 POP SWAP2 SWAP4 JUMP JUMPDEST PUSH1 0x1 PUSH1 0x1 PUSH1 0xA0 SHL SUB DUP4 AND PUSH2 0x259F JUMPI PUSH1 0x40 MLOAD PUSH3 0x461BCD PUSH1 0xE5 SHL DUP2 MSTORE PUSH1 0x20 PUSH1 0x4 DUP3 ADD MSTORE PUSH1 0x24 DUP1 DUP3 ADD MSTORE PUSH32 0x45524332303A20617070726F76652066726F6D20746865207A65726F20616464 PUSH1 0x44 DUP3 ADD MSTORE PUSH4 0x72657373 PUSH1 0xE0 SHL PUSH1 0x64 DUP3 ADD MSTORE PUSH1 0x84 ADD PUSH2 0x904 JUMP JUMPDEST PUSH1 0x1 PUSH1 0x1 PUSH1 0xA0 SHL SUB DUP3 AND PUSH2 0x2600 JUMPI PUSH1 0x40 MLOAD PUSH3 0x461BCD PUSH1 0xE5 SHL DUP2 MSTORE PUSH1 0x20 PUSH1 0x4 DUP3 ADD MSTORE PUSH1 0x22 PUSH1 0x24 DUP3 ADD MSTORE PUSH32 0x45524332303A20617070726F766520746F20746865207A65726F206164647265 PUSH1 0x44 DUP3 ADD MSTORE PUSH2 0x7373 PUSH1 0xF0 SHL PUSH1 0x64 DUP3 ADD MSTORE PUSH1 0x84 ADD PUSH2 0x904 JUMP JUMPDEST PUSH1 0x1 PUSH1 0x1 PUSH1 0xA0 SHL SUB DUP4 DUP2 AND PUSH1 0x0 DUP2 DUP2 MSTORE PUSH1 0x1 PUSH1 0x20 SWAP1 DUP2 MSTORE PUSH1 0x40 DUP1 DUP4 KECCAK256 SWAP5 DUP8 AND DUP1 DUP5 MSTORE SWAP5 DUP3 MSTORE SWAP2 DUP3 SWAP1 KECCAK256 DUP6 SWAP1 SSTORE SWAP1 MLOAD DUP5 DUP2 MSTORE PUSH32 0x8C5BE1E5EBEC7D5BD14F71427D1E84F3DD0314C0F7B2291E5B200AC8C7C3B925 SWAP2 ADD JUMPDEST PUSH1 0x40 MLOAD DUP1 SWAP2 SUB SWAP1 LOG3 POP POP POP JUMP JUMPDEST PUSH1 0x0 PUSH2 0x266E DUP5 DUP5 PUSH2 0x1E4D JUMP JUMPDEST SWAP1 POP PUSH1 0x0 NOT DUP2 EQ PUSH2 0x26D6 JUMPI DUP2 DUP2 LT ISZERO PUSH2 0x26C9 JUMPI PUSH1 0x40 MLOAD PUSH3 0x461BCD PUSH1 0xE5 SHL DUP2 MSTORE PUSH1 0x20 PUSH1 0x4 DUP3 ADD MSTORE PUSH1 0x1D PUSH1 0x24 DUP3 ADD MSTORE PUSH32 0x45524332303A20696E73756666696369656E7420616C6C6F77616E6365000000 PUSH1 0x44 DUP3 ADD MSTORE PUSH1 0x64 ADD PUSH2 0x904 JUMP JUMPDEST PUSH2 0x26D6 DUP5 DUP5 DUP5 DUP5 SUB PUSH2 0x253D JUMP JUMPDEST POP POP POP POP JUMP JUMPDEST PUSH1 0x1 PUSH1 0x1 PUSH1 0xA0 SHL SUB DUP4 AND PUSH2 0x2740 JUMPI PUSH1 0x40 MLOAD PUSH3 0x461BCD PUSH1 0xE5 SHL DUP2 MSTORE PUSH1 0x20 PUSH1 0x4 DUP3 ADD MSTORE PUSH1 0x25 PUSH1 0x24 DUP3 ADD MSTORE PUSH32 0x45524332303A207472616E736665722066726F6D20746865207A65726F206164 PUSH1 0x44 DUP3 ADD MSTORE PUSH5 0x6472657373 PUSH1 0xD8 SHL PUSH1 0x64 DUP3 ADD MSTORE PUSH1 0x84 ADD PUSH2 0x904 JUMP JUMPDEST PUSH1 0x1 PUSH1 0x1 PUSH1 0xA0 SHL SUB DUP3 AND PUSH2 0x27A2 JUMPI PUSH1 0x40 MLOAD PUSH3 0x461BCD PUSH1 0xE5 SHL DUP2 MSTORE PUSH1 0x20 PUSH1 0x4 DUP3 ADD MSTORE PUSH1 0x23 PUSH1 0x24 DUP3 ADD MSTORE PUSH32 0x45524332303A207472616E7366657220746F20746865207A65726F2061646472 PUSH1 0x44 DUP3 ADD MSTORE PUSH3 0x657373 PUSH1 0xE8 SHL PUSH1 0x64 DUP3 ADD MSTORE PUSH1 0x84 ADD PUSH2 0x904 JUMP JUMPDEST PUSH1 0x1 PUSH1 0x1 PUSH1 0xA0 SHL SUB DUP4 AND PUSH1 0x0 SWAP1 DUP2 MSTORE PUSH1 0x20 DUP2 SWAP1 MSTORE PUSH1 0x40 SWAP1 KECCAK256 SLOAD DUP2 DUP2 LT ISZERO PUSH2 0x281A JUMPI PUSH1 0x40 MLOAD PUSH3 0x461BCD PUSH1 0xE5 SHL DUP2 MSTORE PUSH1 0x20 PUSH1 0x4 DUP3 ADD MSTORE PUSH1 0x26 PUSH1 0x24 DUP3 ADD MSTORE PUSH32 0x45524332303A207472616E7366657220616D6F756E7420657863656564732062 PUSH1 0x44 DUP3 ADD MSTORE PUSH6 0x616C616E6365 PUSH1 0xD0 SHL PUSH1 0x64 DUP3 ADD MSTORE PUSH1 0x84 ADD PUSH2 0x904 JUMP JUMPDEST PUSH1 0x1 PUSH1 0x1 PUSH1 0xA0 SHL SUB DUP5 DUP2 AND PUSH1 0x0 DUP2 DUP2 MSTORE PUSH1 0x20 DUP2 DUP2 MSTORE PUSH1 0x40 DUP1 DUP4 KECCAK256 DUP8 DUP8 SUB SWAP1 SSTORE SWAP4 DUP8 AND DUP1 DUP4 MSTORE SWAP2 DUP5 SWAP1 KECCAK256 DUP1 SLOAD DUP8 ADD SWAP1 SSTORE SWAP3 MLOAD DUP6 DUP2 MSTORE SWAP1 SWAP3 PUSH1 0x0 DUP1 MLOAD PUSH1 0x20 PUSH2 0x39EE DUP4 CODECOPY DUP2 MLOAD SWAP2 MSTORE SWAP2 ADD PUSH1 0x40 MLOAD DUP1 SWAP2 SUB SWAP1 LOG3 PUSH2 0x26D6 JUMP JUMPDEST PUSH2 0x2877 DUP2 PUSH2 0xF53 JUMP JUMPDEST PUSH2 0x28A9 JUMPI PUSH1 0x1 PUSH1 0x1 PUSH1 0xA0 SHL SUB DUP2 AND PUSH1 0x0 SWAP1 DUP2 MSTORE PUSH1 0x7 PUSH1 0x20 MSTORE PUSH1 0x40 DUP2 KECCAK256 DUP1 SLOAD PUSH1 0xFF NOT AND SWAP1 SSTORE PUSH1 0x8 DUP1 SLOAD SWAP2 PUSH2 0x1AB8 DUP4 PUSH2 0x3946 JUMP JUMPDEST PUSH1 0x0 PUSH2 0x28B4 DUP3 PUSH2 0xF53 JUMP JUMPDEST GT DUP1 ISZERO PUSH2 0x28C7 JUMPI POP PUSH2 0x28C5 DUP2 PUSH2 0x12B2 JUMP JUMPDEST ISZERO JUMPDEST ISZERO PUSH2 0x917 JUMPI PUSH2 0x28D5 DUP2 PUSH2 0x309A JUMP JUMPDEST PUSH1 0x8 DUP1 SLOAD SWAP1 PUSH1 0x0 PUSH2 0x1AB8 DUP4 PUSH2 0x3990 JUMP JUMPDEST PUSH1 0x1 PUSH1 0x1 PUSH1 0xA0 SHL SUB DUP3 AND PUSH2 0x2945 JUMPI PUSH1 0x40 MLOAD PUSH3 0x461BCD PUSH1 0xE5 SHL DUP2 MSTORE PUSH1 0x20 PUSH1 0x4 DUP3 ADD MSTORE PUSH1 0x21 PUSH1 0x24 DUP3 ADD MSTORE PUSH32 0x45524332303A206275726E2066726F6D20746865207A65726F20616464726573 PUSH1 0x44 DUP3 ADD MSTORE PUSH1 0x73 PUSH1 0xF8 SHL PUSH1 0x64 DUP3 ADD MSTORE PUSH1 0x84 ADD PUSH2 0x904 JUMP JUMPDEST PUSH1 0x1 PUSH1 0x1 PUSH1 0xA0 SHL SUB DUP3 AND PUSH1 0x0 SWAP1 DUP2 MSTORE PUSH1 0x20 DUP2 SWAP1 MSTORE PUSH1 0x40 SWAP1 KECCAK256 SLOAD DUP2 DUP2 LT ISZERO PUSH2 0x29B9 JUMPI PUSH1 0x40 MLOAD PUSH3 0x461BCD PUSH1 0xE5 SHL DUP2 MSTORE PUSH1 0x20 PUSH1 0x4 DUP3 ADD MSTORE PUSH1 0x22 PUSH1 0x24 DUP3 ADD MSTORE PUSH32 0x45524332303A206275726E20616D6F756E7420657863656564732062616C616E PUSH1 0x44 DUP3 ADD MSTORE PUSH2 0x6365 PUSH1 0xF0 SHL PUSH1 0x64 DUP3 ADD MSTORE PUSH1 0x84 ADD PUSH2 0x904 JUMP JUMPDEST PUSH1 0x1 PUSH1 0x1 PUSH1 0xA0 SHL SUB DUP4 AND PUSH1 0x0 DUP2 DUP2 MSTORE PUSH1 0x20 DUP2 DUP2 MSTORE PUSH1 0x40 DUP1 DUP4 KECCAK256 DUP7 DUP7 SUB SWAP1 SSTORE PUSH1 0x2 DUP1 SLOAD DUP8 SWAP1 SUB SWAP1 SSTORE MLOAD DUP6 DUP2 MSTORE SWAP2 SWAP3 SWAP2 PUSH1 0x0 DUP1 MLOAD PUSH1 0x20 PUSH2 0x39EE DUP4 CODECOPY DUP2 MLOAD SWAP2 MSTORE SWAP2 ADD PUSH2 0x2655 JUMP JUMPDEST POP POP POP JUMP JUMPDEST PUSH1 0x0 DUP1 JUMPDEST PUSH1 0x0 DUP4 DUP2 MSTORE PUSH1 0x9 PUSH1 0x20 MSTORE PUSH1 0x40 SWAP1 KECCAK256 PUSH1 0x5 ADD SLOAD DUP2 LT ISZERO PUSH2 0x2A8B JUMPI PUSH1 0x0 DUP4 DUP2 MSTORE PUSH1 0xC PUSH1 0x20 MSTORE PUSH1 0x40 DUP2 KECCAK256 DUP1 SLOAD DUP4 SWAP1 DUP2 LT PUSH2 0x2A3F JUMPI PUSH2 0x2A3F PUSH2 0x39C1 JUMP JUMPDEST PUSH1 0x0 SWAP2 DUP3 MSTORE PUSH1 0x20 DUP1 DUP4 KECCAK256 SWAP1 SWAP2 ADD SLOAD PUSH1 0x1 PUSH1 0x1 PUSH1 0xA0 SHL SUB AND DUP1 DUP4 MSTORE PUSH1 0x13 SWAP1 SWAP2 MSTORE PUSH1 0x40 DUP3 KECCAK256 DUP1 SLOAD SWAP2 SWAP4 POP SWAP1 SWAP2 PUSH2 0x2A72 DUP4 PUSH2 0x3946 JUMP JUMPDEST SWAP2 SWAP1 POP SSTORE POP DUP2 DUP1 PUSH2 0x2A82 SWAP1 PUSH2 0x3990 JUMP JUMPDEST SWAP3 POP POP POP PUSH2 0x2A06 JUMP JUMPDEST SWAP3 SWAP2 POP POP JUMP JUMPDEST PUSH1 0x8 SLOAD PUSH1 0x0 DUP4 DUP2 MSTORE PUSH1 0xD PUSH1 0x20 SWAP1 DUP2 MSTORE PUSH1 0x40 DUP1 DUP4 KECCAK256 DUP6 DUP5 MSTORE PUSH1 0xF ADD SWAP1 SWAP2 MSTORE DUP2 KECCAK256 PUSH1 0x4 ADD SLOAD SWAP1 SWAP2 SWAP1 PUSH2 0x2AC2 SWAP1 PUSH1 0x64 PUSH2 0x38B3 JUMP JUMPDEST LT ISZERO SWAP4 SWAP3 POP POP POP JUMP JUMPDEST PUSH1 0x0 DUP2 DUP2 MSTORE PUSH1 0xD PUSH1 0x20 MSTORE PUSH1 0x40 DUP2 KECCAK256 PUSH1 0x6 DUP2 ADD SLOAD PUSH1 0x5 SWAP1 SWAP2 ADD SLOAD PUSH2 0x2AEE SWAP2 SWAP1 PUSH2 0x3911 JUMP JUMPDEST SWAP1 POP DUP1 PUSH1 0x12 PUSH1 0x0 DUP3 DUP3 SLOAD PUSH2 0x2B02 SWAP2 SWAP1 PUSH2 0x3911 JUMP JUMPDEST SWAP1 SWAP2 SSTORE POP POP PUSH1 0x0 DUP3 DUP2 MSTORE PUSH1 0xD PUSH1 0x20 DUP2 SWAP1 MSTORE PUSH1 0x40 DUP3 KECCAK256 ADD DUP1 SLOAD PUSH1 0xFF NOT AND SWAP1 SSTORE PUSH1 0x10 DUP1 SLOAD SWAP2 PUSH2 0x2B2E DUP4 PUSH2 0x3946 JUMP JUMPDEST SWAP1 SWAP2 SSTORE POP POP PUSH1 0x11 DUP1 SLOAD SWAP1 PUSH1 0x0 PUSH2 0x2B43 DUP4 PUSH2 0x3946 JUMP JUMPDEST SWAP2 SWAP1 POP SSTORE POP POP POP JUMP JUMPDEST PUSH1 0x0 JUMPDEST PUSH1 0x0 DUP4 DUP2 MSTORE PUSH1 0xD PUSH1 0x20 SWAP1 DUP2 MSTORE PUSH1 0x40 DUP1 DUP4 KECCAK256 DUP6 DUP5 MSTORE PUSH1 0xF ADD SWAP1 SWAP2 MSTORE SWAP1 KECCAK256 PUSH1 0x2 ADD SLOAD DUP2 LT ISZERO PUSH2 0x2CAC JUMPI PUSH1 0x0 DUP4 DUP2 MSTORE PUSH1 0xD PUSH1 0x20 SWAP1 DUP2 MSTORE PUSH1 0x40 DUP1 DUP4 KECCAK256 DUP6 DUP5 MSTORE PUSH1 0xF ADD SWAP1 SWAP2 MSTORE DUP2 KECCAK256 PUSH1 0x2 ADD DUP1 SLOAD DUP4 SWAP1 DUP2 LT PUSH2 0x2BA7 JUMPI PUSH2 0x2BA7 PUSH2 0x39C1 JUMP JUMPDEST PUSH1 0x0 SWAP2 DUP3 MSTORE PUSH1 0x20 DUP3 KECCAK256 ADD SLOAD PUSH1 0x1 PUSH1 0x1 PUSH1 0xA0 SHL SUB AND SWAP2 POP JUMPDEST PUSH1 0x0 DUP6 DUP2 MSTORE PUSH1 0xD PUSH1 0x20 SWAP1 DUP2 MSTORE PUSH1 0x40 DUP1 DUP4 KECCAK256 PUSH1 0x1 PUSH1 0x1 PUSH1 0xA0 SHL SUB DUP7 AND DUP5 MSTORE PUSH1 0x10 ADD SWAP1 SWAP2 MSTORE SWAP1 KECCAK256 SLOAD DUP2 LT ISZERO PUSH2 0x2C6E JUMPI PUSH1 0x0 DUP6 DUP2 MSTORE PUSH1 0xD PUSH1 0x20 SWAP1 DUP2 MSTORE PUSH1 0x40 DUP1 DUP4 KECCAK256 PUSH1 0x1 PUSH1 0x1 PUSH1 0xA0 SHL SUB DUP7 AND DUP5 MSTORE PUSH1 0x10 ADD SWAP1 SWAP2 MSTORE DUP2 KECCAK256 DUP1 SLOAD DUP4 SWAP1 DUP2 LT PUSH2 0x2C22 JUMPI PUSH2 0x2C22 PUSH2 0x39C1 JUMP JUMPDEST PUSH1 0x0 SWAP2 DUP3 MSTORE PUSH1 0x20 DUP1 DUP4 KECCAK256 SWAP1 SWAP2 ADD SLOAD PUSH1 0x1 PUSH1 0x1 PUSH1 0xA0 SHL SUB AND DUP1 DUP4 MSTORE PUSH1 0x13 SWAP1 SWAP2 MSTORE PUSH1 0x40 DUP3 KECCAK256 DUP1 SLOAD SWAP2 SWAP4 POP SWAP1 SWAP2 PUSH2 0x2C55 DUP4 PUSH2 0x3946 JUMP JUMPDEST SWAP2 SWAP1 POP SSTORE POP POP DUP1 DUP1 PUSH2 0x2C66 SWAP1 PUSH2 0x3990 JUMP JUMPDEST SWAP2 POP POP PUSH2 0x2BBE JUMP JUMPDEST POP PUSH1 0x1 PUSH1 0x1 PUSH1 0xA0 SHL SUB DUP2 AND PUSH1 0x0 SWAP1 DUP2 MSTORE PUSH1 0x13 PUSH1 0x20 MSTORE PUSH1 0x40 DUP2 KECCAK256 DUP1 SLOAD SWAP2 PUSH2 0x2C93 DUP4 PUSH2 0x3946 JUMP JUMPDEST SWAP2 SWAP1 POP SSTORE POP DUP2 DUP1 PUSH2 0x2CA3 SWAP1 PUSH2 0x3990 JUMP JUMPDEST SWAP3 POP POP POP PUSH2 0x2B4F JUMP JUMPDEST POP PUSH1 0x0 JUMPDEST PUSH1 0x0 DUP4 DUP2 MSTORE PUSH1 0xD PUSH1 0x20 SWAP1 DUP2 MSTORE PUSH1 0x40 DUP1 DUP4 KECCAK256 DUP6 DUP5 MSTORE PUSH1 0xF ADD SWAP1 SWAP2 MSTORE SWAP1 KECCAK256 PUSH1 0x3 ADD SLOAD DUP2 LT ISZERO PUSH2 0x29FD JUMPI PUSH1 0x0 DUP4 DUP2 MSTORE PUSH1 0xD PUSH1 0x20 SWAP1 DUP2 MSTORE PUSH1 0x40 DUP1 DUP4 KECCAK256 DUP6 DUP5 MSTORE PUSH1 0xF ADD SWAP1 SWAP2 MSTORE DUP2 KECCAK256 PUSH1 0x3 ADD DUP1 SLOAD DUP4 SWAP1 DUP2 LT PUSH2 0x2D08 JUMPI PUSH2 0x2D08 PUSH2 0x39C1 JUMP JUMPDEST PUSH1 0x0 SWAP2 DUP3 MSTORE PUSH1 0x20 DUP3 KECCAK256 ADD SLOAD PUSH1 0x1 PUSH1 0x1 PUSH1 0xA0 SHL SUB AND SWAP2 POP JUMPDEST PUSH1 0x0 DUP6 DUP2 MSTORE PUSH1 0xD PUSH1 0x20 SWAP1 DUP2 MSTORE PUSH1 0x40 DUP1 DUP4 KECCAK256 PUSH1 0x1 PUSH1 0x1 PUSH1 0xA0 SHL SUB DUP7 AND DUP5 MSTORE PUSH1 0x10 ADD SWAP1 SWAP2 MSTORE SWAP1 KECCAK256 SLOAD DUP2 LT ISZERO PUSH2 0x2DCF JUMPI PUSH1 0x0 DUP6 DUP2 MSTORE PUSH1 0xD PUSH1 0x20 SWAP1 DUP2 MSTORE PUSH1 0x40 DUP1 DUP4 KECCAK256 PUSH1 0x1 PUSH1 0x1 PUSH1 0xA0 SHL SUB DUP7 AND DUP5 MSTORE PUSH1 0x10 ADD SWAP1 SWAP2 MSTORE DUP2 KECCAK256 DUP1 SLOAD DUP4 SWAP1 DUP2 LT PUSH2 0x2D83 JUMPI PUSH2 0x2D83 PUSH2 0x39C1 JUMP JUMPDEST PUSH1 0x0 SWAP2 DUP3 MSTORE PUSH1 0x20 DUP1 DUP4 KECCAK256 SWAP1 SWAP2 ADD SLOAD PUSH1 0x1 PUSH1 0x1 PUSH1 0xA0 SHL SUB AND DUP1 DUP4 MSTORE PUSH1 0x13 SWAP1 SWAP2 MSTORE PUSH1 0x40 DUP3 KECCAK256 DUP1 SLOAD SWAP2 SWAP4 POP SWAP1 SWAP2 PUSH2 0x2DB6 DUP4 PUSH2 0x3946 JUMP JUMPDEST SWAP2 SWAP1 POP SSTORE POP POP DUP1 DUP1 PUSH2 0x2DC7 SWAP1 PUSH2 0x3990 JUMP JUMPDEST SWAP2 POP POP PUSH2 0x2D1F JUMP JUMPDEST POP PUSH1 0x1 PUSH1 0x1 PUSH1 0xA0 SHL SUB DUP2 AND PUSH1 0x0 SWAP1 DUP2 MSTORE PUSH1 0x13 PUSH1 0x20 MSTORE PUSH1 0x40 DUP2 KECCAK256 DUP1 SLOAD SWAP2 PUSH2 0x2DF4 DUP4 PUSH2 0x3946 JUMP JUMPDEST SWAP2 SWAP1 POP SSTORE POP DUP2 DUP1 PUSH2 0x2E04 SWAP1 PUSH2 0x3990 JUMP JUMPDEST SWAP3 POP POP POP PUSH2 0x2CB0 JUMP JUMPDEST PUSH1 0x0 JUMPDEST PUSH1 0x0 DUP3 DUP2 MSTORE PUSH1 0xD PUSH1 0x20 MSTORE PUSH1 0x40 SWAP1 KECCAK256 PUSH1 0xB ADD SLOAD DUP2 LT ISZERO PUSH2 0x2F51 JUMPI PUSH1 0x0 DUP3 DUP2 MSTORE PUSH1 0xD PUSH1 0x20 MSTORE PUSH1 0x40 DUP2 KECCAK256 PUSH1 0xB ADD DUP1 SLOAD DUP4 SWAP1 DUP2 LT PUSH2 0x2E4C JUMPI PUSH2 0x2E4C PUSH2 0x39C1 JUMP JUMPDEST PUSH1 0x0 SWAP2 DUP3 MSTORE PUSH1 0x20 DUP3 KECCAK256 ADD SLOAD PUSH1 0x1 PUSH1 0x1 PUSH1 0xA0 SHL SUB AND SWAP2 POP JUMPDEST PUSH1 0x0 DUP5 DUP2 MSTORE PUSH1 0xD PUSH1 0x20 SWAP1 DUP2 MSTORE PUSH1 0x40 DUP1 DUP4 KECCAK256 PUSH1 0x1 PUSH1 0x1 PUSH1 0xA0 SHL SUB DUP7 AND DUP5 MSTORE PUSH1 0x10 ADD SWAP1 SWAP2 MSTORE SWAP1 KECCAK256 SLOAD DUP2 LT ISZERO PUSH2 0x2F13 JUMPI PUSH1 0x0 DUP5 DUP2 MSTORE PUSH1 0xD PUSH1 0x20 SWAP1 DUP2 MSTORE PUSH1 0x40 DUP1 DUP4 KECCAK256 PUSH1 0x1 PUSH1 0x1 PUSH1 0xA0 SHL SUB DUP7 AND DUP5 MSTORE PUSH1 0x10 ADD SWAP1 SWAP2 MSTORE DUP2 KECCAK256 DUP1 SLOAD DUP4 SWAP1 DUP2 LT PUSH2 0x2EC7 JUMPI PUSH2 0x2EC7 PUSH2 0x39C1 JUMP JUMPDEST PUSH1 0x0 SWAP2 DUP3 MSTORE PUSH1 0x20 DUP1 DUP4 KECCAK256 SWAP1 SWAP2 ADD SLOAD PUSH1 0x1 PUSH1 0x1 PUSH1 0xA0 SHL SUB AND DUP1 DUP4 MSTORE PUSH1 0x13 SWAP1 SWAP2 MSTORE PUSH1 0x40 DUP3 KECCAK256 DUP1 SLOAD SWAP2 SWAP4 POP SWAP1 SWAP2 PUSH2 0x2EFA DUP4 PUSH2 0x3946 JUMP JUMPDEST SWAP2 SWAP1 POP SSTORE POP POP DUP1 DUP1 PUSH2 0x2F0B SWAP1 PUSH2 0x3990 JUMP JUMPDEST SWAP2 POP POP PUSH2 0x2E63 JUMP JUMPDEST POP PUSH1 0x1 PUSH1 0x1 PUSH1 0xA0 SHL SUB DUP2 AND PUSH1 0x0 SWAP1 DUP2 MSTORE PUSH1 0x13 PUSH1 0x20 MSTORE PUSH1 0x40 DUP2 KECCAK256 DUP1 SLOAD SWAP2 PUSH2 0x2F38 DUP4 PUSH2 0x3946 JUMP JUMPDEST SWAP2 SWAP1 POP SSTORE POP DUP2 DUP1 PUSH2 0x2F48 SWAP1 PUSH2 0x3990 JUMP JUMPDEST SWAP3 POP POP POP PUSH2 0x2E10 JUMP JUMPDEST POP PUSH1 0x0 JUMPDEST PUSH1 0x0 DUP3 DUP2 MSTORE PUSH1 0xD PUSH1 0x20 MSTORE PUSH1 0x40 SWAP1 KECCAK256 PUSH1 0xC ADD SLOAD DUP2 LT ISZERO PUSH2 0x3096 JUMPI PUSH1 0x0 DUP3 DUP2 MSTORE PUSH1 0xD PUSH1 0x20 MSTORE PUSH1 0x40 DUP2 KECCAK256 PUSH1 0xC ADD DUP1 SLOAD DUP4 SWAP1 DUP2 LT PUSH2 0x2F91 JUMPI PUSH2 0x2F91 PUSH2 0x39C1 JUMP JUMPDEST PUSH1 0x0 SWAP2 DUP3 MSTORE PUSH1 0x20 DUP3 KECCAK256 ADD SLOAD PUSH1 0x1 PUSH1 0x1 PUSH1 0xA0 SHL SUB AND SWAP2 POP JUMPDEST PUSH1 0x0 DUP5 DUP2 MSTORE PUSH1 0xD PUSH1 0x20 SWAP1 DUP2 MSTORE PUSH1 0x40 DUP1 DUP4 KECCAK256 PUSH1 0x1 PUSH1 0x1 PUSH1 0xA0 SHL SUB DUP7 AND DUP5 MSTORE PUSH1 0x10 ADD SWAP1 SWAP2 MSTORE SWAP1 KECCAK256 SLOAD DUP2 LT ISZERO PUSH2 0x3058 JUMPI PUSH1 0x0 DUP5 DUP2 MSTORE PUSH1 0xD PUSH1 0x20 SWAP1 DUP2 MSTORE PUSH1 0x40 DUP1 DUP4 KECCAK256 PUSH1 0x1 PUSH1 0x1 PUSH1 0xA0 SHL SUB DUP7 AND DUP5 MSTORE PUSH1 0x10 ADD SWAP1 SWAP2 MSTORE DUP2 KECCAK256 DUP1 SLOAD DUP4 SWAP1 DUP2 LT PUSH2 0x300C JUMPI PUSH2 0x300C PUSH2 0x39C1 JUMP JUMPDEST PUSH1 0x0 SWAP2 DUP3 MSTORE PUSH1 0x20 DUP1 DUP4 KECCAK256 SWAP1 SWAP2 ADD SLOAD PUSH1 0x1 PUSH1 0x1 PUSH1 0xA0 SHL SUB AND DUP1 DUP4 MSTORE PUSH1 0x13 SWAP1 SWAP2 MSTORE PUSH1 0x40 DUP3 KECCAK256 DUP1 SLOAD SWAP2 SWAP4 POP SWAP1 SWAP2 PUSH2 0x303F DUP4 PUSH2 0x3946 JUMP JUMPDEST SWAP2 SWAP1 POP SSTORE POP POP DUP1 DUP1 PUSH2 0x3050 SWAP1 PUSH2 0x3990 JUMP JUMPDEST SWAP2 POP POP PUSH2 0x2FA8 JUMP JUMPDEST POP PUSH1 0x1 PUSH1 0x1 PUSH1 0xA0 SHL SUB DUP2 AND PUSH1 0x0 SWAP1 DUP2 MSTORE PUSH1 0x13 PUSH1 0x20 MSTORE PUSH1 0x40 DUP2 KECCAK256 DUP1 SLOAD SWAP2 PUSH2 0x307D DUP4 PUSH2 0x3946 JUMP JUMPDEST SWAP2 SWAP1 POP SSTORE POP DUP2 DUP1 PUSH2 0x308D SWAP1 PUSH2 0x3990 JUMP JUMPDEST SWAP3 POP POP POP PUSH2 0x2F55 JUMP JUMPDEST POP POP JUMP JUMPDEST PUSH1 0x1 PUSH1 0x1 PUSH1 0xA0 SHL SUB AND PUSH1 0x0 SWAP1 DUP2 MSTORE PUSH1 0x7 PUSH1 0x20 MSTORE PUSH1 0x40 SWAP1 KECCAK256 DUP1 SLOAD PUSH1 0xFF NOT AND PUSH1 0x1 OR SWAP1 SSTORE JUMP JUMPDEST PUSH1 0x1 PUSH1 0x1 PUSH1 0xA0 SHL SUB DUP3 AND PUSH2 0x3114 JUMPI PUSH1 0x40 MLOAD PUSH3 0x461BCD PUSH1 0xE5 SHL DUP2 MSTORE PUSH1 0x20 PUSH1 0x4 DUP3 ADD MSTORE PUSH1 0x1F PUSH1 0x24 DUP3 ADD MSTORE PUSH32 0x45524332303A206D696E7420746F20746865207A65726F206164647265737300 PUSH1 0x44 DUP3 ADD MSTORE PUSH1 0x64 ADD PUSH2 0x904 JUMP JUMPDEST DUP1 PUSH1 0x2 PUSH1 0x0 DUP3 DUP3 SLOAD PUSH2 0x3126 SWAP2 SWAP1 PUSH2 0x389B JUMP JUMPDEST SWAP1 SWAP2 SSTORE POP POP PUSH1 0x1 PUSH1 0x1 PUSH1 0xA0 SHL SUB DUP3 AND PUSH1 0x0 DUP2 DUP2 MSTORE PUSH1 0x20 DUP2 DUP2 MSTORE PUSH1 0x40 DUP1 DUP4 KECCAK256 DUP1 SLOAD DUP7 ADD SWAP1 SSTORE MLOAD DUP5 DUP2 MSTORE PUSH1 0x0 DUP1 MLOAD PUSH1 0x20 PUSH2 0x39EE DUP4 CODECOPY DUP2 MLOAD SWAP2 MSTORE SWAP2 ADD PUSH1 0x40 MLOAD DUP1 SWAP2 SUB SWAP1 LOG3 POP POP JUMP JUMPDEST DUP3 DUP1 SLOAD DUP3 DUP3 SSTORE SWAP1 PUSH1 0x0 MSTORE PUSH1 0x20 PUSH1 0x0 KECCAK256 SWAP1 DUP2 ADD SWAP3 DUP3 ISZERO PUSH2 0x31A6 JUMPI SWAP2 PUSH1 0x20 MUL DUP3 ADD JUMPDEST DUP3 DUP2 GT ISZERO PUSH2 0x31A6 JUMPI DUP3 CALLDATALOAD DUP3 SSTORE SWAP2 PUSH1 0x20 ADD SWAP2 SWAP1 PUSH1 0x1 ADD SWAP1 PUSH2 0x318B JUMP JUMPDEST POP PUSH2 0x31B2 SWAP3 SWAP2 POP PUSH2 0x3264 JUMP JUMPDEST POP SWAP1 JUMP JUMPDEST DUP3 DUP1 SLOAD PUSH2 0x31C2 SWAP1 PUSH2 0x3955 JUMP JUMPDEST SWAP1 PUSH1 0x0 MSTORE PUSH1 0x20 PUSH1 0x0 KECCAK256 SWAP1 PUSH1 0x1F ADD PUSH1 0x20 SWAP1 DIV DUP2 ADD SWAP3 DUP3 PUSH2 0x31E4 JUMPI PUSH1 0x0 DUP6 SSTORE PUSH2 0x31A6 JUMP JUMPDEST DUP3 PUSH1 0x1F LT PUSH2 0x31FD JUMPI DUP1 MLOAD PUSH1 0xFF NOT AND DUP4 DUP1 ADD OR DUP6 SSTORE PUSH2 0x31A6 JUMP JUMPDEST DUP3 DUP1 ADD PUSH1 0x1 ADD DUP6 SSTORE DUP3 ISZERO PUSH2 0x31A6 JUMPI SWAP2 DUP3 ADD JUMPDEST DUP3 DUP2 GT ISZERO PUSH2 0x31A6 JUMPI DUP3 MLOAD DUP3 SSTORE SWAP2 PUSH1 0x20 ADD SWAP2 SWAP1 PUSH1 0x1 ADD SWAP1 PUSH2 0x320F JUMP JUMPDEST DUP3 DUP1 SLOAD DUP3 DUP3 SSTORE SWAP1 PUSH1 0x0 MSTORE PUSH1 0x20 PUSH1 0x0 KECCAK256 SWAP1 DUP2 ADD SWAP3 DUP3 ISZERO PUSH2 0x31A6 JUMPI SWAP2 PUSH1 0x20 MUL DUP3 ADD DUP3 DUP2 GT ISZERO PUSH2 0x31A6 JUMPI DUP3 MLOAD DUP3 SSTORE SWAP2 PUSH1 0x20 ADD SWAP2 SWAP1 PUSH1 0x1 ADD SWAP1 PUSH2 0x320F JUMP JUMPDEST JUMPDEST DUP1 DUP3 GT ISZERO PUSH2 0x31B2 JUMPI PUSH1 0x0 DUP2 SSTORE PUSH1 0x1 ADD PUSH2 0x3265 JUMP JUMPDEST DUP1 CALLDATALOAD PUSH1 0x1 PUSH1 0x1 PUSH1 0xA0 SHL SUB DUP2 AND DUP2 EQ PUSH2 0x3290 JUMPI PUSH1 0x0 DUP1 REVERT JUMPDEST SWAP2 SWAP1 POP JUMP JUMPDEST PUSH1 0x0 DUP3 PUSH1 0x1F DUP4 ADD SLT PUSH2 0x32A6 JUMPI PUSH1 0x0 DUP1 REVERT JUMPDEST DUP2 CALLDATALOAD PUSH1 0x20 PUSH1 0x1 PUSH1 0x1 PUSH1 0x40 SHL SUB DUP3 GT ISZERO PUSH2 0x32C1 JUMPI PUSH2 0x32C1 PUSH2 0x39D7 JUMP JUMPDEST DUP2 PUSH1 0x5 SHL PUSH2 0x32D0 DUP3 DUP3 ADD PUSH2 0x386B JUMP JUMPDEST DUP4 DUP2 MSTORE DUP3 DUP2 ADD SWAP1 DUP7 DUP5 ADD DUP4 DUP9 ADD DUP6 ADD DUP10 LT ISZERO PUSH2 0x32EB JUMPI PUSH1 0x0 DUP1 REVERT JUMPDEST PUSH1 0x0 SWAP4 POP JUMPDEST DUP6 DUP5 LT ISZERO PUSH2 0x330E JUMPI DUP1 CALLDATALOAD DUP4 MSTORE PUSH1 0x1 SWAP4 SWAP1 SWAP4 ADD SWAP3 SWAP2 DUP5 ADD SWAP2 DUP5 ADD PUSH2 0x32F0 JUMP JUMPDEST POP SWAP8 SWAP7 POP POP POP POP POP POP POP JUMP JUMPDEST PUSH1 0x0 DUP3 PUSH1 0x1F DUP4 ADD SLT PUSH2 0x332B JUMPI PUSH1 0x0 DUP1 REVERT JUMPDEST DUP2 CALLDATALOAD PUSH1 0x1 PUSH1 0x1 PUSH1 0x40 SHL SUB DUP2 GT ISZERO PUSH2 0x3344 JUMPI PUSH2 0x3344 PUSH2 0x39D7 JUMP JUMPDEST PUSH2 0x3357 PUSH1 0x1F DUP3 ADD PUSH1 0x1F NOT AND PUSH1 0x20 ADD PUSH2 0x386B JUMP JUMPDEST DUP2 DUP2 MSTORE DUP5 PUSH1 0x20 DUP4 DUP7 ADD ADD GT ISZERO PUSH2 0x336C JUMPI PUSH1 0x0 DUP1 REVERT JUMPDEST DUP2 PUSH1 0x20 DUP6 ADD PUSH1 0x20 DUP4 ADD CALLDATACOPY PUSH1 0x0 SWAP2 DUP2 ADD PUSH1 0x20 ADD SWAP2 SWAP1 SWAP2 MSTORE SWAP4 SWAP3 POP POP POP JUMP JUMPDEST PUSH1 0x0 PUSH1 0x20 DUP3 DUP5 SUB SLT ISZERO PUSH2 0x339B JUMPI PUSH1 0x0 DUP1 REVERT JUMPDEST PUSH2 0x33A4 DUP3 PUSH2 0x3279 JUMP JUMPDEST SWAP4 SWAP3 POP POP POP JUMP JUMPDEST PUSH1 0x0 DUP1 PUSH1 0x40 DUP4 DUP6 SUB SLT ISZERO PUSH2 0x33BE JUMPI PUSH1 0x0 DUP1 REVERT JUMPDEST PUSH2 0x33C7 DUP4 PUSH2 0x3279 JUMP JUMPDEST SWAP2 POP PUSH2 0x33D5 PUSH1 0x20 DUP5 ADD PUSH2 0x3279 JUMP JUMPDEST SWAP1 POP SWAP3 POP SWAP3 SWAP1 POP JUMP JUMPDEST PUSH1 0x0 DUP1 PUSH1 0x0 PUSH1 0x60 DUP5 DUP7 SUB SLT ISZERO PUSH2 0x33F3 JUMPI PUSH1 0x0 DUP1 REVERT JUMPDEST PUSH2 0x33FC DUP5 PUSH2 0x3279 JUMP JUMPDEST SWAP3 POP PUSH2 0x340A PUSH1 0x20 DUP6 ADD PUSH2 0x3279 JUMP JUMPDEST SWAP2 POP PUSH1 0x40 DUP5 ADD CALLDATALOAD SWAP1 POP SWAP3 POP SWAP3 POP SWAP3 JUMP JUMPDEST PUSH1 0x0 DUP1 PUSH1 0x40 DUP4 DUP6 SUB SLT ISZERO PUSH2 0x342D JUMPI PUSH1 0x0 DUP1 REVERT JUMPDEST PUSH2 0x3436 DUP4 PUSH2 0x3279 JUMP JUMPDEST SWAP5 PUSH1 0x20 SWAP4 SWAP1 SWAP4 ADD CALLDATALOAD SWAP4 POP POP POP JUMP JUMPDEST PUSH1 0x0 DUP1 PUSH1 0x0 DUP1 PUSH1 0x80 DUP6 DUP8 SUB SLT ISZERO PUSH2 0x345A JUMPI PUSH1 0x0 DUP1 REVERT JUMPDEST DUP5 CALLDATALOAD PUSH1 0x1 PUSH1 0x1 PUSH1 0x40 SHL SUB DUP1 DUP3 GT ISZERO PUSH2 0x3471 JUMPI PUSH1 0x0 DUP1 REVERT JUMPDEST PUSH2 0x347D DUP9 DUP4 DUP10 ADD PUSH2 0x331A JUMP JUMPDEST SWAP6 POP PUSH1 0x20 DUP8 ADD CALLDATALOAD SWAP5 POP PUSH1 0x40 DUP8 ADD CALLDATALOAD SWAP2 POP DUP1 DUP3 GT ISZERO PUSH2 0x349A JUMPI PUSH1 0x0 DUP1 REVERT JUMPDEST PUSH2 0x34A6 DUP9 DUP4 DUP10 ADD PUSH2 0x3295 JUMP JUMPDEST SWAP4 POP PUSH1 0x60 DUP8 ADD CALLDATALOAD SWAP2 POP DUP1 DUP3 GT ISZERO PUSH2 0x34BC JUMPI PUSH1 0x0 DUP1 REVERT JUMPDEST POP PUSH2 0x34C9 DUP8 DUP3 DUP9 ADD PUSH2 0x3295 JUMP JUMPDEST SWAP2 POP POP SWAP3 SWAP6 SWAP2 SWAP5 POP SWAP3 POP JUMP JUMPDEST PUSH1 0x0 DUP1 PUSH1 0x0 DUP1 PUSH1 0x80 DUP6 DUP8 SUB SLT ISZERO PUSH2 0x34EB JUMPI PUSH1 0x0 DUP1 REVERT JUMPDEST DUP5 CALLDATALOAD PUSH1 0x1 PUSH1 0x1 PUSH1 0x40 SHL SUB DUP2 GT ISZERO PUSH2 0x3501 JUMPI PUSH1 0x0 DUP1 REVERT JUMPDEST PUSH2 0x350D DUP8 DUP3 DUP9 ADD PUSH2 0x331A JUMP JUMPDEST SWAP8 PUSH1 0x20 DUP8 ADD CALLDATALOAD SWAP8 POP PUSH1 0x40 DUP8 ADD CALLDATALOAD SWAP7 PUSH1 0x60 ADD CALLDATALOAD SWAP6 POP SWAP4 POP POP POP POP JUMP JUMPDEST PUSH1 0x0 PUSH1 0x20 DUP3 DUP5 SUB SLT ISZERO PUSH2 0x353A JUMPI PUSH1 0x0 DUP1 REVERT JUMPDEST POP CALLDATALOAD SWAP2 SWAP1 POP JUMP JUMPDEST PUSH1 0x0 DUP1 PUSH1 0x0 PUSH1 0x40 DUP5 DUP7 SUB SLT ISZERO PUSH2 0x3556 JUMPI PUSH1 0x0 DUP1 REVERT JUMPDEST DUP4 CALLDATALOAD SWAP3 POP PUSH1 0x20 DUP5 ADD CALLDATALOAD PUSH1 0x1 PUSH1 0x1 PUSH1 0x40 SHL SUB DUP1 DUP3 GT ISZERO PUSH2 0x3574 JUMPI PUSH1 0x0 DUP1 REVERT JUMPDEST DUP2 DUP7 ADD SWAP2 POP DUP7 PUSH1 0x1F DUP4 ADD SLT PUSH2 0x3588 JUMPI PUSH1 0x0 DUP1 REVERT JUMPDEST DUP2 CALLDATALOAD DUP2 DUP2 GT ISZERO PUSH2 0x3597 JUMPI PUSH1 0x0 DUP1 REVERT JUMPDEST DUP8 PUSH1 0x20 DUP3 PUSH1 0x5 SHL DUP6 ADD ADD GT ISZERO PUSH2 0x35AC JUMPI PUSH1 0x0 DUP1 REVERT JUMPDEST PUSH1 0x20 DUP4 ADD SWAP5 POP DUP1 SWAP4 POP POP POP POP SWAP3 POP SWAP3 POP SWAP3 JUMP JUMPDEST PUSH1 0x0 DUP1 PUSH1 0x40 DUP4 DUP6 SUB SLT ISZERO PUSH2 0x35D2 JUMPI PUSH1 0x0 DUP1 REVERT JUMPDEST DUP3 CALLDATALOAD SWAP2 POP PUSH1 0x20 DUP4 ADD CALLDATALOAD DUP1 ISZERO ISZERO DUP2 EQ PUSH2 0x35E9 JUMPI PUSH1 0x0 DUP1 REVERT JUMPDEST DUP1 SWAP2 POP POP SWAP3 POP SWAP3 SWAP1 POP JUMP JUMPDEST PUSH1 0x0 DUP2 MLOAD DUP1 DUP5 MSTORE PUSH1 0x20 DUP1 DUP6 ADD SWAP5 POP DUP1 DUP5 ADD PUSH1 0x0 JUMPDEST DUP4 DUP2 LT ISZERO PUSH2 0x3624 JUMPI DUP2 MLOAD DUP8 MSTORE SWAP6 DUP3 ADD SWAP6 SWAP1 DUP3 ADD SWAP1 PUSH1 0x1 ADD PUSH2 0x3608 JUMP JUMPDEST POP SWAP5 SWAP6 SWAP5 POP POP POP POP POP JUMP JUMPDEST PUSH1 0x0 DUP2 MLOAD DUP1 DUP5 MSTORE PUSH1 0x0 JUMPDEST DUP2 DUP2 LT ISZERO PUSH2 0x3655 JUMPI PUSH1 0x20 DUP2 DUP6 ADD DUP2 ADD MLOAD DUP7 DUP4 ADD DUP3 ADD MSTORE ADD PUSH2 0x3639 JUMP JUMPDEST DUP2 DUP2 GT ISZERO PUSH2 0x3667 JUMPI PUSH1 0x0 PUSH1 0x20 DUP4 DUP8 ADD ADD MSTORE JUMPDEST POP PUSH1 0x1F ADD PUSH1 0x1F NOT AND SWAP3 SWAP1 SWAP3 ADD PUSH1 0x20 ADD SWAP3 SWAP2 POP POP JUMP JUMPDEST PUSH1 0x20 DUP2 MSTORE PUSH1 0x0 PUSH2 0x33A4 PUSH1 0x20 DUP4 ADD DUP5 PUSH2 0x362F JUMP JUMPDEST PUSH1 0x80 DUP2 MSTORE PUSH1 0x0 PUSH2 0x36A2 PUSH1 0x80 DUP4 ADD DUP8 PUSH2 0x362F JUMP JUMPDEST DUP6 PUSH1 0x20 DUP5 ADD MSTORE DUP3 DUP2 SUB PUSH1 0x40 DUP5 ADD MSTORE PUSH2 0x36BA DUP2 DUP7 PUSH2 0x35F4 JUMP JUMPDEST SWAP1 POP DUP3 DUP2 SUB PUSH1 0x60 DUP5 ADD MSTORE PUSH2 0x36CE DUP2 DUP6 PUSH2 0x35F4 JUMP JUMPDEST SWAP8 SWAP7 POP POP POP POP POP POP POP JUMP JUMPDEST PUSH1 0x80 DUP2 MSTORE PUSH1 0x0 PUSH2 0x36EC PUSH1 0x80 DUP4 ADD DUP8 PUSH2 0x362F JUMP JUMPDEST PUSH1 0x20 DUP4 ADD SWAP6 SWAP1 SWAP6 MSTORE POP PUSH1 0x40 DUP2 ADD SWAP3 SWAP1 SWAP3 MSTORE PUSH1 0x60 SWAP1 SWAP2 ADD MSTORE SWAP2 SWAP1 POP JUMP JUMPDEST PUSH1 0x20 DUP1 DUP3 MSTORE PUSH1 0x15 SWAP1 DUP3 ADD MSTORE PUSH21 0x1C1C9BDA9958DD081A5CC81B9BDD08199D5B991959 PUSH1 0x5A SHL PUSH1 0x40 DUP3 ADD MSTORE PUSH1 0x60 ADD SWAP1 JUMP JUMPDEST PUSH1 0x20 DUP1 DUP3 MSTORE PUSH1 0x14 SWAP1 DUP3 ADD MSTORE PUSH20 0x1B595B58995C9CDA1A5C081B9BDD081D985B1A59 PUSH1 0x62 SHL PUSH1 0x40 DUP3 ADD MSTORE PUSH1 0x60 ADD SWAP1 JUMP JUMPDEST PUSH1 0x20 DUP1 DUP3 MSTORE PUSH1 0x15 SWAP1 DUP3 ADD MSTORE PUSH21 0x796F7520617265206E6F742061206D656D62657221 PUSH1 0x58 SHL PUSH1 0x40 DUP3 ADD MSTORE PUSH1 0x60 ADD SWAP1 JUMP JUMPDEST PUSH1 0x20 DUP1 DUP3 MSTORE PUSH1 0x16 SWAP1 DUP3 ADD MSTORE PUSH22 0x70726F6A656374206973206E6F742066756E64656421 PUSH1 0x50 SHL PUSH1 0x40 DUP3 ADD MSTORE PUSH1 0x60 ADD SWAP1 JUMP JUMPDEST PUSH1 0x20 DUP1 DUP3 MSTORE PUSH1 0x18 SWAP1 DUP3 ADD MSTORE PUSH24 0x696E76616C69642063686F69636520646574656374656421 PUSH1 0x40 SHL PUSH1 0x40 DUP3 ADD MSTORE PUSH1 0x60 ADD SWAP1 JUMP JUMPDEST PUSH1 0x20 DUP1 DUP3 MSTORE PUSH1 0xF SWAP1 DUP3 ADD MSTORE PUSH15 0x191958591B1A5B99481C185CDCD959 PUSH1 0x8A SHL PUSH1 0x40 DUP3 ADD MSTORE PUSH1 0x60 ADD SWAP1 JUMP JUMPDEST PUSH1 0x20 DUP1 DUP3 MSTORE PUSH1 0x11 SWAP1 DUP3 ADD MSTORE PUSH17 0x6E6F7420656E6F75676820657468657221 PUSH1 0x78 SHL PUSH1 0x40 DUP3 ADD MSTORE PUSH1 0x60 ADD SWAP1 JUMP JUMPDEST DUP3 DUP2 MSTORE PUSH1 0x40 PUSH1 0x20 DUP3 ADD MSTORE PUSH1 0x0 PUSH2 0x3863 PUSH1 0x40 DUP4 ADD DUP5 PUSH2 0x35F4 JUMP JUMPDEST SWAP5 SWAP4 POP POP POP POP JUMP JUMPDEST PUSH1 0x40 MLOAD PUSH1 0x1F DUP3 ADD PUSH1 0x1F NOT AND DUP2 ADD PUSH1 0x1 PUSH1 0x1 PUSH1 0x40 SHL SUB DUP2 GT DUP3 DUP3 LT OR ISZERO PUSH2 0x3893 JUMPI PUSH2 0x3893 PUSH2 0x39D7 JUMP JUMPDEST PUSH1 0x40 MSTORE SWAP2 SWAP1 POP JUMP JUMPDEST PUSH1 0x0 DUP3 NOT DUP3 GT ISZERO PUSH2 0x38AE JUMPI PUSH2 0x38AE PUSH2 0x39AB JUMP JUMPDEST POP ADD SWAP1 JUMP JUMPDEST PUSH1 0x0 DUP2 PUSH1 0x0 NOT DIV DUP4 GT DUP3 ISZERO ISZERO AND ISZERO PUSH2 0x38CD JUMPI PUSH2 0x38CD PUSH2 0x39AB JUMP JUMPDEST POP MUL SWAP1 JUMP JUMPDEST PUSH1 0x0 DUP1 DUP4 SLT DUP1 ISZERO PUSH1 0x1 PUSH1 0xFF SHL DUP6 ADD DUP5 SLT AND ISZERO PUSH2 0x38F0 JUMPI PUSH2 0x38F0 PUSH2 0x39AB JUMP JUMPDEST PUSH1 0x1 PUSH1 0x1 PUSH1 0xFF SHL SUB DUP5 ADD DUP4 SGT DUP2 AND ISZERO PUSH2 0x390B JUMPI PUSH2 0x390B PUSH2 0x39AB JUMP JUMPDEST POP POP SUB SWAP1 JUMP JUMPDEST PUSH1 0x0 DUP3 DUP3 LT ISZERO PUSH2 0x3923 JUMPI PUSH2 0x3923 PUSH2 0x39AB JUMP JUMPDEST POP SUB SWAP1 JUMP JUMPDEST PUSH1 0x0 PUSH1 0x1 PUSH1 0xFF SHL DUP3 EQ ISZERO PUSH2 0x393E JUMPI PUSH2 0x393E PUSH2 0x39AB JUMP JUMPDEST POP PUSH1 0x0 NOT ADD SWAP1 JUMP JUMPDEST PUSH1 0x0 DUP2 PUSH2 0x393E JUMPI PUSH2 0x393E PUSH2 0x39AB JUMP JUMPDEST PUSH1 0x1 DUP2 DUP2 SHR SWAP1 DUP3 AND DUP1 PUSH2 0x3969 JUMPI PUSH1 0x7F DUP3 AND SWAP2 POP JUMPDEST PUSH1 0x20 DUP3 LT DUP2 EQ ISZERO PUSH2 0x398A JUMPI PUSH4 0x4E487B71 PUSH1 0xE0 SHL PUSH1 0x0 MSTORE PUSH1 0x22 PUSH1 0x4 MSTORE PUSH1 0x24 PUSH1 0x0 REVERT JUMPDEST POP SWAP2 SWAP1 POP JUMP JUMPDEST PUSH1 0x0 PUSH1 0x0 NOT DUP3 EQ ISZERO PUSH2 0x39A4 JUMPI PUSH2 0x39A4 PUSH2 0x39AB JUMP JUMPDEST POP PUSH1 0x1 ADD SWAP1 JUMP JUMPDEST PUSH4 0x4E487B71 PUSH1 0xE0 SHL PUSH1 0x0 MSTORE PUSH1 0x11 PUSH1 0x4 MSTORE PUSH1 0x24 PUSH1 0x0 REVERT JUMPDEST PUSH4 0x4E487B71 PUSH1 0xE0 SHL PUSH1 0x0 MSTORE PUSH1 0x32 PUSH1 0x4 MSTORE PUSH1 0x24 PUSH1 0x0 REVERT JUMPDEST PUSH4 0x4E487B71 PUSH1 0xE0 SHL PUSH1 0x0 MSTORE PUSH1 0x41 PUSH1 0x4 MSTORE PUSH1 0x24 PUSH1 0x0 REVERT INVALID 0xDD CALLCODE MSTORE 0xAD SHL 0xE2 0xC8 SWAP12 PUSH10 0xC2B068FC378DAA952BA7 CALL PUSH4 0xC4A11628 CREATE2 GAS 0x4D CREATE2 0x23 0xB3 0xEF LOG2 PUSH5 0x6970667358 0x22 SLT KECCAK256 RETURNDATASIZE 0xE9 0xC5 JUMP BLOCKHASH GASLIMIT SWAP8 PUSH18 0x1E7045C4799278B6B3358CD01577F69A0CD6 PUSH7 0xD3562CF206473 PUSH16 0x6C634300080700330000000000000000 "
		},
		"gasEstimates": {
			"creation": {
				"codeDepositCost": "2983000",
				"executionCost": "infinite",
				"totalCost": "infinite"
			},
			"external": {
				"allowance(address,address)": "infinite",
				"approve(address,uint256)": "24602",
				"balanceOf(address)": "2816",
				"decimals()": "309",
				"decreaseAllowance(address,uint256)": "27435",
				"delegateVoteTo(address,uint256)": "infinite",
				"donateEther()": "585",
				"donateMyGovToken(uint256)": "infinite",
				"faucet()": "infinite",
				"findNextPaymentSchedule(uint256)": "infinite",
				"getEtherReceivedByProject(uint256)": "2862",
				"getIsProjectFunded(uint256)": "2770",
				"getNoOfFundedProjects()": "2908",
				"getNoOfProjectProposals()": "2380",
				"getNoOfSurveys()": "2512",
				"getProjectInfo(uint256)": "infinite",
				"getProjectNextPayment(uint256)": "6811",
				"getProjectOwner(uint256)": "2857",
				"getSurveyInfo(uint256)": "infinite",
				"getSurveyOwner(uint256)": "2835",
				"getSurveyResults(uint256)": "infinite",
				"increaseAllowance(address,uint256)": "27133",
				"isMember(address)": "3023",
				"maxSupply()": "2930",
				"name()": "infinite",
				"reserveProjectGrant(uint256)": "infinite",
				"submitProjectProposal(string,uint256,uint256[],uint256[])": "infinite",
				"submitSurvey(string,uint256,uint256,uint256)": "infinite",
				"symbol()": "infinite",
				"takeSurvey(uint256,uint256[])": "infinite",
				"totalSupply()": "2303",
				"transfer(address,uint256)": "infinite",
				"transferFrom(address,address,uint256)": "infinite",
				"voteForProjectPayment(uint256,bool)": "infinite",
				"voteForProjectProposal(uint256,bool)": "infinite",
				"withdrawProjectPayment(uint256)": "infinite"
			},
			"internal": {
				"cancelProject(uint256)": "infinite",
				"checkMembership(address)": "infinite",
				"checkPaymentVotes(uint256,uint256)": "4490",
				"giveBackTokenRight(uint256)": "infinite",
				"giveBackTokenRightProjectPayment(uint256,uint256)": "infinite",
				"giveBackTokenRightProjectProposal(uint256)": "infinite",
				"makeMember(address)": "24323"
			}
		},
		"methodIdentifiers": {
			"allowance(address,address)": "dd62ed3e",
			"approve(address,uint256)": "095ea7b3",
			"balanceOf(address)": "70a08231",
			"decimals()": "313ce567",
			"decreaseAllowance(address,uint256)": "a457c2d7",
			"delegateVoteTo(address,uint256)": "a1669b32",
			"donateEther()": "863451dd",
			"donateMyGovToken(uint256)": "39c94d2d",
			"faucet()": "de5f72fd",
			"findNextPaymentSchedule(uint256)": "bcf2cb0f",
			"getEtherReceivedByProject(uint256)": "9983fa58",
			"getIsProjectFunded(uint256)": "7c405164",
			"getNoOfFundedProjects()": "bf50556d",
			"getNoOfProjectProposals()": "23fd498b",
			"getNoOfSurveys()": "5d801b37",
			"getProjectInfo(uint256)": "fabf5968",
			"getProjectNextPayment(uint256)": "1d2acdfd",
			"getProjectOwner(uint256)": "92256aec",
			"getSurveyInfo(uint256)": "2e8f3413",
			"getSurveyOwner(uint256)": "875b5076",
			"getSurveyResults(uint256)": "70a56c73",
			"increaseAllowance(address,uint256)": "39509351",
			"isMember(address)": "a230c524",
			"maxSupply()": "d5abeb01",
			"name()": "06fdde03",
			"reserveProjectGrant(uint256)": "bd275764",
			"submitProjectProposal(string,uint256,uint256[],uint256[])": "a5e898e1",
			"submitSurvey(string,uint256,uint256,uint256)": "ef269ae3",
			"symbol()": "95d89b41",
			"takeSurvey(uint256,uint256[])": "702798df",
			"totalSupply()": "18160ddd",
			"transfer(address,uint256)": "a9059cbb",
			"transferFrom(address,address,uint256)": "23b872dd",
			"voteForProjectPayment(uint256,bool)": "42caaeb4",
			"voteForProjectProposal(uint256,bool)": "f22449ba",
			"withdrawProjectPayment(uint256)": "bd6c733c"
		}
	},
	"abi": [
		{
			"inputs": [],
			"stateMutability": "nonpayable",
			"type": "constructor"
		},
		{
			"anonymous": false,
			"inputs": [
				{
					"indexed": true,
					"internalType": "address",
					"name": "owner",
					"type": "address"
				},
				{
					"indexed": true,
					"internalType": "address",
					"name": "spender",
					"type": "address"
				},
				{
					"indexed": false,
					"internalType": "uint256",
					"name": "value",
					"type": "uint256"
				}
			],
			"name": "Approval",
			"type": "event"
		},
		{
			"anonymous": false,
			"inputs": [
				{
					"indexed": true,
					"internalType": "uint256",
					"name": "projectid",
					"type": "uint256"
				},
				{
					"indexed": true,
					"internalType": "address",
					"name": "from",
					"type": "address"
				},
				{
					"indexed": true,
					"internalType": "address",
					"name": "to",
					"type": "address"
				},
				{
					"indexed": false,
					"internalType": "uint256",
					"name": "token",
					"type": "uint256"
				}
			],
			"name": "Delegation",
			"type": "event"
		},
		{
			"anonymous": false,
			"inputs": [
				{
					"indexed": true,
					"internalType": "uint256",
					"name": "post_type",
					"type": "uint256"
				},
				{
					"indexed": true,
					"internalType": "uint256",
					"name": "amount",
					"type": "uint256"
				}
			],
			"name": "Donation",
			"type": "event"
		},
		{
			"anonymous": false,
			"inputs": [
				{
					"indexed": true,
					"internalType": "address",
					"name": "member",
					"type": "address"
				}
			],
			"name": "MemberAdd",
			"type": "event"
		},
		{
			"anonymous": false,
			"inputs": [
				{
					"indexed": true,
					"internalType": "uint256",
					"name": "id",
					"type": "uint256"
				},
				{
					"indexed": true,
					"internalType": "uint256",
					"name": "total_payment",
					"type": "uint256"
				},
				{
					"indexed": false,
					"internalType": "uint256",
					"name": "deadline",
					"type": "uint256"
				}
			],
			"name": "Project",
			"type": "event"
		},
		{
			"anonymous": false,
			"inputs": [
				{
					"indexed": true,
					"internalType": "uint256",
					"name": "projectid",
					"type": "uint256"
				},
				{
					"indexed": true,
					"internalType": "uint256",
					"name": "total_payment",
					"type": "uint256"
				}
			],
			"name": "ProjectReservation",
			"type": "event"
		},
		{
			"anonymous": false,
			"inputs": [
				{
					"indexed": true,
					"internalType": "uint256",
					"name": "id",
					"type": "uint256"
				},
				{
					"indexed": true,
					"internalType": "uint256",
					"name": "deadline",
					"type": "uint256"
				}
			],
			"name": "Survey",
			"type": "event"
		},
		{
			"anonymous": false,
			"inputs": [
				{
					"indexed": true,
					"internalType": "uint256",
					"name": "surveyid",
					"type": "uint256"
				}
			],
			"name": "SurveyTake",
			"type": "event"
		},
		{
			"anonymous": false,
			"inputs": [
				{
					"indexed": true,
					"internalType": "uint256",
					"name": "post_type",
					"type": "uint256"
				},
				{
					"indexed": true,
					"internalType": "uint256",
					"name": "id",
					"type": "uint256"
				},
				{
					"indexed": true,
					"internalType": "uint256",
					"name": "sub_id",
					"type": "uint256"
				}
			],
			"name": "TokenRightsGivenBack",
			"type": "event"
		},
		{
			"anonymous": false,
			"inputs": [
				{
					"indexed": true,
					"internalType": "address",
					"name": "from",
					"type": "address"
				},
				{
					"indexed": true,
					"internalType": "address",
					"name": "to",
					"type": "address"
				},
				{
					"indexed": false,
					"internalType": "uint256",
					"name": "value",
					"type": "uint256"
				}
			],
			"name": "Transfer",
			"type": "event"
		},
		{
			"anonymous": false,
			"inputs": [
				{
					"indexed": true,
					"internalType": "uint256",
					"name": "projectid",
					"type": "uint256"
				},
				{
					"indexed": true,
					"internalType": "address",
					"name": "voter",
					"type": "address"
				},
				{
					"indexed": false,
					"internalType": "bool",
					"name": "choice",
					"type": "bool"
				},
				{
					"indexed": true,
					"internalType": "uint256",
					"name": "vote_amount",
					"type": "uint256"
				},
				{
					"indexed": false,
					"internalType": "uint256",
					"name": "payment_index",
					"type": "uint256"
				}
			],
			"name": "Vote",
			"type": "event"
		},
		{
			"anonymous": false,
			"inputs": [
				{
					"indexed": true,
					"internalType": "uint256",
					"name": "projectid",
					"type": "uint256"
				},
				{
					"indexed": true,
					"internalType": "uint256",
					"name": "index",
					"type": "uint256"
				},
				{
					"indexed": true,
					"internalType": "uint256",
					"name": "amount",
					"type": "uint256"
				}
			],
			"name": "Withdrawal",
			"type": "event"
		},
		{
			"inputs": [
				{
					"internalType": "address",
					"name": "owner",
					"type": "address"
				},
				{
					"internalType": "address",
					"name": "spender",
					"type": "address"
				}
			],
			"name": "allowance",
			"outputs": [
				{
					"internalType": "uint256",
					"name": "",
					"type": "uint256"
				}
			],
			"stateMutability": "view",
			"type": "function"
		},
		{
			"inputs": [
				{
					"internalType": "address",
					"name": "spender",
					"type": "address"
				},
				{
					"internalType": "uint256",
					"name": "amount",
					"type": "uint256"
				}
			],
			"name": "approve",
			"outputs": [
				{
					"internalType": "bool",
					"name": "",
					"type": "bool"
				}
			],
			"stateMutability": "nonpayable",
			"type": "function"
		},
		{
			"inputs": [
				{
					"internalType": "address",
					"name": "account",
					"type": "address"
				}
			],
			"name": "balanceOf",
			"outputs": [
				{
					"internalType": "uint256",
					"name": "",
					"type": "uint256"
				}
			],
			"stateMutability": "view",
			"type": "function"
		},
		{
			"inputs": [],
			"name": "decimals",
			"outputs": [
				{
					"internalType": "uint8",
					"name": "",
					"type": "uint8"
				}
			],
			"stateMutability": "view",
			"type": "function"
		},
		{
			"inputs": [
				{
					"internalType": "address",
					"name": "spender",
					"type": "address"
				},
				{
					"internalType": "uint256",
					"name": "subtractedValue",
					"type": "uint256"
				}
			],
			"name": "decreaseAllowance",
			"outputs": [
				{
					"internalType": "bool",
					"name": "",
					"type": "bool"
				}
			],
			"stateMutability": "nonpayable",
			"type": "function"
		},
		{
			"inputs": [
				{
					"internalType": "address",
					"name": "member",
					"type": "address"
				},
				{
					"internalType": "uint256",
					"name": "projectid",
					"type": "uint256"
				}
			],
			"name": "delegateVoteTo",
			"outputs": [],
			"stateMutability": "nonpayable",
			"type": "function"
		},
		{
			"inputs": [],
			"name": "donateEther",
			"outputs": [],
			"stateMutability": "payable",
			"type": "function"
		},
		{
			"inputs": [
				{
					"internalType": "uint256",
					"name": "amount",
					"type": "uint256"
				}
			],
			"name": "donateMyGovToken",
			"outputs": [],
			"stateMutability": "nonpayable",
			"type": "function"
		},
		{
			"inputs": [],
			"name": "faucet",
			"outputs": [],
			"stateMutability": "nonpayable",
			"type": "function"
		},
		{
			"inputs": [
				{
					"internalType": "uint256",
					"name": "projectid",
					"type": "uint256"
				}
			],
			"name": "findNextPaymentSchedule",
			"outputs": [
				{
					"internalType": "int256",
					"name": "",
					"type": "int256"
				}
			],
			"stateMutability": "nonpayable",
			"type": "function"
		},
		{
			"inputs": [
				{
					"internalType": "uint256",
					"name": "projectid",
					"type": "uint256"
				}
			],
			"name": "getEtherReceivedByProject",
			"outputs": [
				{
					"internalType": "uint256",
					"name": "amount",
					"type": "uint256"
				}
			],
			"stateMutability": "view",
			"type": "function"
		},
		{
			"inputs": [
				{
					"internalType": "uint256",
					"name": "projectid",
					"type": "uint256"
				}
			],
			"name": "getIsProjectFunded",
			"outputs": [
				{
					"internalType": "bool",
					"name": "funded",
					"type": "bool"
				}
			],
			"stateMutability": "view",
			"type": "function"
		},
		{
			"inputs": [],
			"name": "getNoOfFundedProjects",
			"outputs": [
				{
					"internalType": "uint256",
					"name": "numfunded",
					"type": "uint256"
				}
			],
			"stateMutability": "view",
			"type": "function"
		},
		{
			"inputs": [],
			"name": "getNoOfProjectProposals",
			"outputs": [
				{
					"internalType": "uint256",
					"name": "numproposals",
					"type": "uint256"
				}
			],
			"stateMutability": "view",
			"type": "function"
		},
		{
			"inputs": [],
			"name": "getNoOfSurveys",
			"outputs": [
				{
					"internalType": "uint256",
					"name": "numsurveys",
					"type": "uint256"
				}
			],
			"stateMutability": "view",
			"type": "function"
		},
		{
			"inputs": [
				{
					"internalType": "uint256",
					"name": "projectid",
					"type": "uint256"
				}
			],
			"name": "getProjectInfo",
			"outputs": [
				{
					"internalType": "string",
					"name": "ipfshash",
					"type": "string"
				},
				{
					"internalType": "uint256",
					"name": "votedeadline",
					"type": "uint256"
				},
				{
					"internalType": "uint256[]",
					"name": "paymentamounts",
					"type": "uint256[]"
				},
				{
					"internalType": "uint256[]",
					"name": "payschedule",
					"type": "uint256[]"
				}
			],
			"stateMutability": "view",
			"type": "function"
		},
		{
			"inputs": [
				{
					"internalType": "uint256",
					"name": "projectid",
					"type": "uint256"
				}
			],
			"name": "getProjectNextPayment",
			"outputs": [
				{
					"internalType": "uint256",
					"name": "next",
					"type": "uint256"
				}
			],
			"stateMutability": "view",
			"type": "function"
		},
		{
			"inputs": [
				{
					"internalType": "uint256",
					"name": "projectid",
					"type": "uint256"
				}
			],
			"name": "getProjectOwner",
			"outputs": [
				{
					"internalType": "address",
					"name": "projectowner",
					"type": "address"
				}
			],
			"stateMutability": "view",
			"type": "function"
		},
		{
			"inputs": [
				{
					"internalType": "uint256",
					"name": "surveyid",
					"type": "uint256"
				}
			],
			"name": "getSurveyInfo",
			"outputs": [
				{
					"internalType": "string",
					"name": "ipfshash",
					"type": "string"
				},
				{
					"internalType": "uint256",
					"name": "deadline",
					"type": "uint256"
				},
				{
					"internalType": "uint256",
					"name": "numchoices",
					"type": "uint256"
				},
				{
					"internalType": "uint256",
					"name": "atmostchoice",
					"type": "uint256"
				}
			],
			"stateMutability": "view",
			"type": "function"
		},
		{
			"inputs": [
				{
					"internalType": "uint256",
					"name": "surveyid",
					"type": "uint256"
				}
			],
			"name": "getSurveyOwner",
			"outputs": [
				{
					"internalType": "address",
					"name": "surveyowner",
					"type": "address"
				}
			],
			"stateMutability": "view",
			"type": "function"
		},
		{
			"inputs": [
				{
					"internalType": "uint256",
					"name": "surveyid",
					"type": "uint256"
				}
			],
			"name": "getSurveyResults",
			"outputs": [
				{
					"internalType": "uint256",
					"name": "numtaken",
					"type": "uint256"
				},
				{
					"internalType": "uint256[]",
					"name": "results",
					"type": "uint256[]"
				}
			],
			"stateMutability": "view",
			"type": "function"
		},
		{
			"inputs": [
				{
					"internalType": "address",
					"name": "spender",
					"type": "address"
				},
				{
					"internalType": "uint256",
					"name": "addedValue",
					"type": "uint256"
				}
			],
			"name": "increaseAllowance",
			"outputs": [
				{
					"internalType": "bool",
					"name": "",
					"type": "bool"
				}
			],
			"stateMutability": "nonpayable",
			"type": "function"
		},
		{
			"inputs": [
				{
					"internalType": "address",
					"name": "person",
					"type": "address"
				}
			],
			"name": "isMember",
			"outputs": [
				{
					"internalType": "bool",
					"name": "",
					"type": "bool"
				}
			],
			"stateMutability": "view",
			"type": "function"
		},
		{
			"inputs": [],
			"name": "maxSupply",
			"outputs": [
				{
					"internalType": "uint256",
					"name": "",
					"type": "uint256"
				}
			],
			"stateMutability": "view",
			"type": "function"
		},
		{
			"inputs": [],
			"name": "name",
			"outputs": [
				{
					"internalType": "string",
					"name": "",
					"type": "string"
				}
			],
			"stateMutability": "view",
			"type": "function"
		},
		{
			"inputs": [
				{
					"internalType": "uint256",
					"name": "projectid",
					"type": "uint256"
				}
			],
			"name": "reserveProjectGrant",
			"outputs": [],
			"stateMutability": "nonpayable",
			"type": "function"
		},
		{
			"inputs": [
				{
					"internalType": "string",
					"name": "ipfshash",
					"type": "string"
				},
				{
					"internalType": "uint256",
					"name": "votedeadline",
					"type": "uint256"
				},
				{
					"internalType": "uint256[]",
					"name": "paymentamounts",
					"type": "uint256[]"
				},
				{
					"internalType": "uint256[]",
					"name": "payschedule",
					"type": "uint256[]"
				}
			],
			"name": "submitProjectProposal",
			"outputs": [],
			"stateMutability": "payable",
			"type": "function"
		},
		{
			"inputs": [
				{
					"internalType": "string",
					"name": "ipfshash",
					"type": "string"
				},
				{
					"internalType": "uint256",
					"name": "deadline",
					"type": "uint256"
				},
				{
					"internalType": "uint256",
					"name": "numchoices",
					"type": "uint256"
				},
				{
					"internalType": "uint256",
					"name": "atmostchoice",
					"type": "uint256"
				}
			],
			"name": "submitSurvey",
			"outputs": [
				{
					"internalType": "uint256",
					"name": "surveyid",
					"type": "uint256"
				}
			],
			"stateMutability": "payable",
			"type": "function"
		},
		{
			"inputs": [],
			"name": "symbol",
			"outputs": [
				{
					"internalType": "string",
					"name": "",
					"type": "string"
				}
			],
			"stateMutability": "view",
			"type": "function"
		},
		{
			"inputs": [
				{
					"internalType": "uint256",
					"name": "surveyid",
					"type": "uint256"
				},
				{
					"internalType": "uint256[]",
					"name": "choices",
					"type": "uint256[]"
				}
			],
			"name": "takeSurvey",
			"outputs": [],
			"stateMutability": "nonpayable",
			"type": "function"
		},
		{
			"inputs": [],
			"name": "totalSupply",
			"outputs": [
				{
					"internalType": "uint256",
					"name": "",
					"type": "uint256"
				}
			],
			"stateMutability": "view",
			"type": "function"
		},
		{
			"inputs": [
				{
					"internalType": "address",
					"name": "to",
					"type": "address"
				},
				{
					"internalType": "uint256",
					"name": "amount",
					"type": "uint256"
				}
			],
			"name": "transfer",
			"outputs": [
				{
					"internalType": "bool",
					"name": "",
					"type": "bool"
				}
			],
			"stateMutability": "nonpayable",
			"type": "function"
		},
		{
			"inputs": [
				{
					"internalType": "address",
					"name": "from",
					"type": "address"
				},
				{
					"internalType": "address",
					"name": "to",
					"type": "address"
				},
				{
					"internalType": "uint256",
					"name": "amount",
					"type": "uint256"
				}
			],
			"name": "transferFrom",
			"outputs": [
				{
					"internalType": "bool",
					"name": "",
					"type": "bool"
				}
			],
			"stateMutability": "nonpayable",
			"type": "function"
		},
		{
			"inputs": [
				{
					"internalType": "uint256",
					"name": "projectid",
					"type": "uint256"
				},
				{
					"internalType": "bool",
					"name": "choice",
					"type": "bool"
				}
			],
			"name": "voteForProjectPayment",
			"outputs": [],
			"stateMutability": "nonpayable",
			"type": "function"
		},
		{
			"inputs": [
				{
					"internalType": "uint256",
					"name": "projectid",
					"type": "uint256"
				},
				{
					"internalType": "bool",
					"name": "choice",
					"type": "bool"
				}
			],
			"name": "voteForProjectProposal",
			"outputs": [],
			"stateMutability": "nonpayable",
			"type": "function"
		},
		{
			"inputs": [
				{
					"internalType": "uint256",
					"name": "projectid",
					"type": "uint256"
				}
			],
			"name": "withdrawProjectPayment",
			"outputs": [],
			"stateMutability": "payable",
			"type": "function"
		}
	]
}