{
  "contractName": "MyGov",
  "abi": [
    {
      "inputs": [],
      "stateMutability": "nonpayable",
      "type": "constructor"
    },
    {
      "anonymous": false,
      "inputs": [
        {
          "indexed": true,
          "internalType": "address",
          "name": "owner",
          "type": "address"
        },
        {
          "indexed": true,
          "internalType": "address",
          "name": "spender",
          "type": "address"
        },
        {
          "indexed": false,
          "internalType": "uint256",
          "name": "value",
          "type": "uint256"
        }
      ],
      "name": "Approval",
      "type": "event"
    },
    {
      "anonymous": false,
      "inputs": [
        {
          "indexed": true,
          "internalType": "uint256",
          "name": "projectid",
          "type": "uint256"
        },
        {
          "indexed": true,
          "internalType": "address",
          "name": "from",
          "type": "address"
        },
        {
          "indexed": true,
          "internalType": "address",
          "name": "to",
          "type": "address"
        },
        {
          "indexed": false,
          "internalType": "uint256",
          "name": "token",
          "type": "uint256"
        }
      ],
      "name": "Delegation",
      "type": "event"
    },
    {
      "anonymous": false,
      "inputs": [
        {
          "indexed": true,
          "internalType": "uint256",
          "name": "post_type",
          "type": "uint256"
        },
        {
          "indexed": true,
          "internalType": "uint256",
          "name": "amount",
          "type": "uint256"
        }
      ],
      "name": "Donation",
      "type": "event"
    },
    {
      "anonymous": false,
      "inputs": [
        {
          "indexed": true,
          "internalType": "address",
          "name": "member",
          "type": "address"
        }
      ],
      "name": "MemberAdd",
      "type": "event"
    },
    {
      "anonymous": false,
      "inputs": [
        {
          "indexed": true,
          "internalType": "uint256",
          "name": "id",
          "type": "uint256"
        },
        {
          "indexed": true,
          "internalType": "uint256",
          "name": "total_payment",
          "type": "uint256"
        },
        {
          "indexed": false,
          "internalType": "uint256",
          "name": "deadline",
          "type": "uint256"
        }
      ],
      "name": "Project",
      "type": "event"
    },
    {
      "anonymous": false,
      "inputs": [
        {
          "indexed": true,
          "internalType": "uint256",
          "name": "projectid",
          "type": "uint256"
        },
        {
          "indexed": true,
          "internalType": "uint256",
          "name": "total_payment",
          "type": "uint256"
        }
      ],
      "name": "ProjectReservation",
      "type": "event"
    },
    {
      "anonymous": false,
      "inputs": [
        {
          "indexed": true,
          "internalType": "uint256",
          "name": "id",
          "type": "uint256"
        },
        {
          "indexed": true,
          "internalType": "uint256",
          "name": "deadline",
          "type": "uint256"
        }
      ],
      "name": "Survey",
      "type": "event"
    },
    {
      "anonymous": false,
      "inputs": [
        {
          "indexed": true,
          "internalType": "uint256",
          "name": "surveyid",
          "type": "uint256"
        }
      ],
      "name": "SurveyTake",
      "type": "event"
    },
    {
      "anonymous": false,
      "inputs": [
        {
          "indexed": true,
          "internalType": "uint256",
          "name": "post_type",
          "type": "uint256"
        },
        {
          "indexed": true,
          "internalType": "uint256",
          "name": "id",
          "type": "uint256"
        },
        {
          "indexed": true,
          "internalType": "uint256",
          "name": "sub_id",
          "type": "uint256"
        }
      ],
      "name": "TokenRightsGivenBack",
      "type": "event"
    },
    {
      "anonymous": false,
      "inputs": [
        {
          "indexed": true,
          "internalType": "address",
          "name": "from",
          "type": "address"
        },
        {
          "indexed": true,
          "internalType": "address",
          "name": "to",
          "type": "address"
        },
        {
          "indexed": false,
          "internalType": "uint256",
          "name": "value",
          "type": "uint256"
        }
      ],
      "name": "Transfer",
      "type": "event"
    },
    {
      "anonymous": false,
      "inputs": [
        {
          "indexed": true,
          "internalType": "uint256",
          "name": "projectid",
          "type": "uint256"
        },
        {
          "indexed": true,
          "internalType": "address",
          "name": "voter",
          "type": "address"
        },
        {
          "indexed": false,
          "internalType": "bool",
          "name": "choice",
          "type": "bool"
        },
        {
          "indexed": true,
          "internalType": "uint256",
          "name": "vote_amount",
          "type": "uint256"
        },
        {
          "indexed": false,
          "internalType": "int256",
          "name": "payment_index",
          "type": "int256"
        }
      ],
      "name": "Vote",
      "type": "event"
    },
    {
      "anonymous": false,
      "inputs": [
        {
          "indexed": true,
          "internalType": "uint256",
          "name": "projectid",
          "type": "uint256"
        },
        {
          "indexed": true,
          "internalType": "uint256",
          "name": "index",
          "type": "uint256"
        },
        {
          "indexed": true,
          "internalType": "uint256",
          "name": "amount",
          "type": "uint256"
        }
      ],
      "name": "Withdrawal",
      "type": "event"
    },
    {
      "inputs": [
        {
          "internalType": "address",
          "name": "owner",
          "type": "address"
        },
        {
          "internalType": "address",
          "name": "spender",
          "type": "address"
        }
      ],
      "name": "allowance",
      "outputs": [
        {
          "internalType": "uint256",
          "name": "",
          "type": "uint256"
        }
      ],
      "stateMutability": "view",
      "type": "function",
      "constant": true
    },
    {
      "inputs": [
        {
          "internalType": "address",
          "name": "spender",
          "type": "address"
        },
        {
          "internalType": "uint256",
          "name": "amount",
          "type": "uint256"
        }
      ],
      "name": "approve",
      "outputs": [
        {
          "internalType": "bool",
          "name": "",
          "type": "bool"
        }
      ],
      "stateMutability": "nonpayable",
      "type": "function"
    },
    {
      "inputs": [
        {
          "internalType": "address",
          "name": "account",
          "type": "address"
        }
      ],
      "name": "balanceOf",
      "outputs": [
        {
          "internalType": "uint256",
          "name": "",
          "type": "uint256"
        }
      ],
      "stateMutability": "view",
      "type": "function",
      "constant": true
    },
    {
      "inputs": [],
      "name": "decimals",
      "outputs": [
        {
          "internalType": "uint8",
          "name": "",
          "type": "uint8"
        }
      ],
      "stateMutability": "view",
      "type": "function",
      "constant": true
    },
    {
      "inputs": [
        {
          "internalType": "address",
          "name": "spender",
          "type": "address"
        },
        {
          "internalType": "uint256",
          "name": "subtractedValue",
          "type": "uint256"
        }
      ],
      "name": "decreaseAllowance",
      "outputs": [
        {
          "internalType": "bool",
          "name": "",
          "type": "bool"
        }
      ],
      "stateMutability": "nonpayable",
      "type": "function"
    },
    {
      "inputs": [
        {
          "internalType": "address",
          "name": "spender",
          "type": "address"
        },
        {
          "internalType": "uint256",
          "name": "addedValue",
          "type": "uint256"
        }
      ],
      "name": "increaseAllowance",
      "outputs": [
        {
          "internalType": "bool",
          "name": "",
          "type": "bool"
        }
      ],
      "stateMutability": "nonpayable",
      "type": "function"
    },
    {
      "inputs": [],
      "name": "name",
      "outputs": [
        {
          "internalType": "string",
          "name": "",
          "type": "string"
        }
      ],
      "stateMutability": "view",
      "type": "function",
      "constant": true
    },
    {
      "inputs": [],
      "name": "symbol",
      "outputs": [
        {
          "internalType": "string",
          "name": "",
          "type": "string"
        }
      ],
      "stateMutability": "view",
      "type": "function",
      "constant": true
    },
    {
      "inputs": [],
      "name": "totalSupply",
      "outputs": [
        {
          "internalType": "uint256",
          "name": "",
          "type": "uint256"
        }
      ],
      "stateMutability": "view",
      "type": "function",
      "constant": true
    },
    {
      "inputs": [],
      "name": "faucet",
      "outputs": [],
      "stateMutability": "nonpayable",
      "type": "function"
    },
    {
      "inputs": [
        {
          "internalType": "address",
          "name": "person",
          "type": "address"
        }
      ],
      "name": "isMember",
      "outputs": [
        {
          "internalType": "bool",
          "name": "",
          "type": "bool"
        }
      ],
      "stateMutability": "view",
      "type": "function",
      "constant": true
    },
    {
      "inputs": [],
      "name": "maxSupply",
      "outputs": [
        {
          "internalType": "uint256",
          "name": "",
          "type": "uint256"
        }
      ],
      "stateMutability": "view",
      "type": "function",
      "constant": true
    },
    {
      "inputs": [
        {
          "internalType": "string",
          "name": "ipfshash",
          "type": "string"
        },
        {
          "internalType": "uint256",
          "name": "votedeadline",
          "type": "uint256"
        },
        {
          "internalType": "uint256[]",
          "name": "paymentamounts",
          "type": "uint256[]"
        },
        {
          "internalType": "uint256[]",
          "name": "payschedule",
          "type": "uint256[]"
        }
      ],
      "name": "submitProjectProposal",
      "outputs": [],
      "stateMutability": "payable",
      "type": "function",
      "payable": true
    },
    {
      "inputs": [
        {
          "internalType": "uint256",
          "name": "projectid",
          "type": "uint256"
        }
      ],
      "name": "getIsProjectFunded",
      "outputs": [
        {
          "internalType": "bool",
          "name": "funded",
          "type": "bool"
        }
      ],
      "stateMutability": "view",
      "type": "function",
      "constant": true
    },
    {
      "inputs": [
        {
          "internalType": "uint256",
          "name": "projectid",
          "type": "uint256"
        }
      ],
      "name": "getProjectOwner",
      "outputs": [
        {
          "internalType": "address",
          "name": "projectowner",
          "type": "address"
        }
      ],
      "stateMutability": "view",
      "type": "function",
      "constant": true
    },
    {
      "inputs": [
        {
          "internalType": "address",
          "name": "member",
          "type": "address"
        },
        {
          "internalType": "uint256",
          "name": "projectid",
          "type": "uint256"
        }
      ],
      "name": "delegateVoteTo",
      "outputs": [],
      "stateMutability": "nonpayable",
      "type": "function"
    },
    {
      "inputs": [
        {
          "internalType": "uint256",
          "name": "projectid",
          "type": "uint256"
        },
        {
          "internalType": "bool",
          "name": "choice",
          "type": "bool"
        }
      ],
      "name": "voteForProjectProposal",
      "outputs": [],
      "stateMutability": "nonpayable",
      "type": "function"
    },
    {
      "inputs": [
        {
          "internalType": "uint256",
          "name": "projectid",
          "type": "uint256"
        }
      ],
      "name": "reserveProjectGrant",
      "outputs": [],
      "stateMutability": "nonpayable",
      "type": "function"
    },
    {
      "inputs": [
        {
          "internalType": "uint256",
          "name": "projectid",
          "type": "uint256"
        },
        {
          "internalType": "bool",
          "name": "choice",
          "type": "bool"
        }
      ],
      "name": "voteForProjectPayment",
      "outputs": [],
      "stateMutability": "nonpayable",
      "type": "function"
    },
    {
      "inputs": [
        {
          "internalType": "uint256",
          "name": "projectid",
          "type": "uint256"
        }
      ],
      "name": "findNextPaymentSchedule",
      "outputs": [
        {
          "internalType": "int256",
          "name": "",
          "type": "int256"
        }
      ],
      "stateMutability": "nonpayable",
      "type": "function"
    },
    {
      "inputs": [
        {
          "internalType": "uint256",
          "name": "projectid",
          "type": "uint256"
        }
      ],
      "name": "withdrawProjectPayment",
      "outputs": [],
      "stateMutability": "payable",
      "type": "function",
      "payable": true
    },
    {
      "inputs": [
        {
          "internalType": "uint256",
          "name": "projectid",
          "type": "uint256"
        }
      ],
      "name": "getProjectInfo",
      "outputs": [
        {
          "internalType": "string",
          "name": "ipfshash",
          "type": "string"
        },
        {
          "internalType": "uint256",
          "name": "votedeadline",
          "type": "uint256"
        },
        {
          "internalType": "uint256[]",
          "name": "paymentamounts",
          "type": "uint256[]"
        },
        {
          "internalType": "uint256[]",
          "name": "payschedule",
          "type": "uint256[]"
        }
      ],
      "stateMutability": "view",
      "type": "function",
      "constant": true
    },
    {
      "inputs": [],
      "name": "getNoOfProjectProposals",
      "outputs": [
        {
          "internalType": "uint256",
          "name": "numproposals",
          "type": "uint256"
        }
      ],
      "stateMutability": "view",
      "type": "function",
      "constant": true
    },
    {
      "inputs": [],
      "name": "getNoOfFundedProjects",
      "outputs": [
        {
          "internalType": "uint256",
          "name": "numfunded",
          "type": "uint256"
        }
      ],
      "stateMutability": "view",
      "type": "function",
      "constant": true
    },
    {
      "inputs": [
        {
          "internalType": "uint256",
          "name": "projectid",
          "type": "uint256"
        }
      ],
      "name": "getEtherReceivedByProject",
      "outputs": [
        {
          "internalType": "uint256",
          "name": "amount",
          "type": "uint256"
        }
      ],
      "stateMutability": "view",
      "type": "function",
      "constant": true
    },
    {
      "inputs": [
        {
          "internalType": "uint256",
          "name": "projectid",
          "type": "uint256"
        }
      ],
      "name": "getProjectNextPayment",
      "outputs": [
        {
          "internalType": "uint256",
          "name": "next",
          "type": "uint256"
        }
      ],
      "stateMutability": "view",
      "type": "function",
      "constant": true
    },
    {
      "inputs": [
        {
          "internalType": "string",
          "name": "ipfshash",
          "type": "string"
        },
        {
          "internalType": "uint256",
          "name": "deadline",
          "type": "uint256"
        },
        {
          "internalType": "uint256",
          "name": "numchoices",
          "type": "uint256"
        },
        {
          "internalType": "uint256",
          "name": "atmostchoice",
          "type": "uint256"
        }
      ],
      "name": "submitSurvey",
      "outputs": [
        {
          "internalType": "uint256",
          "name": "surveyid",
          "type": "uint256"
        }
      ],
      "stateMutability": "payable",
      "type": "function",
      "payable": true
    },
    {
      "inputs": [],
      "name": "getNoOfSurveys",
      "outputs": [
        {
          "internalType": "uint256",
          "name": "numsurveys",
          "type": "uint256"
        }
      ],
      "stateMutability": "view",
      "type": "function",
      "constant": true
    },
    {
      "inputs": [
        {
          "internalType": "address",
          "name": "to",
          "type": "address"
        },
        {
          "internalType": "uint256",
          "name": "amount",
          "type": "uint256"
        }
      ],
      "name": "transfer",
      "outputs": [
        {
          "internalType": "bool",
          "name": "",
          "type": "bool"
        }
      ],
      "stateMutability": "nonpayable",
      "type": "function"
    },
    {
      "inputs": [
        {
          "internalType": "address",
          "name": "from",
          "type": "address"
        },
        {
          "internalType": "address",
          "name": "to",
          "type": "address"
        },
        {
          "internalType": "uint256",
          "name": "amount",
          "type": "uint256"
        }
      ],
      "name": "transferFrom",
      "outputs": [
        {
          "internalType": "bool",
          "name": "",
          "type": "bool"
        }
      ],
      "stateMutability": "nonpayable",
      "type": "function"
    },
    {
      "inputs": [],
      "name": "donateEther",
      "outputs": [],
      "stateMutability": "payable",
      "type": "function",
      "payable": true
    },
    {
      "inputs": [
        {
          "internalType": "uint256",
          "name": "amount",
          "type": "uint256"
        }
      ],
      "name": "donateMyGovToken",
      "outputs": [],
      "stateMutability": "nonpayable",
      "type": "function"
    },
    {
      "inputs": [
        {
          "internalType": "uint256",
          "name": "surveyid",
          "type": "uint256"
        }
      ],
      "name": "getSurveyInfo",
      "outputs": [
        {
          "internalType": "string",
          "name": "ipfshash",
          "type": "string"
        },
        {
          "internalType": "uint256",
          "name": "deadline",
          "type": "uint256"
        },
        {
          "internalType": "uint256",
          "name": "numchoices",
          "type": "uint256"
        },
        {
          "internalType": "uint256",
          "name": "atmostchoice",
          "type": "uint256"
        }
      ],
      "stateMutability": "view",
      "type": "function",
      "constant": true
    },
    {
      "inputs": [
        {
          "internalType": "uint256",
          "name": "surveyid",
          "type": "uint256"
        }
      ],
      "name": "getSurveyOwner",
      "outputs": [
        {
          "internalType": "address",
          "name": "surveyowner",
          "type": "address"
        }
      ],
      "stateMutability": "view",
      "type": "function",
      "constant": true
    },
    {
      "inputs": [
        {
          "internalType": "uint256",
          "name": "surveyid",
          "type": "uint256"
        },
        {
          "internalType": "uint256[]",
          "name": "choices",
          "type": "uint256[]"
        }
      ],
      "name": "takeSurvey",
      "outputs": [],
      "stateMutability": "nonpayable",
      "type": "function"
    },
    {
      "inputs": [
        {
          "internalType": "uint256",
          "name": "surveyid",
          "type": "uint256"
        }
      ],
      "name": "getSurveyResults",
      "outputs": [
        {
          "internalType": "uint256",
          "name": "numtaken",
          "type": "uint256"
        },
        {
          "internalType": "uint256[]",
          "name": "results",
          "type": "uint256[]"
        }
      ],
      "stateMutability": "view",
      "type": "function",
      "constant": true
    }
  ],
  "bytecode": "0x60806040526298968060065560006008556000600a556000600b556000600e55600060105560006011553480156200003657600080fd5b506040518060400160405280600581526020016426bca3b7bb60d91b8152506040518060400160405280600381526020016226a3ab60e91b8152508160039081620000829190620003b7565b506004620000918282620003b7565b506200009f915050620000a5565b620004d1565b3360009081526005602052604090205460ff1615156001036200010f5760405162461bcd60e51b815260206004820152601f60248201527f416c72656164792074616b656e207468652066617563657420746f6b656e2e0060448201526064015b60405180910390fd5b60065462000127620001e860201b620007031760201c565b03620001765760405162461bcd60e51b815260206004820152601c60248201527f54686520656e64206f662074686520746f6b656e20737570706c792e00000000604482015260640162000106565b336000818152600560205260409020805460ff191660011790556200019b90620001ee565b620001a83360016200023a565b60088054906000620001ba8362000499565b909155505060405160018152339030906000805160206200445f8339815191529060200160405180910390a3565b60025490565b6001600160a01b038116600081815260076020526040808220805460ff19166001179055517f6d64c69f9bb61bd62eff9bf5168ed487f22cb5fda075fa5c9531c37a4ff1335d9190a250565b6001600160a01b038216620002925760405162461bcd60e51b815260206004820152601f60248201527f45524332303a206d696e7420746f20746865207a65726f206164647265737300604482015260640162000106565b8060026000828254620002a69190620004b5565b90915550506001600160a01b03821660009081526020819052604081208054839290620002d5908490620004b5565b90915550506040518181526001600160a01b038316906000906000805160206200445f8339815191529060200160405180910390a35050565b505050565b634e487b7160e01b600052604160045260246000fd5b600181811c908216806200033e57607f821691505b6020821081036200035f57634e487b7160e01b600052602260045260246000fd5b50919050565b601f8211156200030e57600081815260208120601f850160051c810160208610156200038e5750805b601f850160051c820191505b81811015620003af578281556001016200039a565b505050505050565b81516001600160401b03811115620003d357620003d362000313565b620003eb81620003e4845462000329565b8462000365565b602080601f8311600181146200042357600084156200040a5750858301515b600019600386901b1c1916600185901b178555620003af565b600085815260208120601f198616915b82811015620004545788860151825594840194600190910190840162000433565b5085821015620004735787850151600019600388901b60f8161c191681555b5050505050600190811b01905550565b634e487b7160e01b600052601160045260246000fd5b600060018201620004ae57620004ae62000483565b5060010190565b80820180821115620004cb57620004cb62000483565b92915050565b613f7e80620004e16000396000f3fe60806040526004361061019f5760003560e01c806306fdde03146101a4578063095ea7b3146101cf57806318160ddd146101ff5780631d2acdfd1461021e57806323b872dd1461023e57806323fd498b1461025e5780632e8f341314610273578063313ce567146102a357806339509351146102bf57806339c94d2d146102df57806342caaeb4146103015780635d801b3714610321578063702798df1461033657806370a082311461035657806370a56c73146103765780637c405164146103a4578063863451dd146103d8578063875b5076146103e057806392256aec1461043157806395d89b411461046a5780639983fa581461047f578063a1669b32146104af578063a230c524146104cf578063a457c2d7146104ef578063a5e898e11461050f578063a9059cbb14610522578063bcf2cb0f14610542578063bd27576414610562578063bd6c733c14610582578063bf50556d14610595578063d5abeb01146105aa578063dd62ed3e146105bf578063de5f72fd146105df578063ef269ae3146105f4578063f22449ba14610607578063fabf596814610627575b600080fd5b3480156101b057600080fd5b506101b9610657565b6040516101c6919061363c565b60405180910390f35b3480156101db57600080fd5b506101ef6101ea366004613672565b6106e9565b60405190151581526020016101c6565b34801561020b57600080fd5b506002545b6040519081526020016101c6565b34801561022a57600080fd5b5061021061023936600461369c565b610709565b34801561024a57600080fd5b506101ef6102593660046136b5565b610746565b34801561026a57600080fd5b50601054610210565b34801561027f57600080fd5b5061029361028e36600461369c565b6107f6565b6040516101c694939291906136f1565b3480156102af57600080fd5b50604051601281526020016101c6565b3480156102cb57600080fd5b506101ef6102da366004613672565b6108ca565b3480156102eb57600080fd5b506102ff6102fa36600461369c565b6108ec565b005b34801561030d57600080fd5b506102ff61031c366004613720565b610961565b34801561032d57600080fd5b50600b54610210565b34801561034257600080fd5b506102ff610351366004613755565b610cba565b34801561036257600080fd5b506102106103713660046137d3565b611035565b34801561038257600080fd5b5061039661039136600461369c565b611050565b6040516101c6929190613829565b3480156103b057600080fd5b506101ef6103bf36600461369c565b6000908152600d60208190526040909120015460ff1690565b6102ff6110bc565b3480156103ec57600080fd5b506104196103fb36600461369c565b6000908152600960205260409020600601546001600160a01b031690565b6040516001600160a01b0390911681526020016101c6565b34801561043d57600080fd5b5061041961044c36600461369c565b6000908152600d60205260409020600701546001600160a01b031690565b34801561047657600080fd5b506101b9611123565b34801561048b57600080fd5b5061021061049a36600461369c565b6000908152600d602052604090206006015490565b3480156104bb57600080fd5b506102ff6104ca366004613672565b611132565b3480156104db57600080fd5b506101ef6104ea3660046137d3565b61142e565b3480156104fb57600080fd5b506101ef61050a366004613672565b61144c565b6102ff61051d36600461397e565b6114d2565b34801561052e57600080fd5b506101ef61053d366004613672565b6117f6565b34801561054e57600080fd5b5061021061055d36600461369c565b611893565b34801561056e57600080fd5b506102ff61057d36600461369c565b6119fa565b6102ff61059036600461369c565b611cf6565b3480156105a157600080fd5b50601154610210565b3480156105b657600080fd5b50600654610210565b3480156105cb57600080fd5b506102106105da366004613a0f565b6120b1565b3480156105eb57600080fd5b506102ff6120dc565b610210610602366004613a42565b6121fd565b34801561061357600080fd5b506102ff610622366004613720565b612421565b34801561063357600080fd5b5061064761064236600461369c565b6126ad565b6040516101c69493929190613a95565b60606003805461066690613ad4565b80601f016020809104026020016040519081016040528092919081815260200182805461069290613ad4565b80156106df5780601f106106b4576101008083540402835291602001916106df565b820191906000526020600020905b8154815290600101906020018083116106c257829003601f168201915b5050505050905090565b6000336106f7818585612830565b60019150505b92915050565b60025490565b6000818152600d60205260408120600e81015460049091018054909190811061073457610734613b0e565b90600052602060002001549050919050565b600083828061075483611035565b101561077b5760405162461bcd60e51b815260040161077290613b24565b60405180910390fd5b8061078583611035565b036107c0576001600160a01b038216600090815260136020526040902054156107c05760405162461bcd60e51b815260040161077290613b4f565b336107cc878287612955565b6107d78787876129cf565b6107e087612b8b565b6107e986612b8b565b5060019695505050505050565b6060600080600060096000868152602001908152602001600020600101805461081e90613ad4565b80601f016020809104026020016040519081016040528092919081815260200182805461084a90613ad4565b80156108975780601f1061086c57610100808354040283529160200191610897565b820191906000526020600020905b81548152906001019060200180831161087a57829003601f168201915b50505060009788525050600960205260409095206002810154600382015460049092015496979096919550909350915050565b6000336106f78185856108dd83836120b1565b6108e79190613b94565b612830565b806108f633611035565b10156109385760405162461bcd60e51b81526020600482015260116024820152706e6f7420656e6f75676820746f6b656e7360781b6044820152606401610772565b6109423382612c10565b6040518190600190600080516020613f2983398151915290600090a350565b3361096b8161142e565b6109875760405162461bcd60e51b815260040161077290613ba7565b6000838152600d602081905260409091200154839060ff166109bb5760405162461bcd60e51b815260040161077290613bd5565b3360006109c786611893565b905060008112156109ea5760405162461bcd60e51b815260040161077290613c05565b6000868152600d60209081526040808320848452600f0182528083206001600160a01b03861684526005019091529020548190600113610a605760405162461bcd60e51b8152602060048201526011602482015270796f7520766f74656420616c726561647960781b6044820152606401610772565b60008615610b0a576000888152600d60209081526040808320858452600f018252808320600281018054600180820183559186528486200180546001600160a01b0319166001600160a01b038b169081179091558552600590910190925290912054610acb91613c34565b6000898152600d60209081526040808320868452600f01909152812060040180549293508392909190610aff908490613b94565b90915550610b509050565b6000888152600d60209081526040808320858452600f0182528220600301805460018101825590835291200180546001600160a01b0319166001600160a01b0386161790555b6000888152600d60209081526040808320858452600f0182528083206001600160a01b038816845260050182528083206001905533835260139091528120805491610b9a83613c5b565b919050555060005b6000898152600d60209081526040808320338452601001909152902054811015610c40576000898152600d602090815260408083203384526010019091528120805483908110610bf457610bf4613b0e565b60009182526020808320909101546001600160a01b031680835260139091526040822080549193509091610c2783613c5b565b9190505550508080610c3890613c5b565b915050610ba2565b506000888152600d60209081526040808320858452600f0182528083206001600160a01b0388168452600501909152902054610c7d906001613c34565b60408051891515815260208101869052919250829133918b91600080516020613ee983398151915291015b60405180910390a45050505050505050565b610cc33361142e565b610cdf5760405162461bcd60e51b815260040161077290613c74565b600083815260096020526040902060040154811115610d345760405162461bcd60e51b8152602060048201526011602482015270746f6f206d7563682063686f696365732160781b6044820152606401610772565b600083815260096020908152604080832033845260080190915290205460ff1615610d985760405162461bcd60e51b81526020600482015260146024820152737375727665792074616b656e206265666f72652160601b6044820152606401610772565b6000838152600960205260409020600201544210801590610dd25750600083815260096020526040902060060154600160a01b900460ff16155b15610e04576000838152600960205260409020600601805460ff60a01b1916600160a01b179055610e0283612d49565b505b600083815260096020526040902060020154421115610e355760405162461bcd60e51b815260040161077290613ca3565b336000908152601360205260408120805491610e5083613c5b565b919050555060005b808214610ef257600084815260096020526040902060030154838383818110610e8357610e83613b0e565b9050602002013510610ea75760405162461bcd60e51b815260040161077290613ccc565b6000838383818110610ebb57610ebb613b0e565b905060200201351015610ee05760405162461bcd60e51b815260040161077290613ccc565b80610eea81613c5b565b915050610e58565b6000848152600960205260408120600501805491610f0f83613c5b565b909155505060008481526009602090815260408083203384526007019091529020610f3b90848461355b565b50600090505b808214610fb157600084815260096020819052604090912001838383818110610f6c57610f6c613b0e565b9050602002013581548110610f8357610f83613b0e565b60009182526020822001805491610f9983613c5b565b91905055508080610fa990613c5b565b915050610f41565b60008481526009602090815260408083203380855260089091018352818420805460ff19166001908117909155888552600c845282852080549182018155855292842090920180546001600160a01b0319169092179091555185917f79ba8519b87e0f1e45ba4385815fbead92b15e54774538ad53c16f17549aadf091a250505050565b6001600160a01b031660009081526020819052604090205490565b600081815260096020818152604092839020600581015492018054845181840281018401909552808552929360609390928301828280156110b057602002820191906000526020600020905b81548152602001906001019080831161109c575b50505050509050915091565b600034116111065760405162461bcd60e51b81526020600482015260176024820152767a65726f20776569206e6f742061636365707461626c6560481b6044820152606401610772565b6040513490600090600080516020613f29833981519152908290a3565b60606004805461066690613ad4565b6000818152600d60205260409020600201544281116111635760405162461bcd60e51b815260040161077290613ca3565b6000828152600d6020908152604080832033808552600a909101909252808320546001600160a01b03871684529220549061119d9061142e565b6111b95760405162461bcd60e51b815260040161077290613c74565b6111c28561142e565b6112095760405162461bcd60e51b81526020600482015260186024820152773232b632b3b0ba32b2103a379030903737b736b2b6b132b960411b6044820152606401610772565b600182126112685760405162461bcd60e51b815260206004820152602660248201527f796f7520616c726561647920766f7465642f64656c65676174656420796f757260448201526520766f74652160d01b6064820152608401610772565b600181126112b85760405162461bcd60e51b815260206004820152601f60248201527f64656c656761746564206d656d62657220616c726561647920766f74656421006044820152606401610772565b816112c281613cfe565b6000868152600d60209081526040808320338452600a01909152808220600190556001600160a01b03891682528120805492955085935091611305908490613d1b565b90915550600090505b6000858152600d6020526040902060040154811015611389576000858152600d60209081526040808320848452600f018252808320338452600501909152808220600190556001600160a01b038816825281208054859290611371908490613d1b565b9091555081905061138181613c5b565b91505061130e565b506000848152600d602090815260408083206001600160a01b03891684526010018252822080546001810182559083529082200180546001600160a01b031916331790556113d683613d3b565b9050856001600160a01b0316336001600160a01b0316867f9636d83d1d83ccab223adf7395d57897ed79d812b8d86f65e405fba35edd81b28460405161141e91815260200190565b60405180910390a4505050505050565b6001600160a01b031660009081526007602052604090205460ff1690565b6000338161145a82866120b1565b9050838110156114ba5760405162461bcd60e51b815260206004820152602560248201527f45524332303a2064656372656173656420616c6c6f77616e63652062656c6f77604482015264207a65726f60d81b6064820152608401610772565b6114c78286868403612830565b506001949350505050565b336005806114df83611035565b10156114fd5760405162461bcd60e51b815260040161077290613b24565b8061150783611035565b03611542576001600160a01b038216600090815260136020526040902054156115425760405162461bcd60e51b815260040161077290613b4f565b3467016345785d8a0000146115695760405162461bcd60e51b815260040161077290613d57565b4285116115ad5760405162461bcd60e51b8152602060048201526012602482015271191958591b1a5b99481b9bdd081d985b1a5960721b6044820152606401610772565b82518451146116085760405162461bcd60e51b815260206004820152602160248201527f696e76616c6964207061796d656e7420616d6f756e74732f7363686564756c656044820152607360f81b6064820152608401610772565b8460005b845181101561169f578185828151811061162857611628613b0e565b6020026020010151116116705760405162461bcd60e51b815260206004820152601060248201526f696e76616c6964207363686564756c6560801b6044820152606401610772565b84818151811061168257611682613b0e565b60200260200101519150808061169790613c5b565b91505061160c565b506116ab336005612c10565b6116b433612b8b565b600e546000818152600d60205260409020818155600181016116d68a82613dd0565b506002810188905586516116f390600383019060208a01906135a6565b50855161170990600483019060208901906135a6565b506000805b88518110156117505788818151811061172957611729613b0e565b60200260200101518261173c9190613b94565b91508061174881613c5b565b91505061170e565b50600582018190556007820180546001600160a01b03191633179055600d8201805460ff191690556000600e8084018290556006840182905580549161179583613c5b565b9091555050601080549060006117aa83613c5b565b919050555080837fe7fc47d8012ec2222ddacd3d44ea2b26ea34c44618e761fe5680681552ed836c8b6040516117e291815260200190565b60405180910390a350505050505050505050565b600033828061180483611035565b10156118225760405162461bcd60e51b815260040161077290613b24565b8061182c83611035565b03611867576001600160a01b038216600090815260136020526040902054156118675760405162461bcd60e51b815260040161077290613b4f565b336118738187876129cf565b61187c33612b8b565b61188586612b8b565b60019350505b505092915050565b6000818152600d60205260408120600e015442825b6000858152600d6020526040902060040154831080156118f757506000858152600d602052604090206004018054839190859081106118e9576118e9613b0e565b906000526020600020015411155b15611976576119068584612df7565b61191f5761191385612e31565b50600019949350505050565b6000858152600d6020526040902060030180548490811061194257611942613b0e565b9060005260206000200154816119589190613b94565b90508261196481613c5b565b9350506119718584612eb2565b6118a8565b6000858152600d602052604090206004015483106119c65760405162461bcd60e51b815260206004820152600d60248201526c1c1c9bda9958dd08195b991959609a1b6044820152606401610772565b6000858152600d60205260408120600e01849055601280548392906119ec908490613e8f565b909155509295945050505050565b6000818152600d60205260409020600701546001600160a01b03163314611a5c5760405162461bcd60e51b8152602060048201526016602482015275796f7520617265206e6f7420746865206f776e65722160501b6044820152606401610772565b6000818152600d6020526040902060050154601254611a7b9190613b94565b471015611aca5760405162461bcd60e51b815260206004820152601e60248201527f636f6e74726163742062616c616e6365206973206e6f7420656e6f75676800006044820152606401610772565b600880546000838152600d6020526040902090910154611aeb90600a613ea2565b11611b465760405162461bcd60e51b815260206004820152602560248201527f6174206c6561737420312f3130206d75737420617070726f766520612070726f6044820152641c1bdcd85b60da1b6064820152608401610772565b6000818152600d60208190526040909120015460ff1615611ba55760405162461bcd60e51b81526020600482015260196024820152781c1c9bda9958dd081a5cc8185b1c9958591e48199d5b991959603a1b6044820152606401610772565b6000818152600d602052604090206002015442118015611bd757506000818152600d602052604090206009015460ff16155b15611c17576000818152600d60205260409020600901805460ff19166001179055611c0181613196565b60108054906000611c1183613eb9565b91905055505b6000818152600d6020526040902060020154421115611c485760405162461bcd60e51b815260040161077290613ca3565b6000818152600d602081905260408220908101805460ff19166001179055600501546012805491929091611c7d908490613b94565b90915550611c8c905081613196565b60108054906000611c9c83613eb9565b909155505060118054906000611cb183613c5b565b90915550506000818152600d6020526040808220600501549051909183917f09512d8a91d739162b3edbc84a90e2ec5fff8a70a3b86b19f272e70f41d443109190a350565b6000818152600d602081905260409091200154819060ff16611d2a5760405162461bcd60e51b815260040161077290613bd5565b6000828152600d60205260409020600201544211611d825760405162461bcd60e51b81526020600482015260156024820152741d1a5b59481a185cc81b9bdd0818dbdb59481e595d605a1b6044820152606401610772565b6000828152600d60205260409020600701546001600160a01b03163314611df75760405162461bcd60e51b8152602060048201526024808201527f796f7520617265206e6f7420746865206f776e6572206f66207468652070726f6044820152631a9958dd60e21b6064820152608401610772565b6000611e0283611893565b90506000811215611e255760405162461bcd60e51b815260040161077290613c05565b6000838152600d602052604090206004015481908110611e795760405162461bcd60e51b815260206004820152600f60248201526e70726f6a65637420636c6f7365642160881b6044820152606401610772565b6008546000858152600d60209081526040808320858452600f01909152902060040154611ea7906064613ea2565b11611ee75760405162461bcd60e51b815260206004820152601060248201526f766f7465206e6f74207061737365642160801b6044820152606401610772565b6000848152600d60205260408120600301805483908110611f0a57611f0a613b0e565b90600052602060002001549050816001611f249190613b94565b6000868152600d60205260408120600e019190915560128054839290611f4b908490613e8f565b90915550506000858152600d602052604081206006018054839290611f71908490613b94565b90915550611f8190508583612eb2565b6000858152600d60208181526040808420868552600f810183529084206001908101805460ff1916821790559389905291905260030154611fc29190613e8f565b820361200a576000858152600d60208190526040822001805460ff191690556010805491611fef83613eb9565b90915550506011805490600061200483613eb9565b91905055505b6040513390600090829084156108fc0290859084818181858888f193505050509050806120795760405162461bcd60e51b815260206004820181905260248201527f7061796d656e74206661696c65642c2074727920616761696e206c617465722e6044820152606401610772565b8284887f4de79efceb38f14026173a22fb2113555409a7a88343c2a780064d2ce0a00a8760405160405180910390a450505050505050565b6001600160a01b03918216600090815260016020908152604080832093909416825291909152205490565b3360009081526005602052604090205460ff1615156001036121405760405162461bcd60e51b815260206004820152601f60248201527f416c72656164792074616b656e207468652066617563657420746f6b656e2e006044820152606401610772565b600654600254036121925760405162461bcd60e51b815260206004820152601c60248201527b2a34329032b7321037b3103a3432903a37b5b2b71039bab838363c9760211b6044820152606401610772565b336000818152600560205260409020805460ff191660011790556121b590613442565b6121c033600161348e565b600880549060006121d083613c5b565b90915550506040516001815233903090600080516020613ec98339815191529060200160405180910390a3565b60003360028061220c83611035565b101561222a5760405162461bcd60e51b815260040161077290613b24565b8061223483611035565b0361226f576001600160a01b0382166000908152601360205260409020541561226f5760405162461bcd60e51b815260040161077290613b4f565b34668e1bc9bf040000146122955760405162461bcd60e51b815260040161077290613d57565b4286116122da5760405162461bcd60e51b8152602060048201526013602482015272646561646c696e65206e6f742076616c69642160681b6044820152606401610772565b848411156123205760405162461bcd60e51b8152602060048201526013602482015272696e76616c696420706172616d65746572732160681b6044820152606401610772565b61232b336002612c10565b61233433612b8b565b600a546000818152600960205260409020818155909350600181016123598982613dd0565b506002810187905560038101869055600481018590556000600582018190556006820180546001600160a01b031916331790555b868110156123be576009820180546001810182556000918252602082200155806123b681613c5b565b91505061238d565b50600a80549060006123cf83613c5b565b9091555050600b80549060006123e483613c5b565b9091555050604051879085907fec02785706aa019d84f4d2c3917a6c591d63dd807a9f65bca7354f3e9c9b9b3e90600090a3505050949350505050565b3361242b8161142e565b6124475760405162461bcd60e51b815260040161077290613ba7565b6000838152600d60205260409020600201544281116124785760405162461bcd60e51b815260040161077290613ca3565b6000848152600d6020908152604080832033808552600a909101909252909120548590600181126124e65760405162461bcd60e51b8152602060048201526018602482015277616c726561647920766f7465642f64656c6567617465642160401b6044820152606401610772565b6000878152600d60209081526040808320338452600a0190915281205461250e906001613c34565b6000898152600d60209081526040808320338452600a019091529020600190559050861561258c576000888152600d602090815260408220600b8101805460018101825590845291832090910180546001600160a01b031916331790558982526008018054839290612581908490613b94565b909155506125be9050565b6000888152600d602090815260408220600c01805460018101825590835291200180546001600160a01b031916331790555b3360009081526013602052604081208054916125d983613c5b565b919050555060005b6000898152600d6020908152604080832033845260100190915290205481101561267f576000898152600d60209081526040808320338452601001909152812080548390811061263357612633613b0e565b60009182526020808320909101546001600160a01b03168083526013909152604082208054919350909161266683613c5b565b919050555050808061267790613c5b565b9150506125e1565b506040805188151581526000196020820152829133918b91600080516020613ee98339815191529101610ca8565b60606000606080600d600086815260200190815260200160002060010180546126d590613ad4565b80601f016020809104026020016040519081016040528092919081815260200182805461270190613ad4565b801561274e5780601f106127235761010080835404028352916020019161274e565b820191906000526020600020905b81548152906001019060200180831161273157829003601f168201915b5050506000888152600d6020908152604091829020600281015460039091018054845181850281018501909552808552969a5090985091949193509091508301828280156127bb57602002820191906000526020600020905b8154815260200190600101908083116127a7575b50505050509150600d600086815260200190815260200160002060040180548060200260200160405190810160405280929190818152602001828054801561282257602002820191906000526020600020905b81548152602001906001019080831161280e575b505050505090509193509193565b6001600160a01b0383166128925760405162461bcd60e51b8152602060048201526024808201527f45524332303a20617070726f76652066726f6d20746865207a65726f206164646044820152637265737360e01b6064820152608401610772565b6001600160a01b0382166128f35760405162461bcd60e51b815260206004820152602260248201527f45524332303a20617070726f766520746f20746865207a65726f206164647265604482015261737360f01b6064820152608401610772565b6001600160a01b0383811660008181526001602090815260408083209487168084529482529182902085905590518481527f8c5be1e5ebec7d5bd14f71427d1e84f3dd0314c0f7b2291e5b200ac8c7c3b92591015b60405180910390a3505050565b600061296184846120b1565b905060001981146129c957818110156129bc5760405162461bcd60e51b815260206004820152601d60248201527f45524332303a20696e73756666696369656e7420616c6c6f77616e63650000006044820152606401610772565b6129c98484848403612830565b50505050565b6001600160a01b038316612a335760405162461bcd60e51b815260206004820152602560248201527f45524332303a207472616e736665722066726f6d20746865207a65726f206164604482015264647265737360d81b6064820152608401610772565b6001600160a01b038216612a955760405162461bcd60e51b815260206004820152602360248201527f45524332303a207472616e7366657220746f20746865207a65726f206164647260448201526265737360e81b6064820152608401610772565b6001600160a01b03831660009081526020819052604090205481811015612b0d5760405162461bcd60e51b815260206004820152602660248201527f45524332303a207472616e7366657220616d6f756e7420657863656564732062604482015265616c616e636560d01b6064820152608401610772565b6001600160a01b03808516600090815260208190526040808220858503905591851681529081208054849290612b44908490613b94565b92505081905550826001600160a01b0316846001600160a01b0316600080516020613ec983398151915284604051612b7e91815260200190565b60405180910390a36129c9565b612b9481611035565b600003612bd1576001600160a01b0381166000908152600760205260408120805460ff191690556008805491612bc983613eb9565b919050555050565b6000612bdc82611035565b118015612bef5750612bed8161142e565b155b15612c0d57612bfd81613442565b60088054906000612bc983613c5b565b50565b6001600160a01b038216612c705760405162461bcd60e51b815260206004820152602160248201527f45524332303a206275726e2066726f6d20746865207a65726f206164647265736044820152607360f81b6064820152608401610772565b6001600160a01b03821660009081526020819052604090205481811015612ce45760405162461bcd60e51b815260206004820152602260248201527f45524332303a206275726e20616d6f756e7420657863656564732062616c616e604482015261636560f01b6064820152608401610772565b6001600160a01b0383166000908152602081905260408120838303905560028054849290612d13908490613e8f565b90915550506040518281526000906001600160a01b03851690600080516020613ec983398151915290602001612948565b505050565b6000805b600083815260096020526040902060050154811015612dd2576000838152600c60205260408120805483908110612d8657612d86613b0e565b60009182526020808320909101546001600160a01b031680835260139091526040822080549193509091612db983613eb9565b91905055508180612dc990613c5b565b92505050612d4d565b6000836002600080516020613f0983398151915260405160405180910390a492915050565b6008546000838152600d60209081526040808320858452600f01909152812060040154909190612e28906064613ea2565b10159392505050565b6000818152600d602052604081206006810154600590910154612e549190613e8f565b90508060126000828254612e689190613e8f565b90915550506000828152600d60208190526040822001805460ff191690556010805491612e9483613eb9565b909155505060118054906000612ea983613eb9565b91905055505050565b60005b6000838152600d60209081526040808320858452600f01909152902060020154811015613012576000838152600d60209081526040808320858452600f019091528120600201805483908110612f0d57612f0d613b0e565b60009182526020822001546001600160a01b031691505b6000858152600d602090815260408083206001600160a01b0386168452601001909152902054811015612fd4576000858152600d602090815260408083206001600160a01b03861684526010019091528120805483908110612f8857612f88613b0e565b60009182526020808320909101546001600160a01b031680835260139091526040822080549193509091612fbb83613eb9565b9190505550508080612fcc90613c5b565b915050612f24565b506001600160a01b0381166000908152601360205260408120805491612ff983613eb9565b9190505550818061300990613c5b565b92505050612eb5565b5060005b6000838152600d60209081526040808320858452600f01909152902060030154811015613173576000838152600d60209081526040808320858452600f01909152812060030180548390811061306e5761306e613b0e565b60009182526020822001546001600160a01b031691505b6000858152600d602090815260408083206001600160a01b0386168452601001909152902054811015613135576000858152600d602090815260408083206001600160a01b038616845260100190915281208054839081106130e9576130e9613b0e565b60009182526020808320909101546001600160a01b03168083526013909152604082208054919350909161311c83613eb9565b919050555050808061312d90613c5b565b915050613085565b506001600160a01b038116600090815260136020526040812080549161315a83613eb9565b9190505550818061316a90613c5b565b92505050613016565b81836001600080516020613f0983398151915260405160405180910390a4505050565b60005b6000828152600d60205260409020600b01548110156132da576000828152600d60205260408120600b018054839081106131d5576131d5613b0e565b60009182526020822001546001600160a01b031691505b6000848152600d602090815260408083206001600160a01b038616845260100190915290205481101561329c576000848152600d602090815260408083206001600160a01b0386168452601001909152812080548390811061325057613250613b0e565b60009182526020808320909101546001600160a01b03168083526013909152604082208054919350909161328383613eb9565b919050555050808061329490613c5b565b9150506131ec565b506001600160a01b03811660009081526013602052604081208054916132c183613eb9565b919050555081806132d190613c5b565b92505050613199565b5060005b6000828152600d60205260409020600c015481101561341f576000828152600d60205260408120600c0180548390811061331a5761331a613b0e565b60009182526020822001546001600160a01b031691505b6000848152600d602090815260408083206001600160a01b03861684526010019091529020548110156133e1576000848152600d602090815260408083206001600160a01b0386168452601001909152812080548390811061339557613395613b0e565b60009182526020808320909101546001600160a01b0316808352601390915260408220805491935090916133c883613eb9565b91905055505080806133d990613c5b565b915050613331565b506001600160a01b038116600090815260136020526040812080549161340683613eb9565b9190505550818061341690613c5b565b925050506132de565b6000826000600080516020613f0983398151915260405160405180910390a45050565b6001600160a01b038116600081815260076020526040808220805460ff19166001179055517f6d64c69f9bb61bd62eff9bf5168ed487f22cb5fda075fa5c9531c37a4ff1335d9190a250565b6001600160a01b0382166134e45760405162461bcd60e51b815260206004820152601f60248201527f45524332303a206d696e7420746f20746865207a65726f2061646472657373006044820152606401610772565b80600260008282546134f69190613b94565b90915550506001600160a01b03821660009081526020819052604081208054839290613523908490613b94565b90915550506040518181526001600160a01b03831690600090600080516020613ec98339815191529060200160405180910390a35050565b828054828255906000526020600020908101928215613596579160200282015b8281111561359657823582559160200191906001019061357b565b506135a29291506135e1565b5090565b828054828255906000526020600020908101928215613596579160200282015b828111156135965782518255916020019190600101906135c6565b5b808211156135a257600081556001016135e2565b6000815180845260005b8181101561361c57602081850181015186830182015201613600565b506000602082860101526020601f19601f83011685010191505092915050565b60208152600061364f60208301846135f6565b9392505050565b80356001600160a01b038116811461366d57600080fd5b919050565b6000806040838503121561368557600080fd5b61368e83613656565b946020939093013593505050565b6000602082840312156136ae57600080fd5b5035919050565b6000806000606084860312156136ca57600080fd5b6136d384613656565b92506136e160208501613656565b9150604084013590509250925092565b60808152600061370460808301876135f6565b6020830195909552506040810192909252606090910152919050565b6000806040838503121561373357600080fd5b823591506020830135801515811461374a57600080fd5b809150509250929050565b60008060006040848603121561376a57600080fd5b8335925060208401356001600160401b038082111561378857600080fd5b818601915086601f83011261379c57600080fd5b8135818111156137ab57600080fd5b8760208260051b85010111156137c057600080fd5b6020830194508093505050509250925092565b6000602082840312156137e557600080fd5b61364f82613656565b600081518084526020808501945080840160005b8381101561381e57815187529582019590820190600101613802565b509495945050505050565b82815260406020820152600061384260408301846137ee565b949350505050565b634e487b7160e01b600052604160045260246000fd5b604051601f8201601f191681016001600160401b03811182821017156138885761388861384a565b604052919050565b600082601f8301126138a157600080fd5b81356001600160401b038111156138ba576138ba61384a565b6138cd601f8201601f1916602001613860565b8181528460208386010111156138e257600080fd5b816020850160208301376000918101602001919091529392505050565b600082601f83011261391057600080fd5b813560206001600160401b0382111561392b5761392b61384a565b8160051b61393a828201613860565b928352848101820192828101908785111561395457600080fd5b83870192505b848310156139735782358252918301919083019061395a565b979650505050505050565b6000806000806080858703121561399457600080fd5b84356001600160401b03808211156139ab57600080fd5b6139b788838901613890565b95506020870135945060408701359150808211156139d457600080fd5b6139e0888389016138ff565b935060608701359150808211156139f657600080fd5b50613a03878288016138ff565b91505092959194509250565b60008060408385031215613a2257600080fd5b613a2b83613656565b9150613a3960208401613656565b90509250929050565b60008060008060808587031215613a5857600080fd5b84356001600160401b03811115613a6e57600080fd5b613a7a87828801613890565b97602087013597506040870135966060013595509350505050565b608081526000613aa860808301876135f6565b8560208401528281036040840152613ac081866137ee565b9050828103606084015261397381856137ee565b600181811c90821680613ae857607f821691505b602082108103613b0857634e487b7160e01b600052602260045260246000fd5b50919050565b634e487b7160e01b600052603260045260246000fd5b6020808252601190820152706e6f7420656e6f75676820746f6b656e2160781b604082015260600190565b60208082526015908201527461637469766520766f74652064657465637465642160581b604082015260600190565b634e487b7160e01b600052601160045260246000fd5b808201808211156106fd576106fd613b7e565b6020808252601490820152731b595b58995c9cda1a5c081b9bdd081d985b1a5960621b604082015260600190565b60208082526016908201527570726f6a656374206973206e6f742066756e6465642160501b604082015260600190565b6020808252601590820152741c1c9bda9958dd081a5cc81b9bdd08199d5b991959605a1b604082015260600190565b8181036000831280158383131683831282161715613c5457613c54613b7e565b5092915050565b600060018201613c6d57613c6d613b7e565b5060010190565b602080825260159082015274796f7520617265206e6f742061206d656d6265722160581b604082015260600190565b6020808252600f908201526e191958591b1a5b99481c185cdcd959608a1b604082015260600190565b602080825260189082015277696e76616c69642063686f6963652064657465637465642160401b604082015260600190565b6000600160ff1b8201613d1357613d13613b7e565b506000190190565b808201828112600083128015821682158216171561188b5761188b613b7e565b6000600160ff1b8201613d5057613d50613b7e565b5060000390565b6020808252601190820152706e6f7420656e6f7567682065746865722160781b604082015260600190565b601f821115612d4457600081815260208120601f850160051c81016020861015613da95750805b601f850160051c820191505b81811015613dc857828155600101613db5565b505050505050565b81516001600160401b03811115613de957613de961384a565b613dfd81613df78454613ad4565b84613d82565b602080601f831160018114613e325760008415613e1a5750858301515b600019600386901b1c1916600185901b178555613dc8565b600085815260208120601f198616915b82811015613e6157888601518255948401946001909101908401613e42565b5085821015613e7f5787850151600019600388901b60f8161c191681555b5050505050600190811b01905550565b818103818111156106fd576106fd613b7e565b80820281158282048414176106fd576106fd613b7e565b600081613d1357613d13613b7e56feddf252ad1be2c89b69c2b068fc378daa952ba7f163c4a11628f55a4df523b3efa794f652b7c0a6699d9ee29a4315833e069837d87ea5a4565405e775a9500acba2ead9aea0382f035fe5668158f6902b06a5fed121fc13d76e81cc79a35dcd29965f7409cc0fd75aafcf803f57c201a8530900e4a4cbc0c622b1ea8f4cfbcf47a26469706673582212208a869a0cbb22038fbc8a77719daaded9718b79f3f689528f10f67f5f2cc702da64736f6c63430008110033ddf252ad1be2c89b69c2b068fc378daa952ba7f163c4a11628f55a4df523b3ef",
  "immutableReferences": {},
  "source": "// SPDX-License-Identifier: MIT\npragma solidity ^0.8.4;\n\nimport \"openzeppelin-solidity/contracts/token/ERC20/ERC20.sol\";\nimport \"openzeppelin-solidity/contracts/token/ERC20/extensions/ERC20Burnable.sol\";\nimport \"openzeppelin-solidity/contracts/access/Ownable.sol\";\nimport \"./IMyGov.sol\";\n\n\nstruct SurveyProposal {\n    uint id;\n    string ipfshash;\n    uint deadline;\n    uint numchoices;\n    uint atmostchoice;\n    uint numtaken;\n    address owner;\n    bool tokenRightsGivenBack;\n\n    mapping(address => uint[]) resultsOfMembers;\n    mapping(address => bool) memberTakenSurvey; \n    uint[] resultsOfChoices;\n\n}\n\n\n\nstruct ProjectProposal {\n    uint id;\n    string ipfshash;\n    uint deadline;\n    uint[] payment_amounts;\n    uint[] payment_schedule;\n    uint total_payment; \n    uint balance;\n    address owner;\n    uint sumOfApprovals;\n    bool tokenRightsGivenBack;\n\n    mapping(address => int) numUsedVotes;\n    address[] approvals;\n    address[] refusals;\n    bool funded;\n    uint next_payment_index;\n    mapping(uint => Project) payments;\n    mapping(address => address[]) delegators;\n}\n\n\n\nstruct Project {\n    uint id;\n    bool tokenRightsGivenBack;\n    address[] payment_approvals;\n    address[] payment_refusals;\n    uint sum_of_approvals;\n    mapping(address => int) num_used_votes;\n}\n\ncontract MyGov is ERC20, IMyGov {\n\n    mapping(address => bool) private _faucets;\n    uint private _maxSupply = 10000000;\n    mapping(address => bool) private _members;\n    uint private _numOfMembers = 0;\n\n    mapping(uint => SurveyProposal) private _surveys;\n    uint private _surveySize = 0;\n    uint private _activeSurveys = 0;\n    mapping(uint => address[]) private _surveyeds;\n\n    mapping(uint => ProjectProposal) _projectProposals;\n    uint private _proposalSize = 0;\n    mapping(uint => address[]) private voteds;\n    uint private _activeProposals = 0;\n    uint private _fundedProjects = 0;\n\n    uint private _reservedPayments;\n    mapping(address => uint) private _activeVotes;\n\n\n    modifier enoughTokenForSubmission(address member, uint tokenAmount) {\n        require(balanceOf(member) >= tokenAmount, \"not enough token!\");\n        if(balanceOf(member) == tokenAmount) {\n            require(_activeVotes[member] == 0, \"active vote detected!\");\n        }\n        _;\n    }\n\n    modifier onlyFunded(uint projectid) {\n        require(_projectProposals[projectid].funded, \"project is not funded!\");\n        _;\n    }\n\n    modifier deadlineNotPassed(uint deadline) {\n        require(block.timestamp < deadline, \"deadline passed\");\n        _;\n    }\n\n    modifier onlyMember(address person) {\n        require(isMember(person), \"membership not valid\");\n        _;\n    }\n\n    modifier notVoted(address person, uint projectid) {\n        int vote_amount = _projectProposals[projectid].numUsedVotes[person];\n        require(vote_amount < 1, \"already voted/delegated!\");\n        _;\n    }\n\n    \n    constructor() ERC20(\"MyGov\", \"MGV\") {\n        faucet();\n    }\n\n\n    function faucet() public {\n        require(_faucets[msg.sender] != true, \"Already taken the faucet token.\");\n        require(super.totalSupply() != _maxSupply, \"The end of the token supply.\");\n        \n        _faucets[msg.sender] = true;\n        makeMember(msg.sender);\n        _mint(msg.sender, 1);\n        _numOfMembers++;\n        emit Transfer(address(this), msg.sender, 1);\n    }\n\n    function makeMember(address person) private {\n        _members[person] = true;\n        emit MemberAdd(person);\n    }\n\n    function checkMembership(address person) private {\n        if(balanceOf(person) == 0) {\n            _members[person] = false;\n            _numOfMembers--;\n        } else if(balanceOf(person) > 0 && !isMember(person)) {\n            makeMember(person);\n            _numOfMembers++;\n        }\n    }\n\n    function isMember(address person) public view returns(bool) {\n        return _members[person];\n    }\n\n    function maxSupply() public view returns(uint) {\n        return _maxSupply;\n    }\n\n\n    function submitProjectProposal(\n        string memory ipfshash,\n        uint votedeadline,\n        uint[] memory paymentamounts,\n        uint[] memory payschedule\n    ) payable public enoughTokenForSubmission(msg.sender, 5) {\n        require(msg.value == 0.1 ether, \"not enough ether!\");\n        require(votedeadline > block.timestamp, \"deadline not valid\");\n        require(paymentamounts.length == payschedule.length, \"invalid payment amounts/schedules\");\n\n        uint currentSchedule = votedeadline;\n        for(uint i=0; i<payschedule.length; i++) {\n            require(payschedule[i] > currentSchedule, \"invalid schedule\");\n            currentSchedule = payschedule[i];\n        }\n\n        super._burn(msg.sender, 5);\n        checkMembership(msg.sender);\n        uint proposalid = _proposalSize;\n        ProjectProposal storage pp = _projectProposals[proposalid];\n\n        pp.id = proposalid;\n        pp.ipfshash = ipfshash;\n        pp.deadline = votedeadline;\n        pp.payment_amounts = paymentamounts;\n        pp.payment_schedule = payschedule;\n\n        uint total = 0;\n        for(uint i=0; i<paymentamounts.length; i++) {\n            total += paymentamounts[i];\n        }\n\n        pp.total_payment = total;\n        pp.owner = msg.sender;\n        pp.funded = false;\n        pp.next_payment_index = 0;\n        pp.balance = 0;\n        pp.balance = 0;\n\n        _proposalSize++;\n        _activeProposals++;\n        emit Project(proposalid, total, votedeadline);\n    }\n\n    function getIsProjectFunded(uint projectid) public view returns(bool funded) {\n        funded = _projectProposals[projectid].funded;\n    }\n\n    function getProjectOwner(uint projectid) public view returns(address projectowner) {\n        projectowner = _projectProposals[projectid].owner;\n    }\n\n    function delegateVoteTo(address member, uint projectid) public deadlineNotPassed(_projectProposals[projectid].deadline) {\n        int vote_amount = _projectProposals[projectid].numUsedVotes[msg.sender];\n        int delegated_vote = _projectProposals[projectid].numUsedVotes[member];\n        require(isMember(msg.sender), \"you are not a member!\");\n        require(isMember(member), \"delegated to a nonmember\");\n        require(vote_amount < 1, \"you already voted/delegated your vote!\");\n        require(delegated_vote < 1, \"delegated member already voted!\");\n\n        vote_amount--;\n        _projectProposals[projectid].numUsedVotes[msg.sender] = 1;\n        _projectProposals[projectid].numUsedVotes[member] += vote_amount;\n        for(uint i=0; i<_projectProposals[projectid].payment_schedule.length; i++) {\n            _projectProposals[projectid].payments[i].num_used_votes[msg.sender] = 1;\n            _projectProposals[projectid].payments[i].num_used_votes[member] += vote_amount;\n        }\n\n        _projectProposals[projectid].delegators[member].push(msg.sender);\n        uint token_amount = uint(-(vote_amount));\n        emit Delegation(projectid, msg.sender, member, token_amount);\n    }\n\n    function voteForProjectProposal(uint projectid, bool choice) public\n        onlyMember(msg.sender)\n        deadlineNotPassed(_projectProposals[projectid].deadline)\n        notVoted(msg.sender, projectid) {\n\n            uint vote_amount = uint(1 - _projectProposals[projectid].numUsedVotes[msg.sender]);\n            _projectProposals[projectid].numUsedVotes[msg.sender] = 1;\n            if(choice) {\n                _projectProposals[projectid].approvals.push(msg.sender);\n                _projectProposals[projectid].sumOfApprovals += vote_amount;\n            } else {\n                _projectProposals[projectid].refusals.push(msg.sender);\n            }\n\n            _activeVotes[msg.sender]++; \n            for(uint i=0; i<_projectProposals[projectid].delegators[msg.sender].length; i++) {\n                address delegator = _projectProposals[projectid].delegators[msg.sender][i];\n                _activeVotes[delegator]++;\n            }\n\n            emit Vote(projectid, msg.sender, choice, vote_amount, -1);\n    }\n\n    function reserveProjectGrant(uint projectid) public {\n        require(_projectProposals[projectid].owner == msg.sender, \"you are not the owner!\");\n        require(address(this).balance >= _reservedPayments + _projectProposals[projectid].total_payment, \"contract balance is not enough\");\n        require(_projectProposals[projectid].sumOfApprovals * 10 > _numOfMembers, \"at least 1/10 must approve a proposal\");\n        require(!_projectProposals[projectid].funded, \"project is already funded\");\n\n        if(block.timestamp > _projectProposals[projectid].deadline && !_projectProposals[projectid].tokenRightsGivenBack) {\n            _projectProposals[projectid].tokenRightsGivenBack = true;\n            giveBackTokenRightProjectProposal(projectid);\n            _activeProposals--;\n        }\n\n        require(block.timestamp <= _projectProposals[projectid].deadline, \"deadline passed\");\n        _projectProposals[projectid].funded = true;\n        _reservedPayments += _projectProposals[projectid].total_payment;\n        giveBackTokenRightProjectProposal(projectid);\n        _activeProposals--;\n        _fundedProjects++;\n\n        emit ProjectReservation(projectid, _projectProposals[projectid].total_payment);\n    }\n\n    function giveBackTokenRightProjectPayment(uint projectid, uint payment_index) private {\n        uint j = 0;\n        while(j < _projectProposals[projectid].payments[payment_index].payment_approvals.length) {\n            address voter = _projectProposals[projectid].payments[payment_index].payment_approvals[j];\n            for(uint i=0; i<_projectProposals[projectid].delegators[voter].length; i++) {\n                address delegator = _projectProposals[projectid].delegators[voter][i];\n                _activeVotes[delegator]--;\n            }\n            _activeVotes[voter]--;\n            j++;\n        }\n\n        j = 0;\n        while(j < _projectProposals[projectid].payments[payment_index].payment_refusals.length) {\n            address voter = _projectProposals[projectid].payments[payment_index].payment_refusals[j];\n            for(uint i=0; i<_projectProposals[projectid].delegators[voter].length; i++) {\n                address delegator = _projectProposals[projectid].delegators[voter][i];\n                _activeVotes[delegator]--;\n            }\n            _activeVotes[voter]--;\n            j++;\n        }\n\n        emit TokenRightsGivenBack(1, projectid, payment_index);\n    }\n\n    function giveBackTokenRightProjectProposal(uint projectid) private {\n        uint j = 0;\n        while(j < _projectProposals[projectid].approvals.length) {\n            address voter = _projectProposals[projectid].approvals[j];\n            for(uint i=0; i<_projectProposals[projectid].delegators[voter].length; i++) {\n                address delegator = _projectProposals[projectid].delegators[voter][i];\n                _activeVotes[delegator]--;\n            }\n            _activeVotes[voter]--;\n            j++;\n        }\n\n        j = 0;\n        while(j < _projectProposals[projectid].refusals.length) {\n            address voter = _projectProposals[projectid].refusals[j];\n            for(uint i=0; i<_projectProposals[projectid].delegators[voter].length; i++) {\n                address delegator = _projectProposals[projectid].delegators[voter][i];\n                _activeVotes[delegator]--;\n            }\n            _activeVotes[voter]--;\n            j++;\n        }\n\n        emit TokenRightsGivenBack(0, projectid, 0);\n    }\n\n    function checkPaymentVotes(uint projectid, uint payment_index) private view returns(bool) {\n        return _projectProposals[projectid].payments[payment_index].sum_of_approvals * 100 >= _numOfMembers;\n    }\n\n    function voteForProjectPayment(uint projectid, bool choice) public onlyMember(msg.sender) onlyFunded(projectid) {\n        address sender = msg.sender;\n        int index = findNextPaymentSchedule(projectid);\n        require(index >= 0, \"project is not funded\");\n        uint next_payment = uint(index);\n        require(_projectProposals[projectid].payments[next_payment].num_used_votes[sender] < 1, \"you voted already\");\n        int vote_amount;\n\n        if(choice) {\n            _projectProposals[projectid].payments[next_payment].payment_approvals.push(sender);\n            vote_amount = 1 - _projectProposals[projectid].payments[next_payment].num_used_votes[sender];\n            _projectProposals[projectid].payments[next_payment].sum_of_approvals += uint(vote_amount);\n        } else {\n            _projectProposals[projectid].payments[next_payment].payment_refusals.push(sender);\n        }\n\n        _projectProposals[projectid].payments[next_payment].num_used_votes[sender] = 1;\n\n        _activeVotes[msg.sender]++; \n        for(uint i=0; i<_projectProposals[projectid].delegators[msg.sender].length; i++) {\n            address delegator = _projectProposals[projectid].delegators[msg.sender][i];\n            _activeVotes[delegator]++;\n        }\n\n        vote_amount = 1 - _projectProposals[projectid].payments[next_payment].num_used_votes[sender];\n        emit Vote(projectid, msg.sender, choice, uint(vote_amount), index);\n    }\n\n    function findNextPaymentSchedule(uint projectid) public returns(int) {\n        uint index = _projectProposals[projectid].next_payment_index;\n        uint timestamp = block.timestamp;\n        uint skipped_payments = 0;\n        while(index < _projectProposals[projectid].payment_schedule.length && \n                (_projectProposals[projectid].payment_schedule[index] <= timestamp)) {\n\n            if(!checkPaymentVotes(projectid, index)) {\n                cancelProject(projectid);\n                return -1;\n            }\n            skipped_payments += _projectProposals[projectid].payment_amounts[index];\n            index++;\n            giveBackTokenRightProjectPayment(projectid, index);\n        }\n\n        require(index < _projectProposals[projectid].payment_schedule.length, \"project ended\");\n        _projectProposals[projectid].next_payment_index = index;\n        _reservedPayments -= skipped_payments;\n        return int(index);\n    }\n\n    function withdrawProjectPayment(uint projectid) public payable onlyFunded(projectid) {\n        require(block.timestamp > _projectProposals[projectid].deadline, \"time has not come yet\");\n        require(_projectProposals[projectid].owner == msg.sender, \"you are not the owner of the project\");\n        int index = findNextPaymentSchedule(projectid);\n        require(index >= 0, \"project is not funded\");\n        uint payment_index = uint(index);\n        require(payment_index < _projectProposals[projectid].payment_schedule.length, \"project closed!\");\n\n        require(_projectProposals[projectid].payments[payment_index].sum_of_approvals * 100 > _numOfMembers, \"vote not passed!\");\n        uint payment_amount = _projectProposals[projectid].payment_amounts[payment_index];\n        _projectProposals[projectid].next_payment_index = payment_index + 1;\n\n        _reservedPayments -= payment_amount;\n        _projectProposals[projectid].balance += payment_amount;\n        \n        giveBackTokenRightProjectPayment(projectid, payment_index);\n        _projectProposals[projectid].payments[payment_index].tokenRightsGivenBack = true;\n\n        if(payment_index == _projectProposals[projectid].payment_amounts.length - 1) {\n            _projectProposals[projectid].funded = false;\n            _activeProposals--;\n            _fundedProjects--;\n        }\n\n        address owner = msg.sender;\n        bool result = payable(owner).send(payment_amount);\n        require(result, \"payment failed, try again later.\");\n\n        emit Withdrawal(projectid, payment_index, payment_amount);\n    }\n\n    function cancelProject(uint projectid) private {\n        uint remaining = _projectProposals[projectid].total_payment - _projectProposals[projectid].balance;\n        _reservedPayments -= remaining;\n        _projectProposals[projectid].funded = false;\n        _activeProposals--;\n        _fundedProjects--;\n    }\n\n    function getProjectInfo(uint projectid) public view returns(\n        string memory ipfshash,\n        uint votedeadline,\n        uint[] memory paymentamounts,\n        uint[] memory payschedule\n    ) {\n        ipfshash = _projectProposals[projectid].ipfshash;\n        votedeadline = _projectProposals[projectid].deadline;\n        paymentamounts = _projectProposals[projectid].payment_amounts;\n        payschedule = _projectProposals[projectid].payment_schedule;\n    }\n\n    function getNoOfProjectProposals() public view returns(uint numproposals) {\n        numproposals = _activeProposals;\n    }\n\n    function getNoOfFundedProjects() public view returns(uint numfunded) {\n        numfunded = _fundedProjects;\n    }\n\n    function getEtherReceivedByProject(uint projectid) public view returns(uint amount) {\n        amount = _projectProposals[projectid].balance;\n    }\n\n    function getProjectNextPayment(uint projectid) public view returns(uint next) {\n        next = _projectProposals[projectid].payment_schedule[_projectProposals[projectid].next_payment_index];\n    }\n\n    \n    function submitSurvey(string memory ipfshash, uint deadline, uint numchoices, uint atmostchoice) payable public enoughTokenForSubmission(msg.sender, 2) returns(uint surveyid) {\n        require(msg.value == 0.04 ether, \"not enough ether!\");\n        require(deadline > block.timestamp, \"deadline not valid!\");\n        require(atmostchoice <= numchoices, \"invalid parameters!\");\n\n        super._burn(msg.sender, 2);\n        checkMembership(msg.sender);\n        surveyid = _surveySize;\n        SurveyProposal storage s = _surveys[surveyid];\n\n        s.id = surveyid;\n        s.ipfshash = ipfshash;\n        s.deadline = deadline;\n        s.numchoices = numchoices;\n        s.atmostchoice = atmostchoice;\n        s.numtaken = 0;\n        s.owner = msg.sender;\n        for(uint i=0; i<numchoices; i++) {\n            s.resultsOfChoices.push(0);\n        }\n\n        _surveySize++;\n        _activeSurveys++;\n\n        emit Survey(surveyid, deadline);\n    }\n\n    function getNoOfSurveys() public view returns(uint numsurveys) {\n        numsurveys = _activeSurveys;\n    }\n    \n    function transfer(address to, uint256 amount) public override enoughTokenForSubmission(msg.sender, amount) returns(bool) {\n        address owner = _msgSender();\n        super._transfer(owner, to, amount);\n        checkMembership(msg.sender);\n        checkMembership(to);\n        return true;\n    }\n\n    function transferFrom(\n        address from,\n        address to,\n        uint256 amount\n    ) public override enoughTokenForSubmission(from, amount) returns (bool) {\n        address spender = _msgSender();\n        super._spendAllowance(from, spender, amount);\n        super._transfer(from, to, amount);\n        checkMembership(from);\n        checkMembership(to);\n        return true;\n    }\n\n    function donateEther() payable public {\n        require(msg.value > 0 wei, \"zero wei not acceptable\");\n        emit Donation(0, msg.value);\n    }\n\n    function donateMyGovToken(uint amount) public {\n        require(balanceOf(msg.sender) >= amount, \"not enough tokens\");\n        super._burn(msg.sender, amount);\n        emit Donation(1, amount);\n    }\n\n    function getSurveyInfo(uint surveyid) public view returns(string memory ipfshash, uint deadline, uint numchoices, uint atmostchoice) {\n        ipfshash = _surveys[surveyid].ipfshash;\n        deadline = _surveys[surveyid].deadline;\n        numchoices = _surveys[surveyid].numchoices;\n        atmostchoice = _surveys[surveyid].atmostchoice;\n    }\n\n    function getSurveyOwner(uint surveyid) public view returns(address surveyowner) {\n        surveyowner = _surveys[surveyid].owner;\n    }\n\n    function giveBackTokenRight(uint surveyid) private returns(uint) {\n        uint j = 0;\n        while(j < _surveys[surveyid].numtaken) {\n            address voter = _surveyeds[surveyid][j];\n            _activeVotes[voter]--;\n            j++;\n        }\n\n        emit TokenRightsGivenBack(2, surveyid, 0);\n        return j;\n    }\n\n    function takeSurvey(uint surveyid, uint[] calldata choices) public {\n        require(isMember(msg.sender), \"you are not a member!\");\n        require(choices.length <= _surveys[surveyid].atmostchoice, \"too much choices!\");\n        require(!_surveys[surveyid].memberTakenSurvey[msg.sender], \"survey taken before!\");\n\n        if(_surveys[surveyid].deadline <= block.timestamp && !_surveys[surveyid].tokenRightsGivenBack) {\n            _surveys[surveyid].tokenRightsGivenBack = true;\n            giveBackTokenRight(surveyid);\n        }\n\n        require(_surveys[surveyid].deadline >= block.timestamp, \"deadline passed\");\n\n        _activeVotes[msg.sender]++;\n        uint j = 0;\n        while(j != choices.length) {\n            require(choices[j] < _surveys[surveyid].numchoices, \"invalid choice detected!\");\n            require(choices[j] >= 0, \"invalid choice detected!\");\n            j++;\n        }\n        \n        _surveys[surveyid].numtaken++;\n        _surveys[surveyid].resultsOfMembers[msg.sender] = choices;\n\n        j = 0;\n        while(j != choices.length) {\n            _surveys[surveyid].resultsOfChoices[choices[j]]++;\n            j++;\n        }\n\n        _surveys[surveyid].memberTakenSurvey[msg.sender] = true;\n        _surveyeds[surveyid].push(msg.sender);\n\n        emit SurveyTake(surveyid);\n    }\n\n    function getSurveyResults(uint surveyid) public view returns(uint numtaken, uint[] memory results) {\n        numtaken = _surveys[surveyid].numtaken;\n        results = _surveys[surveyid].resultsOfChoices;\n    }\n}\n",
  "sourcePath": "D:\\smstrs\\smstr7\\cmpe483\\hw\\1\\project\\contracts\\MyGov.sol",
  "compiler": {
    "name": "solc",
    "version": "0.8.17+commit.8df45f5f.Emscripten.clang"
  },
  "schemaVersion": "3.4.11",
  "updatedAt": "2022-12-12T14:47:51.994Z",
  "networkType": "ethereum",
  "devdoc": {
    "kind": "dev",
    "methods": {
      "allowance(address,address)": {
        "details": "See {IERC20-allowance}."
      },
      "approve(address,uint256)": {
        "details": "See {IERC20-approve}. NOTE: If `amount` is the maximum `uint256`, the allowance is not updated on `transferFrom`. This is semantically equivalent to an infinite approval. Requirements: - `spender` cannot be the zero address."
      },
      "balanceOf(address)": {
        "details": "See {IERC20-balanceOf}."
      },
      "decimals()": {
        "details": "Returns the number of decimals used to get its user representation. For example, if `decimals` equals `2`, a balance of `505` tokens should be displayed to a user as `5.05` (`505 / 10 ** 2`). Tokens usually opt for a value of 18, imitating the relationship between Ether and Wei. This is the value {ERC20} uses, unless this function is overridden; NOTE: This information is only used for _display_ purposes: it in no way affects any of the arithmetic of the contract, including {IERC20-balanceOf} and {IERC20-transfer}."
      },
      "decreaseAllowance(address,uint256)": {
        "details": "Atomically decreases the allowance granted to `spender` by the caller. This is an alternative to {approve} that can be used as a mitigation for problems described in {IERC20-approve}. Emits an {Approval} event indicating the updated allowance. Requirements: - `spender` cannot be the zero address. - `spender` must have allowance for the caller of at least `subtractedValue`."
      },
      "increaseAllowance(address,uint256)": {
        "details": "Atomically increases the allowance granted to `spender` by the caller. This is an alternative to {approve} that can be used as a mitigation for problems described in {IERC20-approve}. Emits an {Approval} event indicating the updated allowance. Requirements: - `spender` cannot be the zero address."
      },
      "name()": {
        "details": "Returns the name of the token."
      },
      "symbol()": {
        "details": "Returns the symbol of the token, usually a shorter version of the name."
      },
      "totalSupply()": {
        "details": "See {IERC20-totalSupply}."
      },
      "transfer(address,uint256)": {
        "details": "See {IERC20-transfer}. Requirements: - `to` cannot be the zero address. - the caller must have a balance of at least `amount`."
      },
      "transferFrom(address,address,uint256)": {
        "details": "See {IERC20-transferFrom}. Emits an {Approval} event indicating the updated allowance. This is not required by the EIP. See the note at the beginning of {ERC20}. NOTE: Does not update the allowance if the current allowance is the maximum `uint256`. Requirements: - `from` and `to` cannot be the zero address. - `from` must have a balance of at least `amount`. - the caller must have allowance for ``from``'s tokens of at least `amount`."
      }
    },
    "version": 1
  },
  "userdoc": {
    "kind": "user",
    "methods": {},
    "version": 1
  }
}